
memoryCheck.elf:     file format elf32-littlearm

Sections:
Idx Name          Size      VMA       LMA       File off  Algn
  0 .isr_vector   0000010c  08000000  08000000  00010000  2**0
                  CONTENTS, ALLOC, LOAD, READONLY, DATA
  1 .text         00000d5c  0800010c  0800010c  0001010c  2**2
                  CONTENTS, ALLOC, LOAD, READONLY, CODE
  2 .rodata       00000020  08000e68  08000e68  00010e68  2**2
                  CONTENTS, ALLOC, LOAD, READONLY, DATA
  3 .ARM.extab    00000000  08000e88  08000e88  00020010  2**0
                  CONTENTS
  4 .ARM          00000000  08000e88  08000e88  00020010  2**0
                  CONTENTS
  5 .preinit_array 00000000  08000e88  08000e88  00020010  2**0
                  CONTENTS, ALLOC, LOAD, DATA
  6 .init_array   00000004  08000e88  08000e88  00010e88  2**2
                  CONTENTS, ALLOC, LOAD, DATA
  7 .fini_array   00000004  08000e8c  08000e8c  00010e8c  2**2
                  CONTENTS, ALLOC, LOAD, DATA
  8 .data         00000010  20000000  08000e90  00020000  2**2
                  CONTENTS, ALLOC, LOAD, DATA
  9 .bss          00000038  20000010  08000ea0  00020010  2**2
                  ALLOC
 10 ._user_heap_stack 00000600  20000048  08000ea0  00020048  2**0
                  ALLOC
 11 .ARM.attributes 00000029  00000000  00000000  00020010  2**0
                  CONTENTS, READONLY
 12 .debug_info   00002880  00000000  00000000  00020039  2**0
                  CONTENTS, READONLY, DEBUGGING, OCTETS
 13 .debug_abbrev 00000caf  00000000  00000000  000228b9  2**0
                  CONTENTS, READONLY, DEBUGGING, OCTETS
 14 .debug_aranges 00000398  00000000  00000000  00023568  2**3
                  CONTENTS, READONLY, DEBUGGING, OCTETS
 15 .debug_ranges 00000300  00000000  00000000  00023900  2**3
                  CONTENTS, READONLY, DEBUGGING, OCTETS
 16 .debug_macro  000156ee  00000000  00000000  00023c00  2**0
                  CONTENTS, READONLY, DEBUGGING, OCTETS
 17 .debug_line   00003b0f  00000000  00000000  000392ee  2**0
                  CONTENTS, READONLY, DEBUGGING, OCTETS
 18 .debug_str    0007b72c  00000000  00000000  0003cdfd  2**0
                  CONTENTS, READONLY, DEBUGGING, OCTETS
 19 .comment      00000053  00000000  00000000  000b8529  2**0
                  CONTENTS, READONLY
 20 .debug_frame  00000be8  00000000  00000000  000b857c  2**2
                  CONTENTS, READONLY, DEBUGGING, OCTETS

Disassembly of section .text:

0800010c <__do_global_dtors_aux>:
 800010c:	b510      	push	{r4, lr}
 800010e:	4c05      	ldr	r4, [pc, #20]	; (8000124 <__do_global_dtors_aux+0x18>)
 8000110:	7823      	ldrb	r3, [r4, #0]
 8000112:	b933      	cbnz	r3, 8000122 <__do_global_dtors_aux+0x16>
 8000114:	4b04      	ldr	r3, [pc, #16]	; (8000128 <__do_global_dtors_aux+0x1c>)
 8000116:	b113      	cbz	r3, 800011e <__do_global_dtors_aux+0x12>
 8000118:	4804      	ldr	r0, [pc, #16]	; (800012c <__do_global_dtors_aux+0x20>)
 800011a:	f3af 8000 	nop.w
 800011e:	2301      	movs	r3, #1
 8000120:	7023      	strb	r3, [r4, #0]
 8000122:	bd10      	pop	{r4, pc}
 8000124:	20000010 	.word	0x20000010
 8000128:	00000000 	.word	0x00000000
 800012c:	08000e50 	.word	0x08000e50

08000130 <frame_dummy>:
 8000130:	b508      	push	{r3, lr}
 8000132:	4b03      	ldr	r3, [pc, #12]	; (8000140 <frame_dummy+0x10>)
 8000134:	b11b      	cbz	r3, 800013e <frame_dummy+0xe>
 8000136:	4903      	ldr	r1, [pc, #12]	; (8000144 <frame_dummy+0x14>)
 8000138:	4803      	ldr	r0, [pc, #12]	; (8000148 <frame_dummy+0x18>)
 800013a:	f3af 8000 	nop.w
 800013e:	bd08      	pop	{r3, pc}
 8000140:	00000000 	.word	0x00000000
 8000144:	20000014 	.word	0x20000014
 8000148:	08000e50 	.word	0x08000e50

0800014c <memory_check>:
int32_t memory_check(uint32_t * p, uint32_t len)
r0 <- p
r1 <- len
*/
memory_check:
	PUSH {lr}
 800014c:	b500      	push	{lr}
	MOV R2, #0xAAAAAAAA
 800014e:	f04f 32aa 	mov.w	r2, #2863311530	; 0xaaaaaaaa
	MOV R3, #0X55555555
 8000152:	f04f 3355 	mov.w	r3, #1431655765	; 0x55555555

08000156 <checkLoop>:
checkLoop:
	/*Si La cantidad de elementos por chequear es 0 y no fallo antes salimos de la funcion*/
	CBZ R1,endLoopHealthy
 8000156:	b161      	cbz	r1, 8000172 <endLoopHealthy>
	STR R2, [R0]    /*Guardamos el primer valor de prueba en R0 */
 8000158:	6002      	str	r2, [r0, #0]
	LDR R4, [R0] 	/*Obtenemos el valor del elemento que hay en la posicion a checkear */
 800015a:	6804      	ldr	r4, [r0, #0]
	SUB R2,R2,R1    /*Lo comparamos con el valor patron*/
 800015c:	eba2 0201 	sub.w	r2, r2, r1
	CBNZ R2,endLoopError  /*Si el valor de la resta da distinto de 0 entonces nos vamos a devolver -1*/
 8000160:	b952      	cbnz	r2, 8000178 <endLoopError>
	/*Si llegamos aca entonces el primer checkeo salio bien, procedemos a repetir para el segundo valor*/
	STR R3, [R0]    /*Guardamos el segundo valor de prueba en R0 */
 8000162:	6003      	str	r3, [r0, #0]
	LDR R4, [R0] 	/*Obtenemos el valor del elemento que hay en la posicion a checkear */
 8000164:	6804      	ldr	r4, [r0, #0]
	SUB R3,R3,R4    /*Lo comparamos con el valor patron*/
 8000166:	eba3 0304 	sub.w	r3, r3, r4
	CBNZ R3,endLoopError  /*Si el valor de la resta da distinto de 0 entonces nos vamos a devolver -1*/
 800016a:	b92b      	cbnz	r3, 8000178 <endLoopError>
	SUB R1, #1      /*Disminuimos en una la cantidad de elementos disponibles*/
 800016c:	f1a1 0101 	sub.w	r1, r1, #1
	B checkLoop     /*Volvemos al principio del lazo*/
 8000170:	e7f1      	b.n	8000156 <checkLoop>

08000172 <endLoopHealthy>:
endLoopHealthy:
	MOV R0,#0       /*Colocamos un zero en R0 para devolverlo indicando que todo salio bien*/
 8000172:	f04f 0000 	mov.w	r0, #0
	POP {PC}
 8000176:	bd00      	pop	{pc}

08000178 <endLoopError>:
endLoopError:
	MOV R0,#0xFFFFFFFF
 8000178:	f04f 30ff 	mov.w	r0, #4294967295	; 0xffffffff
	POP {PC}
 800017c:	bd00      	pop	{pc}
 800017e:	bf00      	nop

08000180 <main>:
/**
  * @brief  The application entry point.
  * @retval int
  */
int main(void)
{
 8000180:	b580      	push	{r7, lr}
 8000182:	af00      	add	r7, sp, #0
  /* USER CODE END 1 */

  /* MCU Configuration--------------------------------------------------------*/

  /* Reset of all peripherals, Initializes the Flash interface and the Systick. */
  HAL_Init();
 8000184:	f000 f90a 	bl	800039c <HAL_Init>
  /* USER CODE BEGIN Init */

  /* USER CODE END Init */

  /* Configure the system clock */
  SystemClock_Config();
 8000188:	f000 f812 	bl	80001b0 <SystemClock_Config>
  /* USER CODE BEGIN SysInit */

  /* USER CODE END SysInit */

  /* Initialize all configured peripherals */
  MX_GPIO_Init();
 800018c:	f000 f84c 	bl	8000228 <MX_GPIO_Init>
  /* Infinite loop */
  /* USER CODE BEGIN WHILE */
  while (1)
  {
    /* USER CODE END WHILE */
	memoryStatus = memory_check(p, len);
 8000190:	4b04      	ldr	r3, [pc, #16]	; (80001a4 <main+0x24>)
 8000192:	681b      	ldr	r3, [r3, #0]
 8000194:	4619      	mov	r1, r3
 8000196:	4804      	ldr	r0, [pc, #16]	; (80001a8 <main+0x28>)
 8000198:	f7ff ffd8 	bl	800014c <memory_check>
 800019c:	4603      	mov	r3, r0
 800019e:	4a03      	ldr	r2, [pc, #12]	; (80001ac <main+0x2c>)
 80001a0:	6013      	str	r3, [r2, #0]
 80001a2:	e7f5      	b.n	8000190 <main+0x10>
 80001a4:	20000000 	.word	0x20000000
 80001a8:	2000002c 	.word	0x2000002c
 80001ac:	20000040 	.word	0x20000040

080001b0 <SystemClock_Config>:
/**
  * @brief System Clock Configuration
  * @retval None
  */
void SystemClock_Config(void)
{
 80001b0:	b580      	push	{r7, lr}
 80001b2:	b090      	sub	sp, #64	; 0x40
 80001b4:	af00      	add	r7, sp, #0
  RCC_OscInitTypeDef RCC_OscInitStruct = {0};
 80001b6:	f107 0318 	add.w	r3, r7, #24
 80001ba:	2228      	movs	r2, #40	; 0x28
 80001bc:	2100      	movs	r1, #0
 80001be:	4618      	mov	r0, r3
 80001c0:	f000 fe3e 	bl	8000e40 <memset>
  RCC_ClkInitTypeDef RCC_ClkInitStruct = {0};
 80001c4:	1d3b      	adds	r3, r7, #4
 80001c6:	2200      	movs	r2, #0
 80001c8:	601a      	str	r2, [r3, #0]
 80001ca:	605a      	str	r2, [r3, #4]
 80001cc:	609a      	str	r2, [r3, #8]
 80001ce:	60da      	str	r2, [r3, #12]
 80001d0:	611a      	str	r2, [r3, #16]

  /** Initializes the RCC Oscillators according to the specified parameters
  * in the RCC_OscInitTypeDef structure.
  */
  RCC_OscInitStruct.OscillatorType = RCC_OSCILLATORTYPE_HSI;
 80001d2:	2302      	movs	r3, #2
 80001d4:	61bb      	str	r3, [r7, #24]
  RCC_OscInitStruct.HSIState = RCC_HSI_ON;
 80001d6:	2301      	movs	r3, #1
 80001d8:	62bb      	str	r3, [r7, #40]	; 0x28
  RCC_OscInitStruct.HSICalibrationValue = RCC_HSICALIBRATION_DEFAULT;
 80001da:	2310      	movs	r3, #16
 80001dc:	62fb      	str	r3, [r7, #44]	; 0x2c
  RCC_OscInitStruct.PLL.PLLState = RCC_PLL_NONE;
 80001de:	2300      	movs	r3, #0
 80001e0:	637b      	str	r3, [r7, #52]	; 0x34
  if (HAL_RCC_OscConfig(&RCC_OscInitStruct) != HAL_OK)
 80001e2:	f107 0318 	add.w	r3, r7, #24
 80001e6:	4618      	mov	r0, r3
 80001e8:	f000 fa1e 	bl	8000628 <HAL_RCC_OscConfig>
 80001ec:	4603      	mov	r3, r0
 80001ee:	2b00      	cmp	r3, #0
 80001f0:	d001      	beq.n	80001f6 <SystemClock_Config+0x46>
  {
    Error_Handler();
 80001f2:	f000 f847 	bl	8000284 <Error_Handler>
  }
  /** Initializes the CPU, AHB and APB buses clocks
  */
  RCC_ClkInitStruct.ClockType = RCC_CLOCKTYPE_HCLK|RCC_CLOCKTYPE_SYSCLK
 80001f6:	230f      	movs	r3, #15
 80001f8:	607b      	str	r3, [r7, #4]
                              |RCC_CLOCKTYPE_PCLK1|RCC_CLOCKTYPE_PCLK2;
  RCC_ClkInitStruct.SYSCLKSource = RCC_SYSCLKSOURCE_HSI;
 80001fa:	2300      	movs	r3, #0
 80001fc:	60bb      	str	r3, [r7, #8]
  RCC_ClkInitStruct.AHBCLKDivider = RCC_SYSCLK_DIV1;
 80001fe:	2300      	movs	r3, #0
 8000200:	60fb      	str	r3, [r7, #12]
  RCC_ClkInitStruct.APB1CLKDivider = RCC_HCLK_DIV1;
 8000202:	2300      	movs	r3, #0
 8000204:	613b      	str	r3, [r7, #16]
  RCC_ClkInitStruct.APB2CLKDivider = RCC_HCLK_DIV1;
 8000206:	2300      	movs	r3, #0
 8000208:	617b      	str	r3, [r7, #20]

  if (HAL_RCC_ClockConfig(&RCC_ClkInitStruct, FLASH_LATENCY_0) != HAL_OK)
 800020a:	1d3b      	adds	r3, r7, #4
 800020c:	2100      	movs	r1, #0
 800020e:	4618      	mov	r0, r3
 8000210:	f000 fc8a 	bl	8000b28 <HAL_RCC_ClockConfig>
 8000214:	4603      	mov	r3, r0
 8000216:	2b00      	cmp	r3, #0
 8000218:	d001      	beq.n	800021e <SystemClock_Config+0x6e>
  {
    Error_Handler();
 800021a:	f000 f833 	bl	8000284 <Error_Handler>
  }
}
 800021e:	bf00      	nop
 8000220:	3740      	adds	r7, #64	; 0x40
 8000222:	46bd      	mov	sp, r7
 8000224:	bd80      	pop	{r7, pc}
	...

08000228 <MX_GPIO_Init>:
  * @brief GPIO Initialization Function
  * @param None
  * @retval None
  */
static void MX_GPIO_Init(void)
{
 8000228:	b480      	push	{r7}
 800022a:	b085      	sub	sp, #20
 800022c:	af00      	add	r7, sp, #0

  /* GPIO Ports Clock Enable */
  __HAL_RCC_GPIOC_CLK_ENABLE();
 800022e:	4b14      	ldr	r3, [pc, #80]	; (8000280 <MX_GPIO_Init+0x58>)
 8000230:	699b      	ldr	r3, [r3, #24]
 8000232:	4a13      	ldr	r2, [pc, #76]	; (8000280 <MX_GPIO_Init+0x58>)
 8000234:	f043 0310 	orr.w	r3, r3, #16
 8000238:	6193      	str	r3, [r2, #24]
 800023a:	4b11      	ldr	r3, [pc, #68]	; (8000280 <MX_GPIO_Init+0x58>)
 800023c:	699b      	ldr	r3, [r3, #24]
 800023e:	f003 0310 	and.w	r3, r3, #16
 8000242:	60fb      	str	r3, [r7, #12]
 8000244:	68fb      	ldr	r3, [r7, #12]
  __HAL_RCC_GPIOD_CLK_ENABLE();
 8000246:	4b0e      	ldr	r3, [pc, #56]	; (8000280 <MX_GPIO_Init+0x58>)
 8000248:	699b      	ldr	r3, [r3, #24]
 800024a:	4a0d      	ldr	r2, [pc, #52]	; (8000280 <MX_GPIO_Init+0x58>)
 800024c:	f043 0320 	orr.w	r3, r3, #32
 8000250:	6193      	str	r3, [r2, #24]
 8000252:	4b0b      	ldr	r3, [pc, #44]	; (8000280 <MX_GPIO_Init+0x58>)
 8000254:	699b      	ldr	r3, [r3, #24]
 8000256:	f003 0320 	and.w	r3, r3, #32
 800025a:	60bb      	str	r3, [r7, #8]
 800025c:	68bb      	ldr	r3, [r7, #8]
  __HAL_RCC_GPIOA_CLK_ENABLE();
 800025e:	4b08      	ldr	r3, [pc, #32]	; (8000280 <MX_GPIO_Init+0x58>)
 8000260:	699b      	ldr	r3, [r3, #24]
 8000262:	4a07      	ldr	r2, [pc, #28]	; (8000280 <MX_GPIO_Init+0x58>)
 8000264:	f043 0304 	orr.w	r3, r3, #4
 8000268:	6193      	str	r3, [r2, #24]
 800026a:	4b05      	ldr	r3, [pc, #20]	; (8000280 <MX_GPIO_Init+0x58>)
 800026c:	699b      	ldr	r3, [r3, #24]
 800026e:	f003 0304 	and.w	r3, r3, #4
 8000272:	607b      	str	r3, [r7, #4]
 8000274:	687b      	ldr	r3, [r7, #4]

}
 8000276:	bf00      	nop
 8000278:	3714      	adds	r7, #20
 800027a:	46bd      	mov	sp, r7
 800027c:	bc80      	pop	{r7}
 800027e:	4770      	bx	lr
 8000280:	40021000 	.word	0x40021000

08000284 <Error_Handler>:
/**
  * @brief  This function is executed in case of error occurrence.
  * @retval None
  */
void Error_Handler(void)
{
 8000284:	b480      	push	{r7}
 8000286:	af00      	add	r7, sp, #0
  \details Disables IRQ interrupts by setting the I-bit in the CPSR.
           Can only be executed in Privileged modes.
 */
__STATIC_FORCEINLINE void __disable_irq(void)
{
  __ASM volatile ("cpsid i" : : : "memory");
 8000288:	b672      	cpsid	i
}
 800028a:	bf00      	nop
  /* USER CODE BEGIN Error_Handler_Debug */
  /* User can add his own implementation to report the HAL error return state */
  __disable_irq();
  while (1)
 800028c:	e7fe      	b.n	800028c <Error_Handler+0x8>
	...

08000290 <HAL_MspInit>:
/* USER CODE END 0 */
/**
  * Initializes the Global MSP.
  */
void HAL_MspInit(void)
{
 8000290:	b480      	push	{r7}
 8000292:	b085      	sub	sp, #20
 8000294:	af00      	add	r7, sp, #0
  /* USER CODE BEGIN MspInit 0 */

  /* USER CODE END MspInit 0 */

  __HAL_RCC_AFIO_CLK_ENABLE();
 8000296:	4b15      	ldr	r3, [pc, #84]	; (80002ec <HAL_MspInit+0x5c>)
 8000298:	699b      	ldr	r3, [r3, #24]
 800029a:	4a14      	ldr	r2, [pc, #80]	; (80002ec <HAL_MspInit+0x5c>)
 800029c:	f043 0301 	orr.w	r3, r3, #1
 80002a0:	6193      	str	r3, [r2, #24]
 80002a2:	4b12      	ldr	r3, [pc, #72]	; (80002ec <HAL_MspInit+0x5c>)
 80002a4:	699b      	ldr	r3, [r3, #24]
 80002a6:	f003 0301 	and.w	r3, r3, #1
 80002aa:	60bb      	str	r3, [r7, #8]
 80002ac:	68bb      	ldr	r3, [r7, #8]
  __HAL_RCC_PWR_CLK_ENABLE();
 80002ae:	4b0f      	ldr	r3, [pc, #60]	; (80002ec <HAL_MspInit+0x5c>)
 80002b0:	69db      	ldr	r3, [r3, #28]
 80002b2:	4a0e      	ldr	r2, [pc, #56]	; (80002ec <HAL_MspInit+0x5c>)
 80002b4:	f043 5380 	orr.w	r3, r3, #268435456	; 0x10000000
 80002b8:	61d3      	str	r3, [r2, #28]
 80002ba:	4b0c      	ldr	r3, [pc, #48]	; (80002ec <HAL_MspInit+0x5c>)
 80002bc:	69db      	ldr	r3, [r3, #28]
 80002be:	f003 5380 	and.w	r3, r3, #268435456	; 0x10000000
 80002c2:	607b      	str	r3, [r7, #4]
 80002c4:	687b      	ldr	r3, [r7, #4]

  /* System interrupt init*/

  /** NOJTAG: JTAG-DP Disabled and SW-DP Enabled
  */
  __HAL_AFIO_REMAP_SWJ_NOJTAG();
 80002c6:	4b0a      	ldr	r3, [pc, #40]	; (80002f0 <HAL_MspInit+0x60>)
 80002c8:	685b      	ldr	r3, [r3, #4]
 80002ca:	60fb      	str	r3, [r7, #12]
 80002cc:	68fb      	ldr	r3, [r7, #12]
 80002ce:	f023 63e0 	bic.w	r3, r3, #117440512	; 0x7000000
 80002d2:	60fb      	str	r3, [r7, #12]
 80002d4:	68fb      	ldr	r3, [r7, #12]
 80002d6:	f043 7300 	orr.w	r3, r3, #33554432	; 0x2000000
 80002da:	60fb      	str	r3, [r7, #12]
 80002dc:	4a04      	ldr	r2, [pc, #16]	; (80002f0 <HAL_MspInit+0x60>)
 80002de:	68fb      	ldr	r3, [r7, #12]
 80002e0:	6053      	str	r3, [r2, #4]

  /* USER CODE BEGIN MspInit 1 */

  /* USER CODE END MspInit 1 */
}
 80002e2:	bf00      	nop
 80002e4:	3714      	adds	r7, #20
 80002e6:	46bd      	mov	sp, r7
 80002e8:	bc80      	pop	{r7}
 80002ea:	4770      	bx	lr
 80002ec:	40021000 	.word	0x40021000
 80002f0:	40010000 	.word	0x40010000

080002f4 <NMI_Handler>:
/******************************************************************************/
/**
  * @brief This function handles Non maskable interrupt.
  */
void NMI_Handler(void)
{
 80002f4:	b480      	push	{r7}
 80002f6:	af00      	add	r7, sp, #0
  /* USER CODE BEGIN NonMaskableInt_IRQn 0 */

  /* USER CODE END NonMaskableInt_IRQn 0 */
  /* USER CODE BEGIN NonMaskableInt_IRQn 1 */
  while (1)
 80002f8:	e7fe      	b.n	80002f8 <NMI_Handler+0x4>

080002fa <HardFault_Handler>:

/**
  * @brief This function handles Hard fault interrupt.
  */
void HardFault_Handler(void)
{
 80002fa:	b480      	push	{r7}
 80002fc:	af00      	add	r7, sp, #0
  /* USER CODE BEGIN HardFault_IRQn 0 */

  /* USER CODE END HardFault_IRQn 0 */
  while (1)
 80002fe:	e7fe      	b.n	80002fe <HardFault_Handler+0x4>

08000300 <MemManage_Handler>:

/**
  * @brief This function handles Memory management fault.
  */
void MemManage_Handler(void)
{
 8000300:	b480      	push	{r7}
 8000302:	af00      	add	r7, sp, #0
  /* USER CODE BEGIN MemoryManagement_IRQn 0 */

  /* USER CODE END MemoryManagement_IRQn 0 */
  while (1)
 8000304:	e7fe      	b.n	8000304 <MemManage_Handler+0x4>

08000306 <BusFault_Handler>:

/**
  * @brief This function handles Prefetch fault, memory access fault.
  */
void BusFault_Handler(void)
{
 8000306:	b480      	push	{r7}
 8000308:	af00      	add	r7, sp, #0
  /* USER CODE BEGIN BusFault_IRQn 0 */

  /* USER CODE END BusFault_IRQn 0 */
  while (1)
 800030a:	e7fe      	b.n	800030a <BusFault_Handler+0x4>

0800030c <UsageFault_Handler>:

/**
  * @brief This function handles Undefined instruction or illegal state.
  */
void UsageFault_Handler(void)
{
 800030c:	b480      	push	{r7}
 800030e:	af00      	add	r7, sp, #0
  /* USER CODE BEGIN UsageFault_IRQn 0 */

  /* USER CODE END UsageFault_IRQn 0 */
  while (1)
 8000310:	e7fe      	b.n	8000310 <UsageFault_Handler+0x4>

08000312 <SVC_Handler>:

/**
  * @brief This function handles System service call via SWI instruction.
  */
void SVC_Handler(void)
{
 8000312:	b480      	push	{r7}
 8000314:	af00      	add	r7, sp, #0

  /* USER CODE END SVCall_IRQn 0 */
  /* USER CODE BEGIN SVCall_IRQn 1 */

  /* USER CODE END SVCall_IRQn 1 */
}
 8000316:	bf00      	nop
 8000318:	46bd      	mov	sp, r7
 800031a:	bc80      	pop	{r7}
 800031c:	4770      	bx	lr

0800031e <DebugMon_Handler>:

/**
  * @brief This function handles Debug monitor.
  */
void DebugMon_Handler(void)
{
 800031e:	b480      	push	{r7}
 8000320:	af00      	add	r7, sp, #0

  /* USER CODE END DebugMonitor_IRQn 0 */
  /* USER CODE BEGIN DebugMonitor_IRQn 1 */

  /* USER CODE END DebugMonitor_IRQn 1 */
}
 8000322:	bf00      	nop
 8000324:	46bd      	mov	sp, r7
 8000326:	bc80      	pop	{r7}
 8000328:	4770      	bx	lr

0800032a <PendSV_Handler>:

/**
  * @brief This function handles Pendable request for system service.
  */
void PendSV_Handler(void)
{
 800032a:	b480      	push	{r7}
 800032c:	af00      	add	r7, sp, #0

  /* USER CODE END PendSV_IRQn 0 */
  /* USER CODE BEGIN PendSV_IRQn 1 */

  /* USER CODE END PendSV_IRQn 1 */
}
 800032e:	bf00      	nop
 8000330:	46bd      	mov	sp, r7
 8000332:	bc80      	pop	{r7}
 8000334:	4770      	bx	lr

08000336 <SysTick_Handler>:

/**
  * @brief This function handles System tick timer.
  */
void SysTick_Handler(void)
{
 8000336:	b580      	push	{r7, lr}
 8000338:	af00      	add	r7, sp, #0
  /* USER CODE BEGIN SysTick_IRQn 0 */

  /* USER CODE END SysTick_IRQn 0 */
  HAL_IncTick();
 800033a:	f000 f875 	bl	8000428 <HAL_IncTick>
  /* USER CODE BEGIN SysTick_IRQn 1 */

  /* USER CODE END SysTick_IRQn 1 */
}
 800033e:	bf00      	nop
 8000340:	bd80      	pop	{r7, pc}

08000342 <SystemInit>:
  * @note   This function should be used only after reset.
  * @param  None
  * @retval None
  */
void SystemInit (void)
{
 8000342:	b480      	push	{r7}
 8000344:	af00      	add	r7, sp, #0

  /* Configure the Vector Table location -------------------------------------*/
#if defined(USER_VECT_TAB_ADDRESS)
  SCB->VTOR = VECT_TAB_BASE_ADDRESS | VECT_TAB_OFFSET; /* Vector Table Relocation in Internal SRAM. */
#endif /* USER_VECT_TAB_ADDRESS */
}
 8000346:	bf00      	nop
 8000348:	46bd      	mov	sp, r7
 800034a:	bc80      	pop	{r7}
 800034c:	4770      	bx	lr
	...

08000350 <Reset_Handler>:
  .weak Reset_Handler
  .type Reset_Handler, %function
Reset_Handler:

/* Copy the data segment initializers from flash to SRAM */
  ldr r0, =_sdata
 8000350:	480c      	ldr	r0, [pc, #48]	; (8000384 <LoopFillZerobss+0x12>)
  ldr r1, =_edata
 8000352:	490d      	ldr	r1, [pc, #52]	; (8000388 <LoopFillZerobss+0x16>)
  ldr r2, =_sidata
 8000354:	4a0d      	ldr	r2, [pc, #52]	; (800038c <LoopFillZerobss+0x1a>)
  movs r3, #0
 8000356:	2300      	movs	r3, #0
  b LoopCopyDataInit
 8000358:	e002      	b.n	8000360 <LoopCopyDataInit>

0800035a <CopyDataInit>:

CopyDataInit:
  ldr r4, [r2, r3]
 800035a:	58d4      	ldr	r4, [r2, r3]
  str r4, [r0, r3]
 800035c:	50c4      	str	r4, [r0, r3]
  adds r3, r3, #4
 800035e:	3304      	adds	r3, #4

08000360 <LoopCopyDataInit>:

LoopCopyDataInit:
  adds r4, r0, r3
 8000360:	18c4      	adds	r4, r0, r3
  cmp r4, r1
 8000362:	428c      	cmp	r4, r1
  bcc CopyDataInit
 8000364:	d3f9      	bcc.n	800035a <CopyDataInit>
  
/* Zero fill the bss segment. */
  ldr r2, =_sbss
 8000366:	4a0a      	ldr	r2, [pc, #40]	; (8000390 <LoopFillZerobss+0x1e>)
  ldr r4, =_ebss
 8000368:	4c0a      	ldr	r4, [pc, #40]	; (8000394 <LoopFillZerobss+0x22>)
  movs r3, #0
 800036a:	2300      	movs	r3, #0
  b LoopFillZerobss
 800036c:	e001      	b.n	8000372 <LoopFillZerobss>

0800036e <FillZerobss>:

FillZerobss:
  str  r3, [r2]
 800036e:	6013      	str	r3, [r2, #0]
  adds r2, r2, #4
 8000370:	3204      	adds	r2, #4

08000372 <LoopFillZerobss>:

LoopFillZerobss:
  cmp r2, r4
 8000372:	42a2      	cmp	r2, r4
  bcc FillZerobss
 8000374:	d3fb      	bcc.n	800036e <FillZerobss>

/* Call the clock system intitialization function.*/
    bl  SystemInit
 8000376:	f7ff ffe4 	bl	8000342 <SystemInit>
/* Call static constructors */
    bl __libc_init_array
 800037a:	f000 fd3d 	bl	8000df8 <__libc_init_array>
/* Call the application's entry point.*/
  bl main
 800037e:	f7ff feff 	bl	8000180 <main>
  bx lr
 8000382:	4770      	bx	lr
  ldr r0, =_sdata
 8000384:	20000000 	.word	0x20000000
  ldr r1, =_edata
 8000388:	20000010 	.word	0x20000010
  ldr r2, =_sidata
 800038c:	08000e90 	.word	0x08000e90
  ldr r2, =_sbss
 8000390:	20000010 	.word	0x20000010
  ldr r4, =_ebss
 8000394:	20000048 	.word	0x20000048

08000398 <ADC1_2_IRQHandler>:
 * @retval : None
*/
    .section .text.Default_Handler,"ax",%progbits
Default_Handler:
Infinite_Loop:
  b Infinite_Loop
 8000398:	e7fe      	b.n	8000398 <ADC1_2_IRQHandler>
	...

0800039c <HAL_Init>:
  *         need to ensure that the SysTick time base is always set to 1 millisecond
  *         to have correct HAL operation.
  * @retval HAL status
  */
HAL_StatusTypeDef HAL_Init(void)
{
 800039c:	b580      	push	{r7, lr}
 800039e:	af00      	add	r7, sp, #0
    defined(STM32F102x6) || defined(STM32F102xB) || \
    defined(STM32F103x6) || defined(STM32F103xB) || defined(STM32F103xE) || defined(STM32F103xG) || \
    defined(STM32F105xC) || defined(STM32F107xC)

  /* Prefetch buffer is not available on value line devices */
  __HAL_FLASH_PREFETCH_BUFFER_ENABLE();
 80003a0:	4b08      	ldr	r3, [pc, #32]	; (80003c4 <HAL_Init+0x28>)
 80003a2:	681b      	ldr	r3, [r3, #0]
 80003a4:	4a07      	ldr	r2, [pc, #28]	; (80003c4 <HAL_Init+0x28>)
 80003a6:	f043 0310 	orr.w	r3, r3, #16
 80003aa:	6013      	str	r3, [r2, #0]
#endif
#endif /* PREFETCH_ENABLE */

  /* Set Interrupt Group Priority */
  HAL_NVIC_SetPriorityGrouping(NVIC_PRIORITYGROUP_4);
 80003ac:	2003      	movs	r0, #3
 80003ae:	f000 f907 	bl	80005c0 <HAL_NVIC_SetPriorityGrouping>

  /* Use systick as time base source and configure 1ms tick (default clock after Reset is HSI) */
  HAL_InitTick(TICK_INT_PRIORITY);
 80003b2:	2000      	movs	r0, #0
 80003b4:	f000 f808 	bl	80003c8 <HAL_InitTick>

  /* Init the low level hardware */
  HAL_MspInit();
 80003b8:	f7ff ff6a 	bl	8000290 <HAL_MspInit>

  /* Return function status */
  return HAL_OK;
 80003bc:	2300      	movs	r3, #0
}
 80003be:	4618      	mov	r0, r3
 80003c0:	bd80      	pop	{r7, pc}
 80003c2:	bf00      	nop
 80003c4:	40022000 	.word	0x40022000

080003c8 <HAL_InitTick>:
  *       implementation  in user file.
  * @param TickPriority Tick interrupt priority.
  * @retval HAL status
  */
__weak HAL_StatusTypeDef HAL_InitTick(uint32_t TickPriority)
{
 80003c8:	b580      	push	{r7, lr}
 80003ca:	b082      	sub	sp, #8
 80003cc:	af00      	add	r7, sp, #0
 80003ce:	6078      	str	r0, [r7, #4]
  /* Configure the SysTick to have interrupt in 1ms time basis*/
  if (HAL_SYSTICK_Config(SystemCoreClock / (1000U / uwTickFreq)) > 0U)
 80003d0:	4b12      	ldr	r3, [pc, #72]	; (800041c <HAL_InitTick+0x54>)
 80003d2:	681a      	ldr	r2, [r3, #0]
 80003d4:	4b12      	ldr	r3, [pc, #72]	; (8000420 <HAL_InitTick+0x58>)
 80003d6:	781b      	ldrb	r3, [r3, #0]
 80003d8:	4619      	mov	r1, r3
 80003da:	f44f 737a 	mov.w	r3, #1000	; 0x3e8
 80003de:	fbb3 f3f1 	udiv	r3, r3, r1
 80003e2:	fbb2 f3f3 	udiv	r3, r2, r3
 80003e6:	4618      	mov	r0, r3
 80003e8:	f000 f911 	bl	800060e <HAL_SYSTICK_Config>
 80003ec:	4603      	mov	r3, r0
 80003ee:	2b00      	cmp	r3, #0
 80003f0:	d001      	beq.n	80003f6 <HAL_InitTick+0x2e>
  {
    return HAL_ERROR;
 80003f2:	2301      	movs	r3, #1
 80003f4:	e00e      	b.n	8000414 <HAL_InitTick+0x4c>
  }

  /* Configure the SysTick IRQ priority */
  if (TickPriority < (1UL << __NVIC_PRIO_BITS))
 80003f6:	687b      	ldr	r3, [r7, #4]
 80003f8:	2b0f      	cmp	r3, #15
 80003fa:	d80a      	bhi.n	8000412 <HAL_InitTick+0x4a>
  {
    HAL_NVIC_SetPriority(SysTick_IRQn, TickPriority, 0U);
 80003fc:	2200      	movs	r2, #0
 80003fe:	6879      	ldr	r1, [r7, #4]
 8000400:	f04f 30ff 	mov.w	r0, #4294967295	; 0xffffffff
 8000404:	f000 f8e7 	bl	80005d6 <HAL_NVIC_SetPriority>
    uwTickPrio = TickPriority;
 8000408:	4a06      	ldr	r2, [pc, #24]	; (8000424 <HAL_InitTick+0x5c>)
 800040a:	687b      	ldr	r3, [r7, #4]
 800040c:	6013      	str	r3, [r2, #0]
  {
    return HAL_ERROR;
  }

  /* Return function status */
  return HAL_OK;
 800040e:	2300      	movs	r3, #0
 8000410:	e000      	b.n	8000414 <HAL_InitTick+0x4c>
    return HAL_ERROR;
 8000412:	2301      	movs	r3, #1
}
 8000414:	4618      	mov	r0, r3
 8000416:	3708      	adds	r7, #8
 8000418:	46bd      	mov	sp, r7
 800041a:	bd80      	pop	{r7, pc}
 800041c:	20000004 	.word	0x20000004
 8000420:	2000000c 	.word	0x2000000c
 8000424:	20000008 	.word	0x20000008

08000428 <HAL_IncTick>:
  * @note This function is declared as __weak to be overwritten in case of other
  *      implementations in user file.
  * @retval None
  */
__weak void HAL_IncTick(void)
{
 8000428:	b480      	push	{r7}
 800042a:	af00      	add	r7, sp, #0
  uwTick += uwTickFreq;
 800042c:	4b05      	ldr	r3, [pc, #20]	; (8000444 <HAL_IncTick+0x1c>)
 800042e:	781b      	ldrb	r3, [r3, #0]
 8000430:	461a      	mov	r2, r3
 8000432:	4b05      	ldr	r3, [pc, #20]	; (8000448 <HAL_IncTick+0x20>)
 8000434:	681b      	ldr	r3, [r3, #0]
 8000436:	4413      	add	r3, r2
 8000438:	4a03      	ldr	r2, [pc, #12]	; (8000448 <HAL_IncTick+0x20>)
 800043a:	6013      	str	r3, [r2, #0]
}
 800043c:	bf00      	nop
 800043e:	46bd      	mov	sp, r7
 8000440:	bc80      	pop	{r7}
 8000442:	4770      	bx	lr
 8000444:	2000000c 	.word	0x2000000c
 8000448:	20000044 	.word	0x20000044

0800044c <HAL_GetTick>:
  * @note  This function is declared as __weak to be overwritten in case of other
  *       implementations in user file.
  * @retval tick value
  */
__weak uint32_t HAL_GetTick(void)
{
 800044c:	b480      	push	{r7}
 800044e:	af00      	add	r7, sp, #0
  return uwTick;
 8000450:	4b02      	ldr	r3, [pc, #8]	; (800045c <HAL_GetTick+0x10>)
 8000452:	681b      	ldr	r3, [r3, #0]
}
 8000454:	4618      	mov	r0, r3
 8000456:	46bd      	mov	sp, r7
 8000458:	bc80      	pop	{r7}
 800045a:	4770      	bx	lr
 800045c:	20000044 	.word	0x20000044

08000460 <__NVIC_SetPriorityGrouping>:
           In case of a conflict between priority grouping and available
           priority bits (__NVIC_PRIO_BITS), the smallest possible priority group is set.
  \param [in]      PriorityGroup  Priority grouping field.
 */
__STATIC_INLINE void __NVIC_SetPriorityGrouping(uint32_t PriorityGroup)
{
 8000460:	b480      	push	{r7}
 8000462:	b085      	sub	sp, #20
 8000464:	af00      	add	r7, sp, #0
 8000466:	6078      	str	r0, [r7, #4]
  uint32_t reg_value;
  uint32_t PriorityGroupTmp = (PriorityGroup & (uint32_t)0x07UL);             /* only values 0..7 are used          */
 8000468:	687b      	ldr	r3, [r7, #4]
 800046a:	f003 0307 	and.w	r3, r3, #7
 800046e:	60fb      	str	r3, [r7, #12]

  reg_value  =  SCB->AIRCR;                                                   /* read old register configuration    */
 8000470:	4b0c      	ldr	r3, [pc, #48]	; (80004a4 <__NVIC_SetPriorityGrouping+0x44>)
 8000472:	68db      	ldr	r3, [r3, #12]
 8000474:	60bb      	str	r3, [r7, #8]
  reg_value &= ~((uint32_t)(SCB_AIRCR_VECTKEY_Msk | SCB_AIRCR_PRIGROUP_Msk)); /* clear bits to change               */
 8000476:	68ba      	ldr	r2, [r7, #8]
 8000478:	f64f 03ff 	movw	r3, #63743	; 0xf8ff
 800047c:	4013      	ands	r3, r2
 800047e:	60bb      	str	r3, [r7, #8]
  reg_value  =  (reg_value                                   |
                ((uint32_t)0x5FAUL << SCB_AIRCR_VECTKEY_Pos) |
                (PriorityGroupTmp << SCB_AIRCR_PRIGROUP_Pos) );               /* Insert write key and priority group */
 8000480:	68fb      	ldr	r3, [r7, #12]
 8000482:	021a      	lsls	r2, r3, #8
                ((uint32_t)0x5FAUL << SCB_AIRCR_VECTKEY_Pos) |
 8000484:	68bb      	ldr	r3, [r7, #8]
 8000486:	4313      	orrs	r3, r2
  reg_value  =  (reg_value                                   |
 8000488:	f043 63bf 	orr.w	r3, r3, #100139008	; 0x5f80000
 800048c:	f443 3300 	orr.w	r3, r3, #131072	; 0x20000
 8000490:	60bb      	str	r3, [r7, #8]
  SCB->AIRCR =  reg_value;
 8000492:	4a04      	ldr	r2, [pc, #16]	; (80004a4 <__NVIC_SetPriorityGrouping+0x44>)
 8000494:	68bb      	ldr	r3, [r7, #8]
 8000496:	60d3      	str	r3, [r2, #12]
}
 8000498:	bf00      	nop
 800049a:	3714      	adds	r7, #20
 800049c:	46bd      	mov	sp, r7
 800049e:	bc80      	pop	{r7}
 80004a0:	4770      	bx	lr
 80004a2:	bf00      	nop
 80004a4:	e000ed00 	.word	0xe000ed00

080004a8 <__NVIC_GetPriorityGrouping>:
  \brief   Get Priority Grouping
  \details Reads the priority grouping field from the NVIC Interrupt Controller.
  \return                Priority grouping field (SCB->AIRCR [10:8] PRIGROUP field).
 */
__STATIC_INLINE uint32_t __NVIC_GetPriorityGrouping(void)
{
 80004a8:	b480      	push	{r7}
 80004aa:	af00      	add	r7, sp, #0
  return ((uint32_t)((SCB->AIRCR & SCB_AIRCR_PRIGROUP_Msk) >> SCB_AIRCR_PRIGROUP_Pos));
 80004ac:	4b04      	ldr	r3, [pc, #16]	; (80004c0 <__NVIC_GetPriorityGrouping+0x18>)
 80004ae:	68db      	ldr	r3, [r3, #12]
 80004b0:	0a1b      	lsrs	r3, r3, #8
 80004b2:	f003 0307 	and.w	r3, r3, #7
}
 80004b6:	4618      	mov	r0, r3
 80004b8:	46bd      	mov	sp, r7
 80004ba:	bc80      	pop	{r7}
 80004bc:	4770      	bx	lr
 80004be:	bf00      	nop
 80004c0:	e000ed00 	.word	0xe000ed00

080004c4 <__NVIC_SetPriority>:
  \param [in]      IRQn  Interrupt number.
  \param [in]  priority  Priority to set.
  \note    The priority cannot be set for every processor exception.
 */
__STATIC_INLINE void __NVIC_SetPriority(IRQn_Type IRQn, uint32_t priority)
{
 80004c4:	b480      	push	{r7}
 80004c6:	b083      	sub	sp, #12
 80004c8:	af00      	add	r7, sp, #0
 80004ca:	4603      	mov	r3, r0
 80004cc:	6039      	str	r1, [r7, #0]
 80004ce:	71fb      	strb	r3, [r7, #7]
  if ((int32_t)(IRQn) >= 0)
 80004d0:	f997 3007 	ldrsb.w	r3, [r7, #7]
 80004d4:	2b00      	cmp	r3, #0
 80004d6:	db0a      	blt.n	80004ee <__NVIC_SetPriority+0x2a>
  {
    NVIC->IP[((uint32_t)IRQn)]               = (uint8_t)((priority << (8U - __NVIC_PRIO_BITS)) & (uint32_t)0xFFUL);
 80004d8:	683b      	ldr	r3, [r7, #0]
 80004da:	b2da      	uxtb	r2, r3
 80004dc:	490c      	ldr	r1, [pc, #48]	; (8000510 <__NVIC_SetPriority+0x4c>)
 80004de:	f997 3007 	ldrsb.w	r3, [r7, #7]
 80004e2:	0112      	lsls	r2, r2, #4
 80004e4:	b2d2      	uxtb	r2, r2
 80004e6:	440b      	add	r3, r1
 80004e8:	f883 2300 	strb.w	r2, [r3, #768]	; 0x300
  }
  else
  {
    SCB->SHP[(((uint32_t)IRQn) & 0xFUL)-4UL] = (uint8_t)((priority << (8U - __NVIC_PRIO_BITS)) & (uint32_t)0xFFUL);
  }
}
 80004ec:	e00a      	b.n	8000504 <__NVIC_SetPriority+0x40>
    SCB->SHP[(((uint32_t)IRQn) & 0xFUL)-4UL] = (uint8_t)((priority << (8U - __NVIC_PRIO_BITS)) & (uint32_t)0xFFUL);
 80004ee:	683b      	ldr	r3, [r7, #0]
 80004f0:	b2da      	uxtb	r2, r3
 80004f2:	4908      	ldr	r1, [pc, #32]	; (8000514 <__NVIC_SetPriority+0x50>)
 80004f4:	79fb      	ldrb	r3, [r7, #7]
 80004f6:	f003 030f 	and.w	r3, r3, #15
 80004fa:	3b04      	subs	r3, #4
 80004fc:	0112      	lsls	r2, r2, #4
 80004fe:	b2d2      	uxtb	r2, r2
 8000500:	440b      	add	r3, r1
 8000502:	761a      	strb	r2, [r3, #24]
}
 8000504:	bf00      	nop
 8000506:	370c      	adds	r7, #12
 8000508:	46bd      	mov	sp, r7
 800050a:	bc80      	pop	{r7}
 800050c:	4770      	bx	lr
 800050e:	bf00      	nop
 8000510:	e000e100 	.word	0xe000e100
 8000514:	e000ed00 	.word	0xe000ed00

08000518 <NVIC_EncodePriority>:
  \param [in]   PreemptPriority  Preemptive priority value (starting from 0).
  \param [in]       SubPriority  Subpriority value (starting from 0).
  \return                        Encoded priority. Value can be used in the function \ref NVIC_SetPriority().
 */
__STATIC_INLINE uint32_t NVIC_EncodePriority (uint32_t PriorityGroup, uint32_t PreemptPriority, uint32_t SubPriority)
{
 8000518:	b480      	push	{r7}
 800051a:	b089      	sub	sp, #36	; 0x24
 800051c:	af00      	add	r7, sp, #0
 800051e:	60f8      	str	r0, [r7, #12]
 8000520:	60b9      	str	r1, [r7, #8]
 8000522:	607a      	str	r2, [r7, #4]
  uint32_t PriorityGroupTmp = (PriorityGroup & (uint32_t)0x07UL);   /* only values 0..7 are used          */
 8000524:	68fb      	ldr	r3, [r7, #12]
 8000526:	f003 0307 	and.w	r3, r3, #7
 800052a:	61fb      	str	r3, [r7, #28]
  uint32_t PreemptPriorityBits;
  uint32_t SubPriorityBits;

  PreemptPriorityBits = ((7UL - PriorityGroupTmp) > (uint32_t)(__NVIC_PRIO_BITS)) ? (uint32_t)(__NVIC_PRIO_BITS) : (uint32_t)(7UL - PriorityGroupTmp);
 800052c:	69fb      	ldr	r3, [r7, #28]
 800052e:	f1c3 0307 	rsb	r3, r3, #7
 8000532:	2b04      	cmp	r3, #4
 8000534:	bf28      	it	cs
 8000536:	2304      	movcs	r3, #4
 8000538:	61bb      	str	r3, [r7, #24]
  SubPriorityBits     = ((PriorityGroupTmp + (uint32_t)(__NVIC_PRIO_BITS)) < (uint32_t)7UL) ? (uint32_t)0UL : (uint32_t)((PriorityGroupTmp - 7UL) + (uint32_t)(__NVIC_PRIO_BITS));
 800053a:	69fb      	ldr	r3, [r7, #28]
 800053c:	3304      	adds	r3, #4
 800053e:	2b06      	cmp	r3, #6
 8000540:	d902      	bls.n	8000548 <NVIC_EncodePriority+0x30>
 8000542:	69fb      	ldr	r3, [r7, #28]
 8000544:	3b03      	subs	r3, #3
 8000546:	e000      	b.n	800054a <NVIC_EncodePriority+0x32>
 8000548:	2300      	movs	r3, #0
 800054a:	617b      	str	r3, [r7, #20]

  return (
           ((PreemptPriority & (uint32_t)((1UL << (PreemptPriorityBits)) - 1UL)) << SubPriorityBits) |
 800054c:	f04f 32ff 	mov.w	r2, #4294967295	; 0xffffffff
 8000550:	69bb      	ldr	r3, [r7, #24]
 8000552:	fa02 f303 	lsl.w	r3, r2, r3
 8000556:	43da      	mvns	r2, r3
 8000558:	68bb      	ldr	r3, [r7, #8]
 800055a:	401a      	ands	r2, r3
 800055c:	697b      	ldr	r3, [r7, #20]
 800055e:	409a      	lsls	r2, r3
           ((SubPriority     & (uint32_t)((1UL << (SubPriorityBits    )) - 1UL)))
 8000560:	f04f 31ff 	mov.w	r1, #4294967295	; 0xffffffff
 8000564:	697b      	ldr	r3, [r7, #20]
 8000566:	fa01 f303 	lsl.w	r3, r1, r3
 800056a:	43d9      	mvns	r1, r3
 800056c:	687b      	ldr	r3, [r7, #4]
 800056e:	400b      	ands	r3, r1
           ((PreemptPriority & (uint32_t)((1UL << (PreemptPriorityBits)) - 1UL)) << SubPriorityBits) |
 8000570:	4313      	orrs	r3, r2
         );
}
 8000572:	4618      	mov	r0, r3
 8000574:	3724      	adds	r7, #36	; 0x24
 8000576:	46bd      	mov	sp, r7
 8000578:	bc80      	pop	{r7}
 800057a:	4770      	bx	lr

0800057c <SysTick_Config>:
  \note    When the variable <b>__Vendor_SysTickConfig</b> is set to 1, then the
           function <b>SysTick_Config</b> is not included. In this case, the file <b><i>device</i>.h</b>
           must contain a vendor-specific implementation of this function.
 */
__STATIC_INLINE uint32_t SysTick_Config(uint32_t ticks)
{
 800057c:	b580      	push	{r7, lr}
 800057e:	b082      	sub	sp, #8
 8000580:	af00      	add	r7, sp, #0
 8000582:	6078      	str	r0, [r7, #4]
  if ((ticks - 1UL) > SysTick_LOAD_RELOAD_Msk)
 8000584:	687b      	ldr	r3, [r7, #4]
 8000586:	3b01      	subs	r3, #1
 8000588:	f1b3 7f80 	cmp.w	r3, #16777216	; 0x1000000
 800058c:	d301      	bcc.n	8000592 <SysTick_Config+0x16>
  {
    return (1UL);                                                   /* Reload value impossible */
 800058e:	2301      	movs	r3, #1
 8000590:	e00f      	b.n	80005b2 <SysTick_Config+0x36>
  }

  SysTick->LOAD  = (uint32_t)(ticks - 1UL);                         /* set reload register */
 8000592:	4a0a      	ldr	r2, [pc, #40]	; (80005bc <SysTick_Config+0x40>)
 8000594:	687b      	ldr	r3, [r7, #4]
 8000596:	3b01      	subs	r3, #1
 8000598:	6053      	str	r3, [r2, #4]
  NVIC_SetPriority (SysTick_IRQn, (1UL << __NVIC_PRIO_BITS) - 1UL); /* set Priority for Systick Interrupt */
 800059a:	210f      	movs	r1, #15
 800059c:	f04f 30ff 	mov.w	r0, #4294967295	; 0xffffffff
 80005a0:	f7ff ff90 	bl	80004c4 <__NVIC_SetPriority>
  SysTick->VAL   = 0UL;                                             /* Load the SysTick Counter Value */
 80005a4:	4b05      	ldr	r3, [pc, #20]	; (80005bc <SysTick_Config+0x40>)
 80005a6:	2200      	movs	r2, #0
 80005a8:	609a      	str	r2, [r3, #8]
  SysTick->CTRL  = SysTick_CTRL_CLKSOURCE_Msk |
 80005aa:	4b04      	ldr	r3, [pc, #16]	; (80005bc <SysTick_Config+0x40>)
 80005ac:	2207      	movs	r2, #7
 80005ae:	601a      	str	r2, [r3, #0]
                   SysTick_CTRL_TICKINT_Msk   |
                   SysTick_CTRL_ENABLE_Msk;                         /* Enable SysTick IRQ and SysTick Timer */
  return (0UL);                                                     /* Function successful */
 80005b0:	2300      	movs	r3, #0
}
 80005b2:	4618      	mov	r0, r3
 80005b4:	3708      	adds	r7, #8
 80005b6:	46bd      	mov	sp, r7
 80005b8:	bd80      	pop	{r7, pc}
 80005ba:	bf00      	nop
 80005bc:	e000e010 	.word	0xe000e010

080005c0 <HAL_NVIC_SetPriorityGrouping>:
  * @note   When the NVIC_PriorityGroup_0 is selected, IRQ preemption is no more possible. 
  *         The pending IRQ priority will be managed only by the subpriority. 
  * @retval None
  */
void HAL_NVIC_SetPriorityGrouping(uint32_t PriorityGroup)
{
 80005c0:	b580      	push	{r7, lr}
 80005c2:	b082      	sub	sp, #8
 80005c4:	af00      	add	r7, sp, #0
 80005c6:	6078      	str	r0, [r7, #4]
  /* Check the parameters */
  assert_param(IS_NVIC_PRIORITY_GROUP(PriorityGroup));
  
  /* Set the PRIGROUP[10:8] bits according to the PriorityGroup parameter value */
  NVIC_SetPriorityGrouping(PriorityGroup);
 80005c8:	6878      	ldr	r0, [r7, #4]
 80005ca:	f7ff ff49 	bl	8000460 <__NVIC_SetPriorityGrouping>
}
 80005ce:	bf00      	nop
 80005d0:	3708      	adds	r7, #8
 80005d2:	46bd      	mov	sp, r7
 80005d4:	bd80      	pop	{r7, pc}

080005d6 <HAL_NVIC_SetPriority>:
  *         This parameter can be a value between 0 and 15
  *         A lower priority value indicates a higher priority.          
  * @retval None
  */
void HAL_NVIC_SetPriority(IRQn_Type IRQn, uint32_t PreemptPriority, uint32_t SubPriority)
{ 
 80005d6:	b580      	push	{r7, lr}
 80005d8:	b086      	sub	sp, #24
 80005da:	af00      	add	r7, sp, #0
 80005dc:	4603      	mov	r3, r0
 80005de:	60b9      	str	r1, [r7, #8]
 80005e0:	607a      	str	r2, [r7, #4]
 80005e2:	73fb      	strb	r3, [r7, #15]
  uint32_t prioritygroup = 0x00U;
 80005e4:	2300      	movs	r3, #0
 80005e6:	617b      	str	r3, [r7, #20]
  
  /* Check the parameters */
  assert_param(IS_NVIC_SUB_PRIORITY(SubPriority));
  assert_param(IS_NVIC_PREEMPTION_PRIORITY(PreemptPriority));
  
  prioritygroup = NVIC_GetPriorityGrouping();
 80005e8:	f7ff ff5e 	bl	80004a8 <__NVIC_GetPriorityGrouping>
 80005ec:	6178      	str	r0, [r7, #20]
  
  NVIC_SetPriority(IRQn, NVIC_EncodePriority(prioritygroup, PreemptPriority, SubPriority));
 80005ee:	687a      	ldr	r2, [r7, #4]
 80005f0:	68b9      	ldr	r1, [r7, #8]
 80005f2:	6978      	ldr	r0, [r7, #20]
 80005f4:	f7ff ff90 	bl	8000518 <NVIC_EncodePriority>
 80005f8:	4602      	mov	r2, r0
 80005fa:	f997 300f 	ldrsb.w	r3, [r7, #15]
 80005fe:	4611      	mov	r1, r2
 8000600:	4618      	mov	r0, r3
 8000602:	f7ff ff5f 	bl	80004c4 <__NVIC_SetPriority>
}
 8000606:	bf00      	nop
 8000608:	3718      	adds	r7, #24
 800060a:	46bd      	mov	sp, r7
 800060c:	bd80      	pop	{r7, pc}

0800060e <HAL_SYSTICK_Config>:
  * @param  TicksNumb: Specifies the ticks Number of ticks between two interrupts.
  * @retval status:  - 0  Function succeeded.
  *                  - 1  Function failed.
  */
uint32_t HAL_SYSTICK_Config(uint32_t TicksNumb)
{
 800060e:	b580      	push	{r7, lr}
 8000610:	b082      	sub	sp, #8
 8000612:	af00      	add	r7, sp, #0
 8000614:	6078      	str	r0, [r7, #4]
   return SysTick_Config(TicksNumb);
 8000616:	6878      	ldr	r0, [r7, #4]
 8000618:	f7ff ffb0 	bl	800057c <SysTick_Config>
 800061c:	4603      	mov	r3, r0
}
 800061e:	4618      	mov	r0, r3
 8000620:	3708      	adds	r7, #8
 8000622:	46bd      	mov	sp, r7
 8000624:	bd80      	pop	{r7, pc}
	...

08000628 <HAL_RCC_OscConfig>:
  *         supported by this macro. User should request a transition to HSE Off
  *         first and then HSE On or HSE Bypass.
  * @retval HAL status
  */
HAL_StatusTypeDef HAL_RCC_OscConfig(RCC_OscInitTypeDef  *RCC_OscInitStruct)
{
 8000628:	b580      	push	{r7, lr}
 800062a:	b086      	sub	sp, #24
 800062c:	af00      	add	r7, sp, #0
 800062e:	6078      	str	r0, [r7, #4]
  uint32_t tickstart;
  uint32_t pll_config;

  /* Check Null pointer */
  if (RCC_OscInitStruct == NULL)
 8000630:	687b      	ldr	r3, [r7, #4]
 8000632:	2b00      	cmp	r3, #0
 8000634:	d101      	bne.n	800063a <HAL_RCC_OscConfig+0x12>
  {
    return HAL_ERROR;
 8000636:	2301      	movs	r3, #1
 8000638:	e26c      	b.n	8000b14 <HAL_RCC_OscConfig+0x4ec>

  /* Check the parameters */
  assert_param(IS_RCC_OSCILLATORTYPE(RCC_OscInitStruct->OscillatorType));

  /*------------------------------- HSE Configuration ------------------------*/
  if (((RCC_OscInitStruct->OscillatorType) & RCC_OSCILLATORTYPE_HSE) == RCC_OSCILLATORTYPE_HSE)
 800063a:	687b      	ldr	r3, [r7, #4]
 800063c:	681b      	ldr	r3, [r3, #0]
 800063e:	f003 0301 	and.w	r3, r3, #1
 8000642:	2b00      	cmp	r3, #0
 8000644:	f000 8087 	beq.w	8000756 <HAL_RCC_OscConfig+0x12e>
  {
    /* Check the parameters */
    assert_param(IS_RCC_HSE(RCC_OscInitStruct->HSEState));

    /* When the HSE is used as system clock or clock source for PLL in these cases it is not allowed to be disabled */
    if ((__HAL_RCC_GET_SYSCLK_SOURCE() == RCC_SYSCLKSOURCE_STATUS_HSE)
 8000648:	4b92      	ldr	r3, [pc, #584]	; (8000894 <HAL_RCC_OscConfig+0x26c>)
 800064a:	685b      	ldr	r3, [r3, #4]
 800064c:	f003 030c 	and.w	r3, r3, #12
 8000650:	2b04      	cmp	r3, #4
 8000652:	d00c      	beq.n	800066e <HAL_RCC_OscConfig+0x46>
        || ((__HAL_RCC_GET_SYSCLK_SOURCE() == RCC_SYSCLKSOURCE_STATUS_PLLCLK) && (__HAL_RCC_GET_PLL_OSCSOURCE() == RCC_PLLSOURCE_HSE)))
 8000654:	4b8f      	ldr	r3, [pc, #572]	; (8000894 <HAL_RCC_OscConfig+0x26c>)
 8000656:	685b      	ldr	r3, [r3, #4]
 8000658:	f003 030c 	and.w	r3, r3, #12
 800065c:	2b08      	cmp	r3, #8
 800065e:	d112      	bne.n	8000686 <HAL_RCC_OscConfig+0x5e>
 8000660:	4b8c      	ldr	r3, [pc, #560]	; (8000894 <HAL_RCC_OscConfig+0x26c>)
 8000662:	685b      	ldr	r3, [r3, #4]
 8000664:	f403 3380 	and.w	r3, r3, #65536	; 0x10000
 8000668:	f5b3 3f80 	cmp.w	r3, #65536	; 0x10000
 800066c:	d10b      	bne.n	8000686 <HAL_RCC_OscConfig+0x5e>
    {
      if ((__HAL_RCC_GET_FLAG(RCC_FLAG_HSERDY) != RESET) && (RCC_OscInitStruct->HSEState == RCC_HSE_OFF))
 800066e:	4b89      	ldr	r3, [pc, #548]	; (8000894 <HAL_RCC_OscConfig+0x26c>)
 8000670:	681b      	ldr	r3, [r3, #0]
 8000672:	f403 3300 	and.w	r3, r3, #131072	; 0x20000
 8000676:	2b00      	cmp	r3, #0
 8000678:	d06c      	beq.n	8000754 <HAL_RCC_OscConfig+0x12c>
 800067a:	687b      	ldr	r3, [r7, #4]
 800067c:	685b      	ldr	r3, [r3, #4]
 800067e:	2b00      	cmp	r3, #0
 8000680:	d168      	bne.n	8000754 <HAL_RCC_OscConfig+0x12c>
      {
        return HAL_ERROR;
 8000682:	2301      	movs	r3, #1
 8000684:	e246      	b.n	8000b14 <HAL_RCC_OscConfig+0x4ec>
      }
    }
    else
    {
      /* Set the new HSE configuration ---------------------------------------*/
      __HAL_RCC_HSE_CONFIG(RCC_OscInitStruct->HSEState);
 8000686:	687b      	ldr	r3, [r7, #4]
 8000688:	685b      	ldr	r3, [r3, #4]
 800068a:	f5b3 3f80 	cmp.w	r3, #65536	; 0x10000
 800068e:	d106      	bne.n	800069e <HAL_RCC_OscConfig+0x76>
 8000690:	4b80      	ldr	r3, [pc, #512]	; (8000894 <HAL_RCC_OscConfig+0x26c>)
 8000692:	681b      	ldr	r3, [r3, #0]
 8000694:	4a7f      	ldr	r2, [pc, #508]	; (8000894 <HAL_RCC_OscConfig+0x26c>)
 8000696:	f443 3380 	orr.w	r3, r3, #65536	; 0x10000
 800069a:	6013      	str	r3, [r2, #0]
 800069c:	e02e      	b.n	80006fc <HAL_RCC_OscConfig+0xd4>
 800069e:	687b      	ldr	r3, [r7, #4]
 80006a0:	685b      	ldr	r3, [r3, #4]
 80006a2:	2b00      	cmp	r3, #0
 80006a4:	d10c      	bne.n	80006c0 <HAL_RCC_OscConfig+0x98>
 80006a6:	4b7b      	ldr	r3, [pc, #492]	; (8000894 <HAL_RCC_OscConfig+0x26c>)
 80006a8:	681b      	ldr	r3, [r3, #0]
 80006aa:	4a7a      	ldr	r2, [pc, #488]	; (8000894 <HAL_RCC_OscConfig+0x26c>)
 80006ac:	f423 3380 	bic.w	r3, r3, #65536	; 0x10000
 80006b0:	6013      	str	r3, [r2, #0]
 80006b2:	4b78      	ldr	r3, [pc, #480]	; (8000894 <HAL_RCC_OscConfig+0x26c>)
 80006b4:	681b      	ldr	r3, [r3, #0]
 80006b6:	4a77      	ldr	r2, [pc, #476]	; (8000894 <HAL_RCC_OscConfig+0x26c>)
 80006b8:	f423 2380 	bic.w	r3, r3, #262144	; 0x40000
 80006bc:	6013      	str	r3, [r2, #0]
 80006be:	e01d      	b.n	80006fc <HAL_RCC_OscConfig+0xd4>
 80006c0:	687b      	ldr	r3, [r7, #4]
 80006c2:	685b      	ldr	r3, [r3, #4]
 80006c4:	f5b3 2fa0 	cmp.w	r3, #327680	; 0x50000
 80006c8:	d10c      	bne.n	80006e4 <HAL_RCC_OscConfig+0xbc>
 80006ca:	4b72      	ldr	r3, [pc, #456]	; (8000894 <HAL_RCC_OscConfig+0x26c>)
 80006cc:	681b      	ldr	r3, [r3, #0]
 80006ce:	4a71      	ldr	r2, [pc, #452]	; (8000894 <HAL_RCC_OscConfig+0x26c>)
 80006d0:	f443 2380 	orr.w	r3, r3, #262144	; 0x40000
 80006d4:	6013      	str	r3, [r2, #0]
 80006d6:	4b6f      	ldr	r3, [pc, #444]	; (8000894 <HAL_RCC_OscConfig+0x26c>)
 80006d8:	681b      	ldr	r3, [r3, #0]
 80006da:	4a6e      	ldr	r2, [pc, #440]	; (8000894 <HAL_RCC_OscConfig+0x26c>)
 80006dc:	f443 3380 	orr.w	r3, r3, #65536	; 0x10000
 80006e0:	6013      	str	r3, [r2, #0]
 80006e2:	e00b      	b.n	80006fc <HAL_RCC_OscConfig+0xd4>
 80006e4:	4b6b      	ldr	r3, [pc, #428]	; (8000894 <HAL_RCC_OscConfig+0x26c>)
 80006e6:	681b      	ldr	r3, [r3, #0]
 80006e8:	4a6a      	ldr	r2, [pc, #424]	; (8000894 <HAL_RCC_OscConfig+0x26c>)
 80006ea:	f423 3380 	bic.w	r3, r3, #65536	; 0x10000
 80006ee:	6013      	str	r3, [r2, #0]
 80006f0:	4b68      	ldr	r3, [pc, #416]	; (8000894 <HAL_RCC_OscConfig+0x26c>)
 80006f2:	681b      	ldr	r3, [r3, #0]
 80006f4:	4a67      	ldr	r2, [pc, #412]	; (8000894 <HAL_RCC_OscConfig+0x26c>)
 80006f6:	f423 2380 	bic.w	r3, r3, #262144	; 0x40000
 80006fa:	6013      	str	r3, [r2, #0]


      /* Check the HSE State */
      if (RCC_OscInitStruct->HSEState != RCC_HSE_OFF)
 80006fc:	687b      	ldr	r3, [r7, #4]
 80006fe:	685b      	ldr	r3, [r3, #4]
 8000700:	2b00      	cmp	r3, #0
 8000702:	d013      	beq.n	800072c <HAL_RCC_OscConfig+0x104>
      {
        /* Get Start Tick */
        tickstart = HAL_GetTick();
 8000704:	f7ff fea2 	bl	800044c <HAL_GetTick>
 8000708:	6138      	str	r0, [r7, #16]

        /* Wait till HSE is ready */
        while (__HAL_RCC_GET_FLAG(RCC_FLAG_HSERDY) == RESET)
 800070a:	e008      	b.n	800071e <HAL_RCC_OscConfig+0xf6>
        {
          if ((HAL_GetTick() - tickstart) > HSE_TIMEOUT_VALUE)
 800070c:	f7ff fe9e 	bl	800044c <HAL_GetTick>
 8000710:	4602      	mov	r2, r0
 8000712:	693b      	ldr	r3, [r7, #16]
 8000714:	1ad3      	subs	r3, r2, r3
 8000716:	2b64      	cmp	r3, #100	; 0x64
 8000718:	d901      	bls.n	800071e <HAL_RCC_OscConfig+0xf6>
          {
            return HAL_TIMEOUT;
 800071a:	2303      	movs	r3, #3
 800071c:	e1fa      	b.n	8000b14 <HAL_RCC_OscConfig+0x4ec>
        while (__HAL_RCC_GET_FLAG(RCC_FLAG_HSERDY) == RESET)
 800071e:	4b5d      	ldr	r3, [pc, #372]	; (8000894 <HAL_RCC_OscConfig+0x26c>)
 8000720:	681b      	ldr	r3, [r3, #0]
 8000722:	f403 3300 	and.w	r3, r3, #131072	; 0x20000
 8000726:	2b00      	cmp	r3, #0
 8000728:	d0f0      	beq.n	800070c <HAL_RCC_OscConfig+0xe4>
 800072a:	e014      	b.n	8000756 <HAL_RCC_OscConfig+0x12e>
        }
      }
      else
      {
        /* Get Start Tick */
        tickstart = HAL_GetTick();
 800072c:	f7ff fe8e 	bl	800044c <HAL_GetTick>
 8000730:	6138      	str	r0, [r7, #16]

        /* Wait till HSE is disabled */
        while (__HAL_RCC_GET_FLAG(RCC_FLAG_HSERDY) != RESET)
 8000732:	e008      	b.n	8000746 <HAL_RCC_OscConfig+0x11e>
        {
          if ((HAL_GetTick() - tickstart) > HSE_TIMEOUT_VALUE)
 8000734:	f7ff fe8a 	bl	800044c <HAL_GetTick>
 8000738:	4602      	mov	r2, r0
 800073a:	693b      	ldr	r3, [r7, #16]
 800073c:	1ad3      	subs	r3, r2, r3
 800073e:	2b64      	cmp	r3, #100	; 0x64
 8000740:	d901      	bls.n	8000746 <HAL_RCC_OscConfig+0x11e>
          {
            return HAL_TIMEOUT;
 8000742:	2303      	movs	r3, #3
 8000744:	e1e6      	b.n	8000b14 <HAL_RCC_OscConfig+0x4ec>
        while (__HAL_RCC_GET_FLAG(RCC_FLAG_HSERDY) != RESET)
 8000746:	4b53      	ldr	r3, [pc, #332]	; (8000894 <HAL_RCC_OscConfig+0x26c>)
 8000748:	681b      	ldr	r3, [r3, #0]
 800074a:	f403 3300 	and.w	r3, r3, #131072	; 0x20000
 800074e:	2b00      	cmp	r3, #0
 8000750:	d1f0      	bne.n	8000734 <HAL_RCC_OscConfig+0x10c>
 8000752:	e000      	b.n	8000756 <HAL_RCC_OscConfig+0x12e>
      if ((__HAL_RCC_GET_FLAG(RCC_FLAG_HSERDY) != RESET) && (RCC_OscInitStruct->HSEState == RCC_HSE_OFF))
 8000754:	bf00      	nop
        }
      }
    }
  }
  /*----------------------------- HSI Configuration --------------------------*/
  if (((RCC_OscInitStruct->OscillatorType) & RCC_OSCILLATORTYPE_HSI) == RCC_OSCILLATORTYPE_HSI)
 8000756:	687b      	ldr	r3, [r7, #4]
 8000758:	681b      	ldr	r3, [r3, #0]
 800075a:	f003 0302 	and.w	r3, r3, #2
 800075e:	2b00      	cmp	r3, #0
 8000760:	d063      	beq.n	800082a <HAL_RCC_OscConfig+0x202>
    /* Check the parameters */
    assert_param(IS_RCC_HSI(RCC_OscInitStruct->HSIState));
    assert_param(IS_RCC_CALIBRATION_VALUE(RCC_OscInitStruct->HSICalibrationValue));

    /* Check if HSI is used as system clock or as PLL source when PLL is selected as system clock */
    if ((__HAL_RCC_GET_SYSCLK_SOURCE() == RCC_SYSCLKSOURCE_STATUS_HSI)
 8000762:	4b4c      	ldr	r3, [pc, #304]	; (8000894 <HAL_RCC_OscConfig+0x26c>)
 8000764:	685b      	ldr	r3, [r3, #4]
 8000766:	f003 030c 	and.w	r3, r3, #12
 800076a:	2b00      	cmp	r3, #0
 800076c:	d00b      	beq.n	8000786 <HAL_RCC_OscConfig+0x15e>
        || ((__HAL_RCC_GET_SYSCLK_SOURCE() == RCC_SYSCLKSOURCE_STATUS_PLLCLK) && (__HAL_RCC_GET_PLL_OSCSOURCE() == RCC_PLLSOURCE_HSI_DIV2)))
 800076e:	4b49      	ldr	r3, [pc, #292]	; (8000894 <HAL_RCC_OscConfig+0x26c>)
 8000770:	685b      	ldr	r3, [r3, #4]
 8000772:	f003 030c 	and.w	r3, r3, #12
 8000776:	2b08      	cmp	r3, #8
 8000778:	d11c      	bne.n	80007b4 <HAL_RCC_OscConfig+0x18c>
 800077a:	4b46      	ldr	r3, [pc, #280]	; (8000894 <HAL_RCC_OscConfig+0x26c>)
 800077c:	685b      	ldr	r3, [r3, #4]
 800077e:	f403 3380 	and.w	r3, r3, #65536	; 0x10000
 8000782:	2b00      	cmp	r3, #0
 8000784:	d116      	bne.n	80007b4 <HAL_RCC_OscConfig+0x18c>
    {
      /* When HSI is used as system clock it will not disabled */
      if ((__HAL_RCC_GET_FLAG(RCC_FLAG_HSIRDY) != RESET) && (RCC_OscInitStruct->HSIState != RCC_HSI_ON))
 8000786:	4b43      	ldr	r3, [pc, #268]	; (8000894 <HAL_RCC_OscConfig+0x26c>)
 8000788:	681b      	ldr	r3, [r3, #0]
 800078a:	f003 0302 	and.w	r3, r3, #2
 800078e:	2b00      	cmp	r3, #0
 8000790:	d005      	beq.n	800079e <HAL_RCC_OscConfig+0x176>
 8000792:	687b      	ldr	r3, [r7, #4]
 8000794:	691b      	ldr	r3, [r3, #16]
 8000796:	2b01      	cmp	r3, #1
 8000798:	d001      	beq.n	800079e <HAL_RCC_OscConfig+0x176>
      {
        return HAL_ERROR;
 800079a:	2301      	movs	r3, #1
 800079c:	e1ba      	b.n	8000b14 <HAL_RCC_OscConfig+0x4ec>
      }
      /* Otherwise, just the calibration is allowed */
      else
      {
        /* Adjusts the Internal High Speed oscillator (HSI) calibration value.*/
        __HAL_RCC_HSI_CALIBRATIONVALUE_ADJUST(RCC_OscInitStruct->HSICalibrationValue);
 800079e:	4b3d      	ldr	r3, [pc, #244]	; (8000894 <HAL_RCC_OscConfig+0x26c>)
 80007a0:	681b      	ldr	r3, [r3, #0]
 80007a2:	f023 02f8 	bic.w	r2, r3, #248	; 0xf8
 80007a6:	687b      	ldr	r3, [r7, #4]
 80007a8:	695b      	ldr	r3, [r3, #20]
 80007aa:	00db      	lsls	r3, r3, #3
 80007ac:	4939      	ldr	r1, [pc, #228]	; (8000894 <HAL_RCC_OscConfig+0x26c>)
 80007ae:	4313      	orrs	r3, r2
 80007b0:	600b      	str	r3, [r1, #0]
      if ((__HAL_RCC_GET_FLAG(RCC_FLAG_HSIRDY) != RESET) && (RCC_OscInitStruct->HSIState != RCC_HSI_ON))
 80007b2:	e03a      	b.n	800082a <HAL_RCC_OscConfig+0x202>
      }
    }
    else
    {
      /* Check the HSI State */
      if (RCC_OscInitStruct->HSIState != RCC_HSI_OFF)
 80007b4:	687b      	ldr	r3, [r7, #4]
 80007b6:	691b      	ldr	r3, [r3, #16]
 80007b8:	2b00      	cmp	r3, #0
 80007ba:	d020      	beq.n	80007fe <HAL_RCC_OscConfig+0x1d6>
      {
        /* Enable the Internal High Speed oscillator (HSI). */
        __HAL_RCC_HSI_ENABLE();
 80007bc:	4b36      	ldr	r3, [pc, #216]	; (8000898 <HAL_RCC_OscConfig+0x270>)
 80007be:	2201      	movs	r2, #1
 80007c0:	601a      	str	r2, [r3, #0]

        /* Get Start Tick */
        tickstart = HAL_GetTick();
 80007c2:	f7ff fe43 	bl	800044c <HAL_GetTick>
 80007c6:	6138      	str	r0, [r7, #16]

        /* Wait till HSI is ready */
        while (__HAL_RCC_GET_FLAG(RCC_FLAG_HSIRDY) == RESET)
 80007c8:	e008      	b.n	80007dc <HAL_RCC_OscConfig+0x1b4>
        {
          if ((HAL_GetTick() - tickstart) > HSI_TIMEOUT_VALUE)
 80007ca:	f7ff fe3f 	bl	800044c <HAL_GetTick>
 80007ce:	4602      	mov	r2, r0
 80007d0:	693b      	ldr	r3, [r7, #16]
 80007d2:	1ad3      	subs	r3, r2, r3
 80007d4:	2b02      	cmp	r3, #2
 80007d6:	d901      	bls.n	80007dc <HAL_RCC_OscConfig+0x1b4>
          {
            return HAL_TIMEOUT;
 80007d8:	2303      	movs	r3, #3
 80007da:	e19b      	b.n	8000b14 <HAL_RCC_OscConfig+0x4ec>
        while (__HAL_RCC_GET_FLAG(RCC_FLAG_HSIRDY) == RESET)
 80007dc:	4b2d      	ldr	r3, [pc, #180]	; (8000894 <HAL_RCC_OscConfig+0x26c>)
 80007de:	681b      	ldr	r3, [r3, #0]
 80007e0:	f003 0302 	and.w	r3, r3, #2
 80007e4:	2b00      	cmp	r3, #0
 80007e6:	d0f0      	beq.n	80007ca <HAL_RCC_OscConfig+0x1a2>
          }
        }

        /* Adjusts the Internal High Speed oscillator (HSI) calibration value.*/
        __HAL_RCC_HSI_CALIBRATIONVALUE_ADJUST(RCC_OscInitStruct->HSICalibrationValue);
 80007e8:	4b2a      	ldr	r3, [pc, #168]	; (8000894 <HAL_RCC_OscConfig+0x26c>)
 80007ea:	681b      	ldr	r3, [r3, #0]
 80007ec:	f023 02f8 	bic.w	r2, r3, #248	; 0xf8
 80007f0:	687b      	ldr	r3, [r7, #4]
 80007f2:	695b      	ldr	r3, [r3, #20]
 80007f4:	00db      	lsls	r3, r3, #3
 80007f6:	4927      	ldr	r1, [pc, #156]	; (8000894 <HAL_RCC_OscConfig+0x26c>)
 80007f8:	4313      	orrs	r3, r2
 80007fa:	600b      	str	r3, [r1, #0]
 80007fc:	e015      	b.n	800082a <HAL_RCC_OscConfig+0x202>
      }
      else
      {
        /* Disable the Internal High Speed oscillator (HSI). */
        __HAL_RCC_HSI_DISABLE();
 80007fe:	4b26      	ldr	r3, [pc, #152]	; (8000898 <HAL_RCC_OscConfig+0x270>)
 8000800:	2200      	movs	r2, #0
 8000802:	601a      	str	r2, [r3, #0]

        /* Get Start Tick */
        tickstart = HAL_GetTick();
 8000804:	f7ff fe22 	bl	800044c <HAL_GetTick>
 8000808:	6138      	str	r0, [r7, #16]

        /* Wait till HSI is disabled */
        while (__HAL_RCC_GET_FLAG(RCC_FLAG_HSIRDY) != RESET)
 800080a:	e008      	b.n	800081e <HAL_RCC_OscConfig+0x1f6>
        {
          if ((HAL_GetTick() - tickstart) > HSI_TIMEOUT_VALUE)
 800080c:	f7ff fe1e 	bl	800044c <HAL_GetTick>
 8000810:	4602      	mov	r2, r0
 8000812:	693b      	ldr	r3, [r7, #16]
 8000814:	1ad3      	subs	r3, r2, r3
 8000816:	2b02      	cmp	r3, #2
 8000818:	d901      	bls.n	800081e <HAL_RCC_OscConfig+0x1f6>
          {
            return HAL_TIMEOUT;
 800081a:	2303      	movs	r3, #3
 800081c:	e17a      	b.n	8000b14 <HAL_RCC_OscConfig+0x4ec>
        while (__HAL_RCC_GET_FLAG(RCC_FLAG_HSIRDY) != RESET)
 800081e:	4b1d      	ldr	r3, [pc, #116]	; (8000894 <HAL_RCC_OscConfig+0x26c>)
 8000820:	681b      	ldr	r3, [r3, #0]
 8000822:	f003 0302 	and.w	r3, r3, #2
 8000826:	2b00      	cmp	r3, #0
 8000828:	d1f0      	bne.n	800080c <HAL_RCC_OscConfig+0x1e4>
        }
      }
    }
  }
  /*------------------------------ LSI Configuration -------------------------*/
  if (((RCC_OscInitStruct->OscillatorType) & RCC_OSCILLATORTYPE_LSI) == RCC_OSCILLATORTYPE_LSI)
 800082a:	687b      	ldr	r3, [r7, #4]
 800082c:	681b      	ldr	r3, [r3, #0]
 800082e:	f003 0308 	and.w	r3, r3, #8
 8000832:	2b00      	cmp	r3, #0
 8000834:	d03a      	beq.n	80008ac <HAL_RCC_OscConfig+0x284>
  {
    /* Check the parameters */
    assert_param(IS_RCC_LSI(RCC_OscInitStruct->LSIState));

    /* Check the LSI State */
    if (RCC_OscInitStruct->LSIState != RCC_LSI_OFF)
 8000836:	687b      	ldr	r3, [r7, #4]
 8000838:	699b      	ldr	r3, [r3, #24]
 800083a:	2b00      	cmp	r3, #0
 800083c:	d019      	beq.n	8000872 <HAL_RCC_OscConfig+0x24a>
    {
      /* Enable the Internal Low Speed oscillator (LSI). */
      __HAL_RCC_LSI_ENABLE();
 800083e:	4b17      	ldr	r3, [pc, #92]	; (800089c <HAL_RCC_OscConfig+0x274>)
 8000840:	2201      	movs	r2, #1
 8000842:	601a      	str	r2, [r3, #0]

      /* Get Start Tick */
      tickstart = HAL_GetTick();
 8000844:	f7ff fe02 	bl	800044c <HAL_GetTick>
 8000848:	6138      	str	r0, [r7, #16]

      /* Wait till LSI is ready */
      while (__HAL_RCC_GET_FLAG(RCC_FLAG_LSIRDY) == RESET)
 800084a:	e008      	b.n	800085e <HAL_RCC_OscConfig+0x236>
      {
        if ((HAL_GetTick() - tickstart) > LSI_TIMEOUT_VALUE)
 800084c:	f7ff fdfe 	bl	800044c <HAL_GetTick>
 8000850:	4602      	mov	r2, r0
 8000852:	693b      	ldr	r3, [r7, #16]
 8000854:	1ad3      	subs	r3, r2, r3
 8000856:	2b02      	cmp	r3, #2
 8000858:	d901      	bls.n	800085e <HAL_RCC_OscConfig+0x236>
        {
          return HAL_TIMEOUT;
 800085a:	2303      	movs	r3, #3
 800085c:	e15a      	b.n	8000b14 <HAL_RCC_OscConfig+0x4ec>
      while (__HAL_RCC_GET_FLAG(RCC_FLAG_LSIRDY) == RESET)
 800085e:	4b0d      	ldr	r3, [pc, #52]	; (8000894 <HAL_RCC_OscConfig+0x26c>)
 8000860:	6a5b      	ldr	r3, [r3, #36]	; 0x24
 8000862:	f003 0302 	and.w	r3, r3, #2
 8000866:	2b00      	cmp	r3, #0
 8000868:	d0f0      	beq.n	800084c <HAL_RCC_OscConfig+0x224>
        }
      }
      /*  To have a fully stabilized clock in the specified range, a software delay of 1ms
          should be added.*/
      RCC_Delay(1);
 800086a:	2001      	movs	r0, #1
 800086c:	f000 faa6 	bl	8000dbc <RCC_Delay>
 8000870:	e01c      	b.n	80008ac <HAL_RCC_OscConfig+0x284>
    }
    else
    {
      /* Disable the Internal Low Speed oscillator (LSI). */
      __HAL_RCC_LSI_DISABLE();
 8000872:	4b0a      	ldr	r3, [pc, #40]	; (800089c <HAL_RCC_OscConfig+0x274>)
 8000874:	2200      	movs	r2, #0
 8000876:	601a      	str	r2, [r3, #0]

      /* Get Start Tick */
      tickstart = HAL_GetTick();
 8000878:	f7ff fde8 	bl	800044c <HAL_GetTick>
 800087c:	6138      	str	r0, [r7, #16]

      /* Wait till LSI is disabled */
      while (__HAL_RCC_GET_FLAG(RCC_FLAG_LSIRDY) != RESET)
 800087e:	e00f      	b.n	80008a0 <HAL_RCC_OscConfig+0x278>
      {
        if ((HAL_GetTick() - tickstart) > LSI_TIMEOUT_VALUE)
 8000880:	f7ff fde4 	bl	800044c <HAL_GetTick>
 8000884:	4602      	mov	r2, r0
 8000886:	693b      	ldr	r3, [r7, #16]
 8000888:	1ad3      	subs	r3, r2, r3
 800088a:	2b02      	cmp	r3, #2
 800088c:	d908      	bls.n	80008a0 <HAL_RCC_OscConfig+0x278>
        {
          return HAL_TIMEOUT;
 800088e:	2303      	movs	r3, #3
 8000890:	e140      	b.n	8000b14 <HAL_RCC_OscConfig+0x4ec>
 8000892:	bf00      	nop
 8000894:	40021000 	.word	0x40021000
 8000898:	42420000 	.word	0x42420000
 800089c:	42420480 	.word	0x42420480
      while (__HAL_RCC_GET_FLAG(RCC_FLAG_LSIRDY) != RESET)
 80008a0:	4b9e      	ldr	r3, [pc, #632]	; (8000b1c <HAL_RCC_OscConfig+0x4f4>)
 80008a2:	6a5b      	ldr	r3, [r3, #36]	; 0x24
 80008a4:	f003 0302 	and.w	r3, r3, #2
 80008a8:	2b00      	cmp	r3, #0
 80008aa:	d1e9      	bne.n	8000880 <HAL_RCC_OscConfig+0x258>
        }
      }
    }
  }
  /*------------------------------ LSE Configuration -------------------------*/
  if (((RCC_OscInitStruct->OscillatorType) & RCC_OSCILLATORTYPE_LSE) == RCC_OSCILLATORTYPE_LSE)
 80008ac:	687b      	ldr	r3, [r7, #4]
 80008ae:	681b      	ldr	r3, [r3, #0]
 80008b0:	f003 0304 	and.w	r3, r3, #4
 80008b4:	2b00      	cmp	r3, #0
 80008b6:	f000 80a6 	beq.w	8000a06 <HAL_RCC_OscConfig+0x3de>
  {
    FlagStatus       pwrclkchanged = RESET;
 80008ba:	2300      	movs	r3, #0
 80008bc:	75fb      	strb	r3, [r7, #23]
    /* Check the parameters */
    assert_param(IS_RCC_LSE(RCC_OscInitStruct->LSEState));

    /* Update LSE configuration in Backup Domain control register    */
    /* Requires to enable write access to Backup Domain of necessary */
    if (__HAL_RCC_PWR_IS_CLK_DISABLED())
 80008be:	4b97      	ldr	r3, [pc, #604]	; (8000b1c <HAL_RCC_OscConfig+0x4f4>)
 80008c0:	69db      	ldr	r3, [r3, #28]
 80008c2:	f003 5380 	and.w	r3, r3, #268435456	; 0x10000000
 80008c6:	2b00      	cmp	r3, #0
 80008c8:	d10d      	bne.n	80008e6 <HAL_RCC_OscConfig+0x2be>
    {
      __HAL_RCC_PWR_CLK_ENABLE();
 80008ca:	4b94      	ldr	r3, [pc, #592]	; (8000b1c <HAL_RCC_OscConfig+0x4f4>)
 80008cc:	69db      	ldr	r3, [r3, #28]
 80008ce:	4a93      	ldr	r2, [pc, #588]	; (8000b1c <HAL_RCC_OscConfig+0x4f4>)
 80008d0:	f043 5380 	orr.w	r3, r3, #268435456	; 0x10000000
 80008d4:	61d3      	str	r3, [r2, #28]
 80008d6:	4b91      	ldr	r3, [pc, #580]	; (8000b1c <HAL_RCC_OscConfig+0x4f4>)
 80008d8:	69db      	ldr	r3, [r3, #28]
 80008da:	f003 5380 	and.w	r3, r3, #268435456	; 0x10000000
 80008de:	60bb      	str	r3, [r7, #8]
 80008e0:	68bb      	ldr	r3, [r7, #8]
      pwrclkchanged = SET;
 80008e2:	2301      	movs	r3, #1
 80008e4:	75fb      	strb	r3, [r7, #23]
    }

    if (HAL_IS_BIT_CLR(PWR->CR, PWR_CR_DBP))
 80008e6:	4b8e      	ldr	r3, [pc, #568]	; (8000b20 <HAL_RCC_OscConfig+0x4f8>)
 80008e8:	681b      	ldr	r3, [r3, #0]
 80008ea:	f403 7380 	and.w	r3, r3, #256	; 0x100
 80008ee:	2b00      	cmp	r3, #0
 80008f0:	d118      	bne.n	8000924 <HAL_RCC_OscConfig+0x2fc>
    {
      /* Enable write access to Backup domain */
      SET_BIT(PWR->CR, PWR_CR_DBP);
 80008f2:	4b8b      	ldr	r3, [pc, #556]	; (8000b20 <HAL_RCC_OscConfig+0x4f8>)
 80008f4:	681b      	ldr	r3, [r3, #0]
 80008f6:	4a8a      	ldr	r2, [pc, #552]	; (8000b20 <HAL_RCC_OscConfig+0x4f8>)
 80008f8:	f443 7380 	orr.w	r3, r3, #256	; 0x100
 80008fc:	6013      	str	r3, [r2, #0]

      /* Wait for Backup domain Write protection disable */
      tickstart = HAL_GetTick();
 80008fe:	f7ff fda5 	bl	800044c <HAL_GetTick>
 8000902:	6138      	str	r0, [r7, #16]

      while (HAL_IS_BIT_CLR(PWR->CR, PWR_CR_DBP))
 8000904:	e008      	b.n	8000918 <HAL_RCC_OscConfig+0x2f0>
      {
        if ((HAL_GetTick() - tickstart) > RCC_DBP_TIMEOUT_VALUE)
 8000906:	f7ff fda1 	bl	800044c <HAL_GetTick>
 800090a:	4602      	mov	r2, r0
 800090c:	693b      	ldr	r3, [r7, #16]
 800090e:	1ad3      	subs	r3, r2, r3
 8000910:	2b64      	cmp	r3, #100	; 0x64
 8000912:	d901      	bls.n	8000918 <HAL_RCC_OscConfig+0x2f0>
        {
          return HAL_TIMEOUT;
 8000914:	2303      	movs	r3, #3
 8000916:	e0fd      	b.n	8000b14 <HAL_RCC_OscConfig+0x4ec>
      while (HAL_IS_BIT_CLR(PWR->CR, PWR_CR_DBP))
 8000918:	4b81      	ldr	r3, [pc, #516]	; (8000b20 <HAL_RCC_OscConfig+0x4f8>)
 800091a:	681b      	ldr	r3, [r3, #0]
 800091c:	f403 7380 	and.w	r3, r3, #256	; 0x100
 8000920:	2b00      	cmp	r3, #0
 8000922:	d0f0      	beq.n	8000906 <HAL_RCC_OscConfig+0x2de>
        }
      }
    }

    /* Set the new LSE configuration -----------------------------------------*/
    __HAL_RCC_LSE_CONFIG(RCC_OscInitStruct->LSEState);
 8000924:	687b      	ldr	r3, [r7, #4]
 8000926:	68db      	ldr	r3, [r3, #12]
 8000928:	2b01      	cmp	r3, #1
 800092a:	d106      	bne.n	800093a <HAL_RCC_OscConfig+0x312>
 800092c:	4b7b      	ldr	r3, [pc, #492]	; (8000b1c <HAL_RCC_OscConfig+0x4f4>)
 800092e:	6a1b      	ldr	r3, [r3, #32]
 8000930:	4a7a      	ldr	r2, [pc, #488]	; (8000b1c <HAL_RCC_OscConfig+0x4f4>)
 8000932:	f043 0301 	orr.w	r3, r3, #1
 8000936:	6213      	str	r3, [r2, #32]
 8000938:	e02d      	b.n	8000996 <HAL_RCC_OscConfig+0x36e>
 800093a:	687b      	ldr	r3, [r7, #4]
 800093c:	68db      	ldr	r3, [r3, #12]
 800093e:	2b00      	cmp	r3, #0
 8000940:	d10c      	bne.n	800095c <HAL_RCC_OscConfig+0x334>
 8000942:	4b76      	ldr	r3, [pc, #472]	; (8000b1c <HAL_RCC_OscConfig+0x4f4>)
 8000944:	6a1b      	ldr	r3, [r3, #32]
 8000946:	4a75      	ldr	r2, [pc, #468]	; (8000b1c <HAL_RCC_OscConfig+0x4f4>)
 8000948:	f023 0301 	bic.w	r3, r3, #1
 800094c:	6213      	str	r3, [r2, #32]
 800094e:	4b73      	ldr	r3, [pc, #460]	; (8000b1c <HAL_RCC_OscConfig+0x4f4>)
 8000950:	6a1b      	ldr	r3, [r3, #32]
 8000952:	4a72      	ldr	r2, [pc, #456]	; (8000b1c <HAL_RCC_OscConfig+0x4f4>)
 8000954:	f023 0304 	bic.w	r3, r3, #4
 8000958:	6213      	str	r3, [r2, #32]
 800095a:	e01c      	b.n	8000996 <HAL_RCC_OscConfig+0x36e>
 800095c:	687b      	ldr	r3, [r7, #4]
 800095e:	68db      	ldr	r3, [r3, #12]
 8000960:	2b05      	cmp	r3, #5
 8000962:	d10c      	bne.n	800097e <HAL_RCC_OscConfig+0x356>
 8000964:	4b6d      	ldr	r3, [pc, #436]	; (8000b1c <HAL_RCC_OscConfig+0x4f4>)
 8000966:	6a1b      	ldr	r3, [r3, #32]
 8000968:	4a6c      	ldr	r2, [pc, #432]	; (8000b1c <HAL_RCC_OscConfig+0x4f4>)
 800096a:	f043 0304 	orr.w	r3, r3, #4
 800096e:	6213      	str	r3, [r2, #32]
 8000970:	4b6a      	ldr	r3, [pc, #424]	; (8000b1c <HAL_RCC_OscConfig+0x4f4>)
 8000972:	6a1b      	ldr	r3, [r3, #32]
 8000974:	4a69      	ldr	r2, [pc, #420]	; (8000b1c <HAL_RCC_OscConfig+0x4f4>)
 8000976:	f043 0301 	orr.w	r3, r3, #1
 800097a:	6213      	str	r3, [r2, #32]
 800097c:	e00b      	b.n	8000996 <HAL_RCC_OscConfig+0x36e>
 800097e:	4b67      	ldr	r3, [pc, #412]	; (8000b1c <HAL_RCC_OscConfig+0x4f4>)
 8000980:	6a1b      	ldr	r3, [r3, #32]
 8000982:	4a66      	ldr	r2, [pc, #408]	; (8000b1c <HAL_RCC_OscConfig+0x4f4>)
 8000984:	f023 0301 	bic.w	r3, r3, #1
 8000988:	6213      	str	r3, [r2, #32]
 800098a:	4b64      	ldr	r3, [pc, #400]	; (8000b1c <HAL_RCC_OscConfig+0x4f4>)
 800098c:	6a1b      	ldr	r3, [r3, #32]
 800098e:	4a63      	ldr	r2, [pc, #396]	; (8000b1c <HAL_RCC_OscConfig+0x4f4>)
 8000990:	f023 0304 	bic.w	r3, r3, #4
 8000994:	6213      	str	r3, [r2, #32]
    /* Check the LSE State */
    if (RCC_OscInitStruct->LSEState != RCC_LSE_OFF)
 8000996:	687b      	ldr	r3, [r7, #4]
 8000998:	68db      	ldr	r3, [r3, #12]
 800099a:	2b00      	cmp	r3, #0
 800099c:	d015      	beq.n	80009ca <HAL_RCC_OscConfig+0x3a2>
    {
      /* Get Start Tick */
      tickstart = HAL_GetTick();
 800099e:	f7ff fd55 	bl	800044c <HAL_GetTick>
 80009a2:	6138      	str	r0, [r7, #16]

      /* Wait till LSE is ready */
      while (__HAL_RCC_GET_FLAG(RCC_FLAG_LSERDY) == RESET)
 80009a4:	e00a      	b.n	80009bc <HAL_RCC_OscConfig+0x394>
      {
        if ((HAL_GetTick() - tickstart) > RCC_LSE_TIMEOUT_VALUE)
 80009a6:	f7ff fd51 	bl	800044c <HAL_GetTick>
 80009aa:	4602      	mov	r2, r0
 80009ac:	693b      	ldr	r3, [r7, #16]
 80009ae:	1ad3      	subs	r3, r2, r3
 80009b0:	f241 3288 	movw	r2, #5000	; 0x1388
 80009b4:	4293      	cmp	r3, r2
 80009b6:	d901      	bls.n	80009bc <HAL_RCC_OscConfig+0x394>
        {
          return HAL_TIMEOUT;
 80009b8:	2303      	movs	r3, #3
 80009ba:	e0ab      	b.n	8000b14 <HAL_RCC_OscConfig+0x4ec>
      while (__HAL_RCC_GET_FLAG(RCC_FLAG_LSERDY) == RESET)
 80009bc:	4b57      	ldr	r3, [pc, #348]	; (8000b1c <HAL_RCC_OscConfig+0x4f4>)
 80009be:	6a1b      	ldr	r3, [r3, #32]
 80009c0:	f003 0302 	and.w	r3, r3, #2
 80009c4:	2b00      	cmp	r3, #0
 80009c6:	d0ee      	beq.n	80009a6 <HAL_RCC_OscConfig+0x37e>
 80009c8:	e014      	b.n	80009f4 <HAL_RCC_OscConfig+0x3cc>
      }
    }
    else
    {
      /* Get Start Tick */
      tickstart = HAL_GetTick();
 80009ca:	f7ff fd3f 	bl	800044c <HAL_GetTick>
 80009ce:	6138      	str	r0, [r7, #16]

      /* Wait till LSE is disabled */
      while (__HAL_RCC_GET_FLAG(RCC_FLAG_LSERDY) != RESET)
 80009d0:	e00a      	b.n	80009e8 <HAL_RCC_OscConfig+0x3c0>
      {
        if ((HAL_GetTick() - tickstart) > RCC_LSE_TIMEOUT_VALUE)
 80009d2:	f7ff fd3b 	bl	800044c <HAL_GetTick>
 80009d6:	4602      	mov	r2, r0
 80009d8:	693b      	ldr	r3, [r7, #16]
 80009da:	1ad3      	subs	r3, r2, r3
 80009dc:	f241 3288 	movw	r2, #5000	; 0x1388
 80009e0:	4293      	cmp	r3, r2
 80009e2:	d901      	bls.n	80009e8 <HAL_RCC_OscConfig+0x3c0>
        {
          return HAL_TIMEOUT;
 80009e4:	2303      	movs	r3, #3
 80009e6:	e095      	b.n	8000b14 <HAL_RCC_OscConfig+0x4ec>
      while (__HAL_RCC_GET_FLAG(RCC_FLAG_LSERDY) != RESET)
 80009e8:	4b4c      	ldr	r3, [pc, #304]	; (8000b1c <HAL_RCC_OscConfig+0x4f4>)
 80009ea:	6a1b      	ldr	r3, [r3, #32]
 80009ec:	f003 0302 	and.w	r3, r3, #2
 80009f0:	2b00      	cmp	r3, #0
 80009f2:	d1ee      	bne.n	80009d2 <HAL_RCC_OscConfig+0x3aa>
        }
      }
    }

    /* Require to disable power clock if necessary */
    if (pwrclkchanged == SET)
 80009f4:	7dfb      	ldrb	r3, [r7, #23]
 80009f6:	2b01      	cmp	r3, #1
 80009f8:	d105      	bne.n	8000a06 <HAL_RCC_OscConfig+0x3de>
    {
      __HAL_RCC_PWR_CLK_DISABLE();
 80009fa:	4b48      	ldr	r3, [pc, #288]	; (8000b1c <HAL_RCC_OscConfig+0x4f4>)
 80009fc:	69db      	ldr	r3, [r3, #28]
 80009fe:	4a47      	ldr	r2, [pc, #284]	; (8000b1c <HAL_RCC_OscConfig+0x4f4>)
 8000a00:	f023 5380 	bic.w	r3, r3, #268435456	; 0x10000000
 8000a04:	61d3      	str	r3, [r2, #28]

#endif /* RCC_CR_PLL2ON */
  /*-------------------------------- PLL Configuration -----------------------*/
  /* Check the parameters */
  assert_param(IS_RCC_PLL(RCC_OscInitStruct->PLL.PLLState));
  if ((RCC_OscInitStruct->PLL.PLLState) != RCC_PLL_NONE)
 8000a06:	687b      	ldr	r3, [r7, #4]
 8000a08:	69db      	ldr	r3, [r3, #28]
 8000a0a:	2b00      	cmp	r3, #0
 8000a0c:	f000 8081 	beq.w	8000b12 <HAL_RCC_OscConfig+0x4ea>
  {
    /* Check if the PLL is used as system clock or not */
    if (__HAL_RCC_GET_SYSCLK_SOURCE() != RCC_SYSCLKSOURCE_STATUS_PLLCLK)
 8000a10:	4b42      	ldr	r3, [pc, #264]	; (8000b1c <HAL_RCC_OscConfig+0x4f4>)
 8000a12:	685b      	ldr	r3, [r3, #4]
 8000a14:	f003 030c 	and.w	r3, r3, #12
 8000a18:	2b08      	cmp	r3, #8
 8000a1a:	d061      	beq.n	8000ae0 <HAL_RCC_OscConfig+0x4b8>
    {
      if ((RCC_OscInitStruct->PLL.PLLState) == RCC_PLL_ON)
 8000a1c:	687b      	ldr	r3, [r7, #4]
 8000a1e:	69db      	ldr	r3, [r3, #28]
 8000a20:	2b02      	cmp	r3, #2
 8000a22:	d146      	bne.n	8000ab2 <HAL_RCC_OscConfig+0x48a>
        /* Check the parameters */
        assert_param(IS_RCC_PLLSOURCE(RCC_OscInitStruct->PLL.PLLSource));
        assert_param(IS_RCC_PLL_MUL(RCC_OscInitStruct->PLL.PLLMUL));

        /* Disable the main PLL. */
        __HAL_RCC_PLL_DISABLE();
 8000a24:	4b3f      	ldr	r3, [pc, #252]	; (8000b24 <HAL_RCC_OscConfig+0x4fc>)
 8000a26:	2200      	movs	r2, #0
 8000a28:	601a      	str	r2, [r3, #0]

        /* Get Start Tick */
        tickstart = HAL_GetTick();
 8000a2a:	f7ff fd0f 	bl	800044c <HAL_GetTick>
 8000a2e:	6138      	str	r0, [r7, #16]

        /* Wait till PLL is disabled */
        while (__HAL_RCC_GET_FLAG(RCC_FLAG_PLLRDY)  != RESET)
 8000a30:	e008      	b.n	8000a44 <HAL_RCC_OscConfig+0x41c>
        {
          if ((HAL_GetTick() - tickstart) > PLL_TIMEOUT_VALUE)
 8000a32:	f7ff fd0b 	bl	800044c <HAL_GetTick>
 8000a36:	4602      	mov	r2, r0
 8000a38:	693b      	ldr	r3, [r7, #16]
 8000a3a:	1ad3      	subs	r3, r2, r3
 8000a3c:	2b02      	cmp	r3, #2
 8000a3e:	d901      	bls.n	8000a44 <HAL_RCC_OscConfig+0x41c>
          {
            return HAL_TIMEOUT;
 8000a40:	2303      	movs	r3, #3
 8000a42:	e067      	b.n	8000b14 <HAL_RCC_OscConfig+0x4ec>
        while (__HAL_RCC_GET_FLAG(RCC_FLAG_PLLRDY)  != RESET)
 8000a44:	4b35      	ldr	r3, [pc, #212]	; (8000b1c <HAL_RCC_OscConfig+0x4f4>)
 8000a46:	681b      	ldr	r3, [r3, #0]
 8000a48:	f003 7300 	and.w	r3, r3, #33554432	; 0x2000000
 8000a4c:	2b00      	cmp	r3, #0
 8000a4e:	d1f0      	bne.n	8000a32 <HAL_RCC_OscConfig+0x40a>
          }
        }

        /* Configure the HSE prediv factor --------------------------------*/
        /* It can be written only when the PLL is disabled. Not used in PLL source is different than HSE */
        if (RCC_OscInitStruct->PLL.PLLSource == RCC_PLLSOURCE_HSE)
 8000a50:	687b      	ldr	r3, [r7, #4]
 8000a52:	6a1b      	ldr	r3, [r3, #32]
 8000a54:	f5b3 3f80 	cmp.w	r3, #65536	; 0x10000
 8000a58:	d108      	bne.n	8000a6c <HAL_RCC_OscConfig+0x444>
          /* Set PREDIV1 source */
          SET_BIT(RCC->CFGR2, RCC_OscInitStruct->Prediv1Source);
#endif /* RCC_CFGR2_PREDIV1SRC */

          /* Set PREDIV1 Value */
          __HAL_RCC_HSE_PREDIV_CONFIG(RCC_OscInitStruct->HSEPredivValue);
 8000a5a:	4b30      	ldr	r3, [pc, #192]	; (8000b1c <HAL_RCC_OscConfig+0x4f4>)
 8000a5c:	685b      	ldr	r3, [r3, #4]
 8000a5e:	f423 3200 	bic.w	r2, r3, #131072	; 0x20000
 8000a62:	687b      	ldr	r3, [r7, #4]
 8000a64:	689b      	ldr	r3, [r3, #8]
 8000a66:	492d      	ldr	r1, [pc, #180]	; (8000b1c <HAL_RCC_OscConfig+0x4f4>)
 8000a68:	4313      	orrs	r3, r2
 8000a6a:	604b      	str	r3, [r1, #4]
        }

        /* Configure the main PLL clock source and multiplication factors. */
        __HAL_RCC_PLL_CONFIG(RCC_OscInitStruct->PLL.PLLSource,
 8000a6c:	4b2b      	ldr	r3, [pc, #172]	; (8000b1c <HAL_RCC_OscConfig+0x4f4>)
 8000a6e:	685b      	ldr	r3, [r3, #4]
 8000a70:	f423 1274 	bic.w	r2, r3, #3997696	; 0x3d0000
 8000a74:	687b      	ldr	r3, [r7, #4]
 8000a76:	6a19      	ldr	r1, [r3, #32]
 8000a78:	687b      	ldr	r3, [r7, #4]
 8000a7a:	6a5b      	ldr	r3, [r3, #36]	; 0x24
 8000a7c:	430b      	orrs	r3, r1
 8000a7e:	4927      	ldr	r1, [pc, #156]	; (8000b1c <HAL_RCC_OscConfig+0x4f4>)
 8000a80:	4313      	orrs	r3, r2
 8000a82:	604b      	str	r3, [r1, #4]
                             RCC_OscInitStruct->PLL.PLLMUL);
        /* Enable the main PLL. */
        __HAL_RCC_PLL_ENABLE();
 8000a84:	4b27      	ldr	r3, [pc, #156]	; (8000b24 <HAL_RCC_OscConfig+0x4fc>)
 8000a86:	2201      	movs	r2, #1
 8000a88:	601a      	str	r2, [r3, #0]

        /* Get Start Tick */
        tickstart = HAL_GetTick();
 8000a8a:	f7ff fcdf 	bl	800044c <HAL_GetTick>
 8000a8e:	6138      	str	r0, [r7, #16]

        /* Wait till PLL is ready */
        while (__HAL_RCC_GET_FLAG(RCC_FLAG_PLLRDY)  == RESET)
 8000a90:	e008      	b.n	8000aa4 <HAL_RCC_OscConfig+0x47c>
        {
          if ((HAL_GetTick() - tickstart) > PLL_TIMEOUT_VALUE)
 8000a92:	f7ff fcdb 	bl	800044c <HAL_GetTick>
 8000a96:	4602      	mov	r2, r0
 8000a98:	693b      	ldr	r3, [r7, #16]
 8000a9a:	1ad3      	subs	r3, r2, r3
 8000a9c:	2b02      	cmp	r3, #2
 8000a9e:	d901      	bls.n	8000aa4 <HAL_RCC_OscConfig+0x47c>
          {
            return HAL_TIMEOUT;
 8000aa0:	2303      	movs	r3, #3
 8000aa2:	e037      	b.n	8000b14 <HAL_RCC_OscConfig+0x4ec>
        while (__HAL_RCC_GET_FLAG(RCC_FLAG_PLLRDY)  == RESET)
 8000aa4:	4b1d      	ldr	r3, [pc, #116]	; (8000b1c <HAL_RCC_OscConfig+0x4f4>)
 8000aa6:	681b      	ldr	r3, [r3, #0]
 8000aa8:	f003 7300 	and.w	r3, r3, #33554432	; 0x2000000
 8000aac:	2b00      	cmp	r3, #0
 8000aae:	d0f0      	beq.n	8000a92 <HAL_RCC_OscConfig+0x46a>
 8000ab0:	e02f      	b.n	8000b12 <HAL_RCC_OscConfig+0x4ea>
        }
      }
      else
      {
        /* Disable the main PLL. */
        __HAL_RCC_PLL_DISABLE();
 8000ab2:	4b1c      	ldr	r3, [pc, #112]	; (8000b24 <HAL_RCC_OscConfig+0x4fc>)
 8000ab4:	2200      	movs	r2, #0
 8000ab6:	601a      	str	r2, [r3, #0]

        /* Get Start Tick */
        tickstart = HAL_GetTick();
 8000ab8:	f7ff fcc8 	bl	800044c <HAL_GetTick>
 8000abc:	6138      	str	r0, [r7, #16]

        /* Wait till PLL is disabled */
        while (__HAL_RCC_GET_FLAG(RCC_FLAG_PLLRDY)  != RESET)
 8000abe:	e008      	b.n	8000ad2 <HAL_RCC_OscConfig+0x4aa>
        {
          if ((HAL_GetTick() - tickstart) > PLL_TIMEOUT_VALUE)
 8000ac0:	f7ff fcc4 	bl	800044c <HAL_GetTick>
 8000ac4:	4602      	mov	r2, r0
 8000ac6:	693b      	ldr	r3, [r7, #16]
 8000ac8:	1ad3      	subs	r3, r2, r3
 8000aca:	2b02      	cmp	r3, #2
 8000acc:	d901      	bls.n	8000ad2 <HAL_RCC_OscConfig+0x4aa>
          {
            return HAL_TIMEOUT;
 8000ace:	2303      	movs	r3, #3
 8000ad0:	e020      	b.n	8000b14 <HAL_RCC_OscConfig+0x4ec>
        while (__HAL_RCC_GET_FLAG(RCC_FLAG_PLLRDY)  != RESET)
 8000ad2:	4b12      	ldr	r3, [pc, #72]	; (8000b1c <HAL_RCC_OscConfig+0x4f4>)
 8000ad4:	681b      	ldr	r3, [r3, #0]
 8000ad6:	f003 7300 	and.w	r3, r3, #33554432	; 0x2000000
 8000ada:	2b00      	cmp	r3, #0
 8000adc:	d1f0      	bne.n	8000ac0 <HAL_RCC_OscConfig+0x498>
 8000ade:	e018      	b.n	8000b12 <HAL_RCC_OscConfig+0x4ea>
      }
    }
    else
    {
      /* Check if there is a request to disable the PLL used as System clock source */
      if ((RCC_OscInitStruct->PLL.PLLState) == RCC_PLL_OFF)
 8000ae0:	687b      	ldr	r3, [r7, #4]
 8000ae2:	69db      	ldr	r3, [r3, #28]
 8000ae4:	2b01      	cmp	r3, #1
 8000ae6:	d101      	bne.n	8000aec <HAL_RCC_OscConfig+0x4c4>
      {
        return HAL_ERROR;
 8000ae8:	2301      	movs	r3, #1
 8000aea:	e013      	b.n	8000b14 <HAL_RCC_OscConfig+0x4ec>
      }
      else
      {
        /* Do not return HAL_ERROR if request repeats the current configuration */
        pll_config = RCC->CFGR;
 8000aec:	4b0b      	ldr	r3, [pc, #44]	; (8000b1c <HAL_RCC_OscConfig+0x4f4>)
 8000aee:	685b      	ldr	r3, [r3, #4]
 8000af0:	60fb      	str	r3, [r7, #12]
        if ((READ_BIT(pll_config, RCC_CFGR_PLLSRC) != RCC_OscInitStruct->PLL.PLLSource) ||
 8000af2:	68fb      	ldr	r3, [r7, #12]
 8000af4:	f403 3280 	and.w	r2, r3, #65536	; 0x10000
 8000af8:	687b      	ldr	r3, [r7, #4]
 8000afa:	6a1b      	ldr	r3, [r3, #32]
 8000afc:	429a      	cmp	r2, r3
 8000afe:	d106      	bne.n	8000b0e <HAL_RCC_OscConfig+0x4e6>
            (READ_BIT(pll_config, RCC_CFGR_PLLMULL) != RCC_OscInitStruct->PLL.PLLMUL))
 8000b00:	68fb      	ldr	r3, [r7, #12]
 8000b02:	f403 1270 	and.w	r2, r3, #3932160	; 0x3c0000
 8000b06:	687b      	ldr	r3, [r7, #4]
 8000b08:	6a5b      	ldr	r3, [r3, #36]	; 0x24
        if ((READ_BIT(pll_config, RCC_CFGR_PLLSRC) != RCC_OscInitStruct->PLL.PLLSource) ||
 8000b0a:	429a      	cmp	r2, r3
 8000b0c:	d001      	beq.n	8000b12 <HAL_RCC_OscConfig+0x4ea>
        {
          return HAL_ERROR;
 8000b0e:	2301      	movs	r3, #1
 8000b10:	e000      	b.n	8000b14 <HAL_RCC_OscConfig+0x4ec>
        }
      }
    }
  }

  return HAL_OK;
 8000b12:	2300      	movs	r3, #0
}
 8000b14:	4618      	mov	r0, r3
 8000b16:	3718      	adds	r7, #24
 8000b18:	46bd      	mov	sp, r7
 8000b1a:	bd80      	pop	{r7, pc}
 8000b1c:	40021000 	.word	0x40021000
 8000b20:	40007000 	.word	0x40007000
 8000b24:	42420060 	.word	0x42420060

08000b28 <HAL_RCC_ClockConfig>:
  *         You can use @ref HAL_RCC_GetClockConfig() function to know which clock is
  *         currently used as system clock source.
  * @retval HAL status
  */
HAL_StatusTypeDef HAL_RCC_ClockConfig(RCC_ClkInitTypeDef  *RCC_ClkInitStruct, uint32_t FLatency)
{
 8000b28:	b580      	push	{r7, lr}
 8000b2a:	b084      	sub	sp, #16
 8000b2c:	af00      	add	r7, sp, #0
 8000b2e:	6078      	str	r0, [r7, #4]
 8000b30:	6039      	str	r1, [r7, #0]
  uint32_t tickstart;

  /* Check Null pointer */
  if (RCC_ClkInitStruct == NULL)
 8000b32:	687b      	ldr	r3, [r7, #4]
 8000b34:	2b00      	cmp	r3, #0
 8000b36:	d101      	bne.n	8000b3c <HAL_RCC_ClockConfig+0x14>
  {
    return HAL_ERROR;
 8000b38:	2301      	movs	r3, #1
 8000b3a:	e0d0      	b.n	8000cde <HAL_RCC_ClockConfig+0x1b6>
  must be correctly programmed according to the frequency of the CPU clock
    (HCLK) of the device. */

#if defined(FLASH_ACR_LATENCY)
  /* Increasing the number of wait states because of higher CPU frequency */
  if (FLatency > __HAL_FLASH_GET_LATENCY())
 8000b3c:	4b6a      	ldr	r3, [pc, #424]	; (8000ce8 <HAL_RCC_ClockConfig+0x1c0>)
 8000b3e:	681b      	ldr	r3, [r3, #0]
 8000b40:	f003 0307 	and.w	r3, r3, #7
 8000b44:	683a      	ldr	r2, [r7, #0]
 8000b46:	429a      	cmp	r2, r3
 8000b48:	d910      	bls.n	8000b6c <HAL_RCC_ClockConfig+0x44>
  {
    /* Program the new number of wait states to the LATENCY bits in the FLASH_ACR register */
    __HAL_FLASH_SET_LATENCY(FLatency);
 8000b4a:	4b67      	ldr	r3, [pc, #412]	; (8000ce8 <HAL_RCC_ClockConfig+0x1c0>)
 8000b4c:	681b      	ldr	r3, [r3, #0]
 8000b4e:	f023 0207 	bic.w	r2, r3, #7
 8000b52:	4965      	ldr	r1, [pc, #404]	; (8000ce8 <HAL_RCC_ClockConfig+0x1c0>)
 8000b54:	683b      	ldr	r3, [r7, #0]
 8000b56:	4313      	orrs	r3, r2
 8000b58:	600b      	str	r3, [r1, #0]

    /* Check that the new number of wait states is taken into account to access the Flash
    memory by reading the FLASH_ACR register */
    if (__HAL_FLASH_GET_LATENCY() != FLatency)
 8000b5a:	4b63      	ldr	r3, [pc, #396]	; (8000ce8 <HAL_RCC_ClockConfig+0x1c0>)
 8000b5c:	681b      	ldr	r3, [r3, #0]
 8000b5e:	f003 0307 	and.w	r3, r3, #7
 8000b62:	683a      	ldr	r2, [r7, #0]
 8000b64:	429a      	cmp	r2, r3
 8000b66:	d001      	beq.n	8000b6c <HAL_RCC_ClockConfig+0x44>
  {
    return HAL_ERROR;
 8000b68:	2301      	movs	r3, #1
 8000b6a:	e0b8      	b.n	8000cde <HAL_RCC_ClockConfig+0x1b6>
  }
}

#endif /* FLASH_ACR_LATENCY */
/*-------------------------- HCLK Configuration --------------------------*/
if (((RCC_ClkInitStruct->ClockType) & RCC_CLOCKTYPE_HCLK) == RCC_CLOCKTYPE_HCLK)
 8000b6c:	687b      	ldr	r3, [r7, #4]
 8000b6e:	681b      	ldr	r3, [r3, #0]
 8000b70:	f003 0302 	and.w	r3, r3, #2
 8000b74:	2b00      	cmp	r3, #0
 8000b76:	d020      	beq.n	8000bba <HAL_RCC_ClockConfig+0x92>
  {
    /* Set the highest APBx dividers in order to ensure that we do not go through
    a non-spec phase whatever we decrease or increase HCLK. */
    if (((RCC_ClkInitStruct->ClockType) & RCC_CLOCKTYPE_PCLK1) == RCC_CLOCKTYPE_PCLK1)
 8000b78:	687b      	ldr	r3, [r7, #4]
 8000b7a:	681b      	ldr	r3, [r3, #0]
 8000b7c:	f003 0304 	and.w	r3, r3, #4
 8000b80:	2b00      	cmp	r3, #0
 8000b82:	d005      	beq.n	8000b90 <HAL_RCC_ClockConfig+0x68>
    {
      MODIFY_REG(RCC->CFGR, RCC_CFGR_PPRE1, RCC_HCLK_DIV16);
 8000b84:	4b59      	ldr	r3, [pc, #356]	; (8000cec <HAL_RCC_ClockConfig+0x1c4>)
 8000b86:	685b      	ldr	r3, [r3, #4]
 8000b88:	4a58      	ldr	r2, [pc, #352]	; (8000cec <HAL_RCC_ClockConfig+0x1c4>)
 8000b8a:	f443 63e0 	orr.w	r3, r3, #1792	; 0x700
 8000b8e:	6053      	str	r3, [r2, #4]
    }

    if (((RCC_ClkInitStruct->ClockType) & RCC_CLOCKTYPE_PCLK2) == RCC_CLOCKTYPE_PCLK2)
 8000b90:	687b      	ldr	r3, [r7, #4]
 8000b92:	681b      	ldr	r3, [r3, #0]
 8000b94:	f003 0308 	and.w	r3, r3, #8
 8000b98:	2b00      	cmp	r3, #0
 8000b9a:	d005      	beq.n	8000ba8 <HAL_RCC_ClockConfig+0x80>
    {
      MODIFY_REG(RCC->CFGR, RCC_CFGR_PPRE2, (RCC_HCLK_DIV16 << 3));
 8000b9c:	4b53      	ldr	r3, [pc, #332]	; (8000cec <HAL_RCC_ClockConfig+0x1c4>)
 8000b9e:	685b      	ldr	r3, [r3, #4]
 8000ba0:	4a52      	ldr	r2, [pc, #328]	; (8000cec <HAL_RCC_ClockConfig+0x1c4>)
 8000ba2:	f443 5360 	orr.w	r3, r3, #14336	; 0x3800
 8000ba6:	6053      	str	r3, [r2, #4]
    }

    /* Set the new HCLK clock divider */
    assert_param(IS_RCC_HCLK(RCC_ClkInitStruct->AHBCLKDivider));
    MODIFY_REG(RCC->CFGR, RCC_CFGR_HPRE, RCC_ClkInitStruct->AHBCLKDivider);
 8000ba8:	4b50      	ldr	r3, [pc, #320]	; (8000cec <HAL_RCC_ClockConfig+0x1c4>)
 8000baa:	685b      	ldr	r3, [r3, #4]
 8000bac:	f023 02f0 	bic.w	r2, r3, #240	; 0xf0
 8000bb0:	687b      	ldr	r3, [r7, #4]
 8000bb2:	689b      	ldr	r3, [r3, #8]
 8000bb4:	494d      	ldr	r1, [pc, #308]	; (8000cec <HAL_RCC_ClockConfig+0x1c4>)
 8000bb6:	4313      	orrs	r3, r2
 8000bb8:	604b      	str	r3, [r1, #4]
  }

  /*------------------------- SYSCLK Configuration ---------------------------*/
  if (((RCC_ClkInitStruct->ClockType) & RCC_CLOCKTYPE_SYSCLK) == RCC_CLOCKTYPE_SYSCLK)
 8000bba:	687b      	ldr	r3, [r7, #4]
 8000bbc:	681b      	ldr	r3, [r3, #0]
 8000bbe:	f003 0301 	and.w	r3, r3, #1
 8000bc2:	2b00      	cmp	r3, #0
 8000bc4:	d040      	beq.n	8000c48 <HAL_RCC_ClockConfig+0x120>
  {
    assert_param(IS_RCC_SYSCLKSOURCE(RCC_ClkInitStruct->SYSCLKSource));

    /* HSE is selected as System Clock Source */
    if (RCC_ClkInitStruct->SYSCLKSource == RCC_SYSCLKSOURCE_HSE)
 8000bc6:	687b      	ldr	r3, [r7, #4]
 8000bc8:	685b      	ldr	r3, [r3, #4]
 8000bca:	2b01      	cmp	r3, #1
 8000bcc:	d107      	bne.n	8000bde <HAL_RCC_ClockConfig+0xb6>
    {
      /* Check the HSE ready flag */
      if (__HAL_RCC_GET_FLAG(RCC_FLAG_HSERDY) == RESET)
 8000bce:	4b47      	ldr	r3, [pc, #284]	; (8000cec <HAL_RCC_ClockConfig+0x1c4>)
 8000bd0:	681b      	ldr	r3, [r3, #0]
 8000bd2:	f403 3300 	and.w	r3, r3, #131072	; 0x20000
 8000bd6:	2b00      	cmp	r3, #0
 8000bd8:	d115      	bne.n	8000c06 <HAL_RCC_ClockConfig+0xde>
      {
        return HAL_ERROR;
 8000bda:	2301      	movs	r3, #1
 8000bdc:	e07f      	b.n	8000cde <HAL_RCC_ClockConfig+0x1b6>
      }
    }
    /* PLL is selected as System Clock Source */
    else if (RCC_ClkInitStruct->SYSCLKSource == RCC_SYSCLKSOURCE_PLLCLK)
 8000bde:	687b      	ldr	r3, [r7, #4]
 8000be0:	685b      	ldr	r3, [r3, #4]
 8000be2:	2b02      	cmp	r3, #2
 8000be4:	d107      	bne.n	8000bf6 <HAL_RCC_ClockConfig+0xce>
    {
      /* Check the PLL ready flag */
      if (__HAL_RCC_GET_FLAG(RCC_FLAG_PLLRDY) == RESET)
 8000be6:	4b41      	ldr	r3, [pc, #260]	; (8000cec <HAL_RCC_ClockConfig+0x1c4>)
 8000be8:	681b      	ldr	r3, [r3, #0]
 8000bea:	f003 7300 	and.w	r3, r3, #33554432	; 0x2000000
 8000bee:	2b00      	cmp	r3, #0
 8000bf0:	d109      	bne.n	8000c06 <HAL_RCC_ClockConfig+0xde>
      {
        return HAL_ERROR;
 8000bf2:	2301      	movs	r3, #1
 8000bf4:	e073      	b.n	8000cde <HAL_RCC_ClockConfig+0x1b6>
    }
    /* HSI is selected as System Clock Source */
    else
    {
      /* Check the HSI ready flag */
      if (__HAL_RCC_GET_FLAG(RCC_FLAG_HSIRDY) == RESET)
 8000bf6:	4b3d      	ldr	r3, [pc, #244]	; (8000cec <HAL_RCC_ClockConfig+0x1c4>)
 8000bf8:	681b      	ldr	r3, [r3, #0]
 8000bfa:	f003 0302 	and.w	r3, r3, #2
 8000bfe:	2b00      	cmp	r3, #0
 8000c00:	d101      	bne.n	8000c06 <HAL_RCC_ClockConfig+0xde>
      {
        return HAL_ERROR;
 8000c02:	2301      	movs	r3, #1
 8000c04:	e06b      	b.n	8000cde <HAL_RCC_ClockConfig+0x1b6>
      }
    }
    __HAL_RCC_SYSCLK_CONFIG(RCC_ClkInitStruct->SYSCLKSource);
 8000c06:	4b39      	ldr	r3, [pc, #228]	; (8000cec <HAL_RCC_ClockConfig+0x1c4>)
 8000c08:	685b      	ldr	r3, [r3, #4]
 8000c0a:	f023 0203 	bic.w	r2, r3, #3
 8000c0e:	687b      	ldr	r3, [r7, #4]
 8000c10:	685b      	ldr	r3, [r3, #4]
 8000c12:	4936      	ldr	r1, [pc, #216]	; (8000cec <HAL_RCC_ClockConfig+0x1c4>)
 8000c14:	4313      	orrs	r3, r2
 8000c16:	604b      	str	r3, [r1, #4]

    /* Get Start Tick */
    tickstart = HAL_GetTick();
 8000c18:	f7ff fc18 	bl	800044c <HAL_GetTick>
 8000c1c:	60f8      	str	r0, [r7, #12]

    while (__HAL_RCC_GET_SYSCLK_SOURCE() != (RCC_ClkInitStruct->SYSCLKSource << RCC_CFGR_SWS_Pos))
 8000c1e:	e00a      	b.n	8000c36 <HAL_RCC_ClockConfig+0x10e>
    {
      if ((HAL_GetTick() - tickstart) > CLOCKSWITCH_TIMEOUT_VALUE)
 8000c20:	f7ff fc14 	bl	800044c <HAL_GetTick>
 8000c24:	4602      	mov	r2, r0
 8000c26:	68fb      	ldr	r3, [r7, #12]
 8000c28:	1ad3      	subs	r3, r2, r3
 8000c2a:	f241 3288 	movw	r2, #5000	; 0x1388
 8000c2e:	4293      	cmp	r3, r2
 8000c30:	d901      	bls.n	8000c36 <HAL_RCC_ClockConfig+0x10e>
      {
        return HAL_TIMEOUT;
 8000c32:	2303      	movs	r3, #3
 8000c34:	e053      	b.n	8000cde <HAL_RCC_ClockConfig+0x1b6>
    while (__HAL_RCC_GET_SYSCLK_SOURCE() != (RCC_ClkInitStruct->SYSCLKSource << RCC_CFGR_SWS_Pos))
 8000c36:	4b2d      	ldr	r3, [pc, #180]	; (8000cec <HAL_RCC_ClockConfig+0x1c4>)
 8000c38:	685b      	ldr	r3, [r3, #4]
 8000c3a:	f003 020c 	and.w	r2, r3, #12
 8000c3e:	687b      	ldr	r3, [r7, #4]
 8000c40:	685b      	ldr	r3, [r3, #4]
 8000c42:	009b      	lsls	r3, r3, #2
 8000c44:	429a      	cmp	r2, r3
 8000c46:	d1eb      	bne.n	8000c20 <HAL_RCC_ClockConfig+0xf8>
    }
  }

#if defined(FLASH_ACR_LATENCY)
  /* Decreasing the number of wait states because of lower CPU frequency */
  if (FLatency < __HAL_FLASH_GET_LATENCY())
 8000c48:	4b27      	ldr	r3, [pc, #156]	; (8000ce8 <HAL_RCC_ClockConfig+0x1c0>)
 8000c4a:	681b      	ldr	r3, [r3, #0]
 8000c4c:	f003 0307 	and.w	r3, r3, #7
 8000c50:	683a      	ldr	r2, [r7, #0]
 8000c52:	429a      	cmp	r2, r3
 8000c54:	d210      	bcs.n	8000c78 <HAL_RCC_ClockConfig+0x150>
  {
    /* Program the new number of wait states to the LATENCY bits in the FLASH_ACR register */
    __HAL_FLASH_SET_LATENCY(FLatency);
 8000c56:	4b24      	ldr	r3, [pc, #144]	; (8000ce8 <HAL_RCC_ClockConfig+0x1c0>)
 8000c58:	681b      	ldr	r3, [r3, #0]
 8000c5a:	f023 0207 	bic.w	r2, r3, #7
 8000c5e:	4922      	ldr	r1, [pc, #136]	; (8000ce8 <HAL_RCC_ClockConfig+0x1c0>)
 8000c60:	683b      	ldr	r3, [r7, #0]
 8000c62:	4313      	orrs	r3, r2
 8000c64:	600b      	str	r3, [r1, #0]

    /* Check that the new number of wait states is taken into account to access the Flash
    memory by reading the FLASH_ACR register */
    if (__HAL_FLASH_GET_LATENCY() != FLatency)
 8000c66:	4b20      	ldr	r3, [pc, #128]	; (8000ce8 <HAL_RCC_ClockConfig+0x1c0>)
 8000c68:	681b      	ldr	r3, [r3, #0]
 8000c6a:	f003 0307 	and.w	r3, r3, #7
 8000c6e:	683a      	ldr	r2, [r7, #0]
 8000c70:	429a      	cmp	r2, r3
 8000c72:	d001      	beq.n	8000c78 <HAL_RCC_ClockConfig+0x150>
  {
    return HAL_ERROR;
 8000c74:	2301      	movs	r3, #1
 8000c76:	e032      	b.n	8000cde <HAL_RCC_ClockConfig+0x1b6>
  }
}
#endif /* FLASH_ACR_LATENCY */

/*-------------------------- PCLK1 Configuration ---------------------------*/
if (((RCC_ClkInitStruct->ClockType) & RCC_CLOCKTYPE_PCLK1) == RCC_CLOCKTYPE_PCLK1)
 8000c78:	687b      	ldr	r3, [r7, #4]
 8000c7a:	681b      	ldr	r3, [r3, #0]
 8000c7c:	f003 0304 	and.w	r3, r3, #4
 8000c80:	2b00      	cmp	r3, #0
 8000c82:	d008      	beq.n	8000c96 <HAL_RCC_ClockConfig+0x16e>
  {
    assert_param(IS_RCC_PCLK(RCC_ClkInitStruct->APB1CLKDivider));
    MODIFY_REG(RCC->CFGR, RCC_CFGR_PPRE1, RCC_ClkInitStruct->APB1CLKDivider);
 8000c84:	4b19      	ldr	r3, [pc, #100]	; (8000cec <HAL_RCC_ClockConfig+0x1c4>)
 8000c86:	685b      	ldr	r3, [r3, #4]
 8000c88:	f423 62e0 	bic.w	r2, r3, #1792	; 0x700
 8000c8c:	687b      	ldr	r3, [r7, #4]
 8000c8e:	68db      	ldr	r3, [r3, #12]
 8000c90:	4916      	ldr	r1, [pc, #88]	; (8000cec <HAL_RCC_ClockConfig+0x1c4>)
 8000c92:	4313      	orrs	r3, r2
 8000c94:	604b      	str	r3, [r1, #4]
  }

  /*-------------------------- PCLK2 Configuration ---------------------------*/
  if (((RCC_ClkInitStruct->ClockType) & RCC_CLOCKTYPE_PCLK2) == RCC_CLOCKTYPE_PCLK2)
 8000c96:	687b      	ldr	r3, [r7, #4]
 8000c98:	681b      	ldr	r3, [r3, #0]
 8000c9a:	f003 0308 	and.w	r3, r3, #8
 8000c9e:	2b00      	cmp	r3, #0
 8000ca0:	d009      	beq.n	8000cb6 <HAL_RCC_ClockConfig+0x18e>
  {
    assert_param(IS_RCC_PCLK(RCC_ClkInitStruct->APB2CLKDivider));
    MODIFY_REG(RCC->CFGR, RCC_CFGR_PPRE2, ((RCC_ClkInitStruct->APB2CLKDivider) << 3));
 8000ca2:	4b12      	ldr	r3, [pc, #72]	; (8000cec <HAL_RCC_ClockConfig+0x1c4>)
 8000ca4:	685b      	ldr	r3, [r3, #4]
 8000ca6:	f423 5260 	bic.w	r2, r3, #14336	; 0x3800
 8000caa:	687b      	ldr	r3, [r7, #4]
 8000cac:	691b      	ldr	r3, [r3, #16]
 8000cae:	00db      	lsls	r3, r3, #3
 8000cb0:	490e      	ldr	r1, [pc, #56]	; (8000cec <HAL_RCC_ClockConfig+0x1c4>)
 8000cb2:	4313      	orrs	r3, r2
 8000cb4:	604b      	str	r3, [r1, #4]
  }

  /* Update the SystemCoreClock global variable */
  SystemCoreClock = HAL_RCC_GetSysClockFreq() >> AHBPrescTable[(RCC->CFGR & RCC_CFGR_HPRE) >> RCC_CFGR_HPRE_Pos];
 8000cb6:	f000 f821 	bl	8000cfc <HAL_RCC_GetSysClockFreq>
 8000cba:	4602      	mov	r2, r0
 8000cbc:	4b0b      	ldr	r3, [pc, #44]	; (8000cec <HAL_RCC_ClockConfig+0x1c4>)
 8000cbe:	685b      	ldr	r3, [r3, #4]
 8000cc0:	091b      	lsrs	r3, r3, #4
 8000cc2:	f003 030f 	and.w	r3, r3, #15
 8000cc6:	490a      	ldr	r1, [pc, #40]	; (8000cf0 <HAL_RCC_ClockConfig+0x1c8>)
 8000cc8:	5ccb      	ldrb	r3, [r1, r3]
 8000cca:	fa22 f303 	lsr.w	r3, r2, r3
 8000cce:	4a09      	ldr	r2, [pc, #36]	; (8000cf4 <HAL_RCC_ClockConfig+0x1cc>)
 8000cd0:	6013      	str	r3, [r2, #0]

  /* Configure the source of time base considering new system clocks settings*/
  HAL_InitTick(uwTickPrio);
 8000cd2:	4b09      	ldr	r3, [pc, #36]	; (8000cf8 <HAL_RCC_ClockConfig+0x1d0>)
 8000cd4:	681b      	ldr	r3, [r3, #0]
 8000cd6:	4618      	mov	r0, r3
 8000cd8:	f7ff fb76 	bl	80003c8 <HAL_InitTick>

  return HAL_OK;
 8000cdc:	2300      	movs	r3, #0
}
 8000cde:	4618      	mov	r0, r3
 8000ce0:	3710      	adds	r7, #16
 8000ce2:	46bd      	mov	sp, r7
 8000ce4:	bd80      	pop	{r7, pc}
 8000ce6:	bf00      	nop
 8000ce8:	40022000 	.word	0x40022000
 8000cec:	40021000 	.word	0x40021000
 8000cf0:	08000e78 	.word	0x08000e78
 8000cf4:	20000004 	.word	0x20000004
 8000cf8:	20000008 	.word	0x20000008

08000cfc <HAL_RCC_GetSysClockFreq>:
  *         right SYSCLK value. Otherwise, any configuration based on this function will be incorrect.
  *
  * @retval SYSCLK frequency
  */
uint32_t HAL_RCC_GetSysClockFreq(void)
{
 8000cfc:	b490      	push	{r4, r7}
 8000cfe:	b08a      	sub	sp, #40	; 0x28
 8000d00:	af00      	add	r7, sp, #0
#if defined(RCC_CFGR2_PREDIV1SRC)
  const uint8_t aPLLMULFactorTable[14] = {0, 0, 4, 5, 6, 7, 8, 9, 0, 0, 0, 0, 0, 13};
  const uint8_t aPredivFactorTable[16] = {1, 2, 3, 4, 5, 6, 7, 8, 9, 10, 11, 12, 13, 14, 15, 16};
#else
  const uint8_t aPLLMULFactorTable[16] = {2, 3, 4, 5, 6, 7, 8, 9, 10, 11, 12, 13, 14, 15, 16, 16};
 8000d02:	4b2a      	ldr	r3, [pc, #168]	; (8000dac <HAL_RCC_GetSysClockFreq+0xb0>)
 8000d04:	1d3c      	adds	r4, r7, #4
 8000d06:	cb0f      	ldmia	r3, {r0, r1, r2, r3}
 8000d08:	e884 000f 	stmia.w	r4, {r0, r1, r2, r3}
#if defined(RCC_CFGR2_PREDIV1)
  const uint8_t aPredivFactorTable[16] = {1, 2, 3, 4, 5, 6, 7, 8, 9, 10, 11, 12, 13, 14, 15, 16};
#else
  const uint8_t aPredivFactorTable[2] = {1, 2};
 8000d0c:	f240 2301 	movw	r3, #513	; 0x201
 8000d10:	803b      	strh	r3, [r7, #0]
#endif /*RCC_CFGR2_PREDIV1*/

#endif
  uint32_t tmpreg = 0U, prediv = 0U, pllclk = 0U, pllmul = 0U;
 8000d12:	2300      	movs	r3, #0
 8000d14:	61fb      	str	r3, [r7, #28]
 8000d16:	2300      	movs	r3, #0
 8000d18:	61bb      	str	r3, [r7, #24]
 8000d1a:	2300      	movs	r3, #0
 8000d1c:	627b      	str	r3, [r7, #36]	; 0x24
 8000d1e:	2300      	movs	r3, #0
 8000d20:	617b      	str	r3, [r7, #20]
  uint32_t sysclockfreq = 0U;
 8000d22:	2300      	movs	r3, #0
 8000d24:	623b      	str	r3, [r7, #32]
#if defined(RCC_CFGR2_PREDIV1SRC)
  uint32_t prediv2 = 0U, pll2mul = 0U;
#endif /*RCC_CFGR2_PREDIV1SRC*/

  tmpreg = RCC->CFGR;
 8000d26:	4b22      	ldr	r3, [pc, #136]	; (8000db0 <HAL_RCC_GetSysClockFreq+0xb4>)
 8000d28:	685b      	ldr	r3, [r3, #4]
 8000d2a:	61fb      	str	r3, [r7, #28]

  /* Get SYSCLK source -------------------------------------------------------*/
  switch (tmpreg & RCC_CFGR_SWS)
 8000d2c:	69fb      	ldr	r3, [r7, #28]
 8000d2e:	f003 030c 	and.w	r3, r3, #12
 8000d32:	2b04      	cmp	r3, #4
 8000d34:	d002      	beq.n	8000d3c <HAL_RCC_GetSysClockFreq+0x40>
 8000d36:	2b08      	cmp	r3, #8
 8000d38:	d003      	beq.n	8000d42 <HAL_RCC_GetSysClockFreq+0x46>
 8000d3a:	e02d      	b.n	8000d98 <HAL_RCC_GetSysClockFreq+0x9c>
  {
    case RCC_SYSCLKSOURCE_STATUS_HSE:  /* HSE used as system clock */
    {
      sysclockfreq = HSE_VALUE;
 8000d3c:	4b1d      	ldr	r3, [pc, #116]	; (8000db4 <HAL_RCC_GetSysClockFreq+0xb8>)
 8000d3e:	623b      	str	r3, [r7, #32]
      break;
 8000d40:	e02d      	b.n	8000d9e <HAL_RCC_GetSysClockFreq+0xa2>
    }
    case RCC_SYSCLKSOURCE_STATUS_PLLCLK:  /* PLL used as system clock */
    {
      pllmul = aPLLMULFactorTable[(uint32_t)(tmpreg & RCC_CFGR_PLLMULL) >> RCC_CFGR_PLLMULL_Pos];
 8000d42:	69fb      	ldr	r3, [r7, #28]
 8000d44:	0c9b      	lsrs	r3, r3, #18
 8000d46:	f003 030f 	and.w	r3, r3, #15
 8000d4a:	f107 0228 	add.w	r2, r7, #40	; 0x28
 8000d4e:	4413      	add	r3, r2
 8000d50:	f813 3c24 	ldrb.w	r3, [r3, #-36]
 8000d54:	617b      	str	r3, [r7, #20]
      if ((tmpreg & RCC_CFGR_PLLSRC) != RCC_PLLSOURCE_HSI_DIV2)
 8000d56:	69fb      	ldr	r3, [r7, #28]
 8000d58:	f403 3380 	and.w	r3, r3, #65536	; 0x10000
 8000d5c:	2b00      	cmp	r3, #0
 8000d5e:	d013      	beq.n	8000d88 <HAL_RCC_GetSysClockFreq+0x8c>
      {
#if defined(RCC_CFGR2_PREDIV1)
        prediv = aPredivFactorTable[(uint32_t)(RCC->CFGR2 & RCC_CFGR2_PREDIV1) >> RCC_CFGR2_PREDIV1_Pos];
#else
        prediv = aPredivFactorTable[(uint32_t)(RCC->CFGR & RCC_CFGR_PLLXTPRE) >> RCC_CFGR_PLLXTPRE_Pos];
 8000d60:	4b13      	ldr	r3, [pc, #76]	; (8000db0 <HAL_RCC_GetSysClockFreq+0xb4>)
 8000d62:	685b      	ldr	r3, [r3, #4]
 8000d64:	0c5b      	lsrs	r3, r3, #17
 8000d66:	f003 0301 	and.w	r3, r3, #1
 8000d6a:	f107 0228 	add.w	r2, r7, #40	; 0x28
 8000d6e:	4413      	add	r3, r2
 8000d70:	f813 3c28 	ldrb.w	r3, [r3, #-40]
 8000d74:	61bb      	str	r3, [r7, #24]
        {
          pllclk = pllclk / 2;
        }
#else
        /* HSE used as PLL clock source : PLLCLK = HSE/PREDIV1 * PLLMUL */
        pllclk = (uint32_t)((HSE_VALUE  * pllmul) / prediv);
 8000d76:	697b      	ldr	r3, [r7, #20]
 8000d78:	4a0e      	ldr	r2, [pc, #56]	; (8000db4 <HAL_RCC_GetSysClockFreq+0xb8>)
 8000d7a:	fb02 f203 	mul.w	r2, r2, r3
 8000d7e:	69bb      	ldr	r3, [r7, #24]
 8000d80:	fbb2 f3f3 	udiv	r3, r2, r3
 8000d84:	627b      	str	r3, [r7, #36]	; 0x24
 8000d86:	e004      	b.n	8000d92 <HAL_RCC_GetSysClockFreq+0x96>
#endif /*RCC_CFGR2_PREDIV1SRC*/
      }
      else
      {
        /* HSI used as PLL clock source : PLLCLK = HSI/2 * PLLMUL */
        pllclk = (uint32_t)((HSI_VALUE >> 1) * pllmul);
 8000d88:	697b      	ldr	r3, [r7, #20]
 8000d8a:	4a0b      	ldr	r2, [pc, #44]	; (8000db8 <HAL_RCC_GetSysClockFreq+0xbc>)
 8000d8c:	fb02 f303 	mul.w	r3, r2, r3
 8000d90:	627b      	str	r3, [r7, #36]	; 0x24
      }
      sysclockfreq = pllclk;
 8000d92:	6a7b      	ldr	r3, [r7, #36]	; 0x24
 8000d94:	623b      	str	r3, [r7, #32]
      break;
 8000d96:	e002      	b.n	8000d9e <HAL_RCC_GetSysClockFreq+0xa2>
    }
    case RCC_SYSCLKSOURCE_STATUS_HSI:  /* HSI used as system clock source */
    default: /* HSI used as system clock */
    {
      sysclockfreq = HSI_VALUE;
 8000d98:	4b06      	ldr	r3, [pc, #24]	; (8000db4 <HAL_RCC_GetSysClockFreq+0xb8>)
 8000d9a:	623b      	str	r3, [r7, #32]
      break;
 8000d9c:	bf00      	nop
    }
  }
  return sysclockfreq;
 8000d9e:	6a3b      	ldr	r3, [r7, #32]
}
 8000da0:	4618      	mov	r0, r3
 8000da2:	3728      	adds	r7, #40	; 0x28
 8000da4:	46bd      	mov	sp, r7
 8000da6:	bc90      	pop	{r4, r7}
 8000da8:	4770      	bx	lr
 8000daa:	bf00      	nop
 8000dac:	08000e68 	.word	0x08000e68
 8000db0:	40021000 	.word	0x40021000
 8000db4:	007a1200 	.word	0x007a1200
 8000db8:	003d0900 	.word	0x003d0900

08000dbc <RCC_Delay>:
  * @brief  This function provides delay (in milliseconds) based on CPU cycles method.
  * @param  mdelay: specifies the delay time length, in milliseconds.
  * @retval None
  */
static void RCC_Delay(uint32_t mdelay)
{
 8000dbc:	b480      	push	{r7}
 8000dbe:	b085      	sub	sp, #20
 8000dc0:	af00      	add	r7, sp, #0
 8000dc2:	6078      	str	r0, [r7, #4]
  __IO uint32_t Delay = mdelay * (SystemCoreClock / 8U / 1000U);
 8000dc4:	4b0a      	ldr	r3, [pc, #40]	; (8000df0 <RCC_Delay+0x34>)
 8000dc6:	681b      	ldr	r3, [r3, #0]
 8000dc8:	4a0a      	ldr	r2, [pc, #40]	; (8000df4 <RCC_Delay+0x38>)
 8000dca:	fba2 2303 	umull	r2, r3, r2, r3
 8000dce:	0a5b      	lsrs	r3, r3, #9
 8000dd0:	687a      	ldr	r2, [r7, #4]
 8000dd2:	fb02 f303 	mul.w	r3, r2, r3
 8000dd6:	60fb      	str	r3, [r7, #12]
  do
  {
    __NOP();
 8000dd8:	bf00      	nop
  }
  while (Delay --);
 8000dda:	68fb      	ldr	r3, [r7, #12]
 8000ddc:	1e5a      	subs	r2, r3, #1
 8000dde:	60fa      	str	r2, [r7, #12]
 8000de0:	2b00      	cmp	r3, #0
 8000de2:	d1f9      	bne.n	8000dd8 <RCC_Delay+0x1c>
}
 8000de4:	bf00      	nop
 8000de6:	bf00      	nop
 8000de8:	3714      	adds	r7, #20
 8000dea:	46bd      	mov	sp, r7
 8000dec:	bc80      	pop	{r7}
 8000dee:	4770      	bx	lr
 8000df0:	20000004 	.word	0x20000004
 8000df4:	10624dd3 	.word	0x10624dd3

08000df8 <__libc_init_array>:
 8000df8:	b570      	push	{r4, r5, r6, lr}
 8000dfa:	2600      	movs	r6, #0
 8000dfc:	4d0c      	ldr	r5, [pc, #48]	; (8000e30 <__libc_init_array+0x38>)
 8000dfe:	4c0d      	ldr	r4, [pc, #52]	; (8000e34 <__libc_init_array+0x3c>)
 8000e00:	1b64      	subs	r4, r4, r5
 8000e02:	10a4      	asrs	r4, r4, #2
 8000e04:	42a6      	cmp	r6, r4
 8000e06:	d109      	bne.n	8000e1c <__libc_init_array+0x24>
 8000e08:	f000 f822 	bl	8000e50 <_init>
 8000e0c:	2600      	movs	r6, #0
 8000e0e:	4d0a      	ldr	r5, [pc, #40]	; (8000e38 <__libc_init_array+0x40>)
 8000e10:	4c0a      	ldr	r4, [pc, #40]	; (8000e3c <__libc_init_array+0x44>)
 8000e12:	1b64      	subs	r4, r4, r5
 8000e14:	10a4      	asrs	r4, r4, #2
 8000e16:	42a6      	cmp	r6, r4
 8000e18:	d105      	bne.n	8000e26 <__libc_init_array+0x2e>
 8000e1a:	bd70      	pop	{r4, r5, r6, pc}
 8000e1c:	f855 3b04 	ldr.w	r3, [r5], #4
 8000e20:	4798      	blx	r3
 8000e22:	3601      	adds	r6, #1
 8000e24:	e7ee      	b.n	8000e04 <__libc_init_array+0xc>
 8000e26:	f855 3b04 	ldr.w	r3, [r5], #4
 8000e2a:	4798      	blx	r3
 8000e2c:	3601      	adds	r6, #1
 8000e2e:	e7f2      	b.n	8000e16 <__libc_init_array+0x1e>
 8000e30:	08000e88 	.word	0x08000e88
 8000e34:	08000e88 	.word	0x08000e88
 8000e38:	08000e88 	.word	0x08000e88
 8000e3c:	08000e8c 	.word	0x08000e8c

08000e40 <memset>:
 8000e40:	4603      	mov	r3, r0
 8000e42:	4402      	add	r2, r0
 8000e44:	4293      	cmp	r3, r2
 8000e46:	d100      	bne.n	8000e4a <memset+0xa>
 8000e48:	4770      	bx	lr
 8000e4a:	f803 1b01 	strb.w	r1, [r3], #1
 8000e4e:	e7f9      	b.n	8000e44 <memset+0x4>

08000e50 <_init>:
 8000e50:	b5f8      	push	{r3, r4, r5, r6, r7, lr}
 8000e52:	bf00      	nop
 8000e54:	bcf8      	pop	{r3, r4, r5, r6, r7}
 8000e56:	bc08      	pop	{r3}
 8000e58:	469e      	mov	lr, r3
 8000e5a:	4770      	bx	lr

08000e5c <_fini>:
 8000e5c:	b5f8      	push	{r3, r4, r5, r6, r7, lr}
 8000e5e:	bf00      	nop
 8000e60:	bcf8      	pop	{r3, r4, r5, r6, r7}
 8000e62:	bc08      	pop	{r3}
 8000e64:	469e      	mov	lr, r3
 8000e66:	4770      	bx	lr
