
pruebasIniciales.elf:     file format elf32-littlearm

Sections:
Idx Name          Size      VMA       LMA       File off  Algn
  0 .isr_vector   0000010c  08000000  08000000  00010000  2**0
                  CONTENTS, ALLOC, LOAD, READONLY, DATA
  1 .text         00000d40  0800010c  0800010c  0001010c  2**2
                  CONTENTS, ALLOC, LOAD, READONLY, CODE
  2 .rodata       00000020  08000e4c  08000e4c  00010e4c  2**2
                  CONTENTS, ALLOC, LOAD, READONLY, DATA
  3 .ARM.extab    00000000  08000e6c  08000e6c  00020020  2**0
                  CONTENTS
  4 .ARM          00000000  08000e6c  08000e6c  00020020  2**0
                  CONTENTS
  5 .preinit_array 00000000  08000e6c  08000e6c  00020020  2**0
                  CONTENTS, ALLOC, LOAD, DATA
  6 .init_array   00000004  08000e6c  08000e6c  00010e6c  2**2
                  CONTENTS, ALLOC, LOAD, DATA
  7 .fini_array   00000004  08000e70  08000e70  00010e70  2**2
                  CONTENTS, ALLOC, LOAD, DATA
  8 .data         00000020  20000000  08000e74  00020000  2**2
                  CONTENTS, ALLOC, LOAD, DATA
  9 .bss          00000024  20000020  08000e94  00020020  2**2
                  ALLOC
 10 ._user_heap_stack 00000604  20000044  08000e94  00020044  2**0
                  ALLOC
 11 .ARM.attributes 00000029  00000000  00000000  00020020  2**0
                  CONTENTS, READONLY
 12 .debug_info   00002870  00000000  00000000  00020049  2**0
                  CONTENTS, READONLY, DEBUGGING, OCTETS
 13 .debug_abbrev 00000c9c  00000000  00000000  000228b9  2**0
                  CONTENTS, READONLY, DEBUGGING, OCTETS
 14 .debug_aranges 00000398  00000000  00000000  00023558  2**3
                  CONTENTS, READONLY, DEBUGGING, OCTETS
 15 .debug_ranges 00000300  00000000  00000000  000238f0  2**3
                  CONTENTS, READONLY, DEBUGGING, OCTETS
 16 .debug_macro  000156ee  00000000  00000000  00023bf0  2**0
                  CONTENTS, READONLY, DEBUGGING, OCTETS
 17 .debug_line   00003b06  00000000  00000000  000392de  2**0
                  CONTENTS, READONLY, DEBUGGING, OCTETS
 18 .debug_str    0007b730  00000000  00000000  0003cde4  2**0
                  CONTENTS, READONLY, DEBUGGING, OCTETS
 19 .comment      00000053  00000000  00000000  000b8514  2**0
                  CONTENTS, READONLY
 20 .debug_frame  00000be8  00000000  00000000  000b8568  2**2
                  CONTENTS, READONLY, DEBUGGING, OCTETS

Disassembly of section .text:

0800010c <__do_global_dtors_aux>:
 800010c:	b510      	push	{r4, lr}
 800010e:	4c05      	ldr	r4, [pc, #20]	; (8000124 <__do_global_dtors_aux+0x18>)
 8000110:	7823      	ldrb	r3, [r4, #0]
 8000112:	b933      	cbnz	r3, 8000122 <__do_global_dtors_aux+0x16>
 8000114:	4b04      	ldr	r3, [pc, #16]	; (8000128 <__do_global_dtors_aux+0x1c>)
 8000116:	b113      	cbz	r3, 800011e <__do_global_dtors_aux+0x12>
 8000118:	4804      	ldr	r0, [pc, #16]	; (800012c <__do_global_dtors_aux+0x20>)
 800011a:	f3af 8000 	nop.w
 800011e:	2301      	movs	r3, #1
 8000120:	7023      	strb	r3, [r4, #0]
 8000122:	bd10      	pop	{r4, pc}
 8000124:	20000020 	.word	0x20000020
 8000128:	00000000 	.word	0x00000000
 800012c:	08000e34 	.word	0x08000e34

08000130 <frame_dummy>:
 8000130:	b508      	push	{r3, lr}
 8000132:	4b03      	ldr	r3, [pc, #12]	; (8000140 <frame_dummy+0x10>)
 8000134:	b11b      	cbz	r3, 800013e <frame_dummy+0xe>
 8000136:	4903      	ldr	r1, [pc, #12]	; (8000144 <frame_dummy+0x14>)
 8000138:	4803      	ldr	r0, [pc, #12]	; (8000148 <frame_dummy+0x18>)
 800013a:	f3af 8000 	nop.w
 800013e:	bd08      	pop	{r3, pc}
 8000140:	00000000 	.word	0x00000000
 8000144:	20000024 	.word	0x20000024
 8000148:	08000e34 	.word	0x08000e34

0800014c <promedio>:
.type promedio, %function
/*
uint32_t promedio(uint32_t * vector, uint32_t len);
*/
promedio:
	PUSH {LR}
 800014c:	b500      	push	{lr}
	/*Tengo en R0 la direccion del vector al que le quiero hacer el promedio*/
	/*Tengo en R1 la cantidad de elementos del vector */
	PUSH {R1}
 800014e:	b402      	push	{r1}
	MOV R2, #0
 8000150:	f04f 0200 	mov.w	r2, #0

08000154 <loopCBZ>:
loopCBZ:
	/*nos fijamos si la cantidad de elementos restantes no es 0*/
	CBZ R1, endCBZ
 8000154:	b131      	cbz	r1, 8000164 <endCBZ>
	/* Cantidad de elementos distinta de cero entonces llegamos aca */
	/* Comenzamos a hacer la suma para el promedio */
	LDR R3,[R0] /*Almacenamos el valor que queremos sumar */
 8000156:	6803      	ldr	r3, [r0, #0]
	ADD R0,#4 /*Incrementamos la direccion de memoria para pasar al siguiente elemento*/
 8000158:	f100 0004 	add.w	r0, r0, #4
	ADD R2, R2, R3 /*Lo sumamos en el registro de sumas */
 800015c:	441a      	add	r2, r3
	SUB R1, #1  /*Disminuimos en una la cantidad de elementos disponibles*/
 800015e:	f1a1 0101 	sub.w	r1, r1, #1
	B loopCBZ
 8000162:	e7f7      	b.n	8000154 <loopCBZ>

08000164 <endCBZ>:
endCBZ:
	/*Si llegamos aca entonces en R2 esta la suma de todos los valores*/
	/*Entonces volvemos a obtener de la pila la cantidad de elementos originales*/
	/*y efectuamos la division que obtiene el promedio */
	POP {R1}
 8000164:	bc02      	pop	{r1}
	SDIV R0, R2, R1 /*Dividimos R2 entre R1, osea la suma sobre la cantidad y lo guardamos en R0*/
 8000166:	fb92 f0f1 	sdiv	r0, r2, r1
	POP {PC}
 800016a:	bd00      	pop	{pc}

0800016c <main>:
/**
  * @brief  The application entry point.
  * @retval int
  */
int main(void)
{
 800016c:	b580      	push	{r7, lr}
 800016e:	af00      	add	r7, sp, #0
  /* USER CODE END 1 */

  /* MCU Configuration--------------------------------------------------------*/

  /* Reset of all peripherals, Initializes the Flash interface and the Systick. */
  HAL_Init();
 8000170:	f000 f906 	bl	8000380 <HAL_Init>
  /* USER CODE BEGIN Init */

  /* USER CODE END Init */

  /* Configure the system clock */
  SystemClock_Config();
 8000174:	f000 f80e 	bl	8000194 <SystemClock_Config>
  /* USER CODE BEGIN SysInit */

  /* USER CODE END SysInit */

  /* Initialize all configured peripherals */
  MX_GPIO_Init();
 8000178:	f000 f848 	bl	800020c <MX_GPIO_Init>
  /* Infinite loop */
  /* USER CODE BEGIN WHILE */
  while (1)
  {
    /* USER CODE END WHILE */
	var_res = promedio(vector, 5);
 800017c:	2105      	movs	r1, #5
 800017e:	4803      	ldr	r0, [pc, #12]	; (800018c <main+0x20>)
 8000180:	f7ff ffe4 	bl	800014c <promedio>
 8000184:	4603      	mov	r3, r0
 8000186:	4a02      	ldr	r2, [pc, #8]	; (8000190 <main+0x24>)
 8000188:	6013      	str	r3, [r2, #0]
 800018a:	e7f7      	b.n	800017c <main+0x10>
 800018c:	20000000 	.word	0x20000000
 8000190:	2000003c 	.word	0x2000003c

08000194 <SystemClock_Config>:
/**
  * @brief System Clock Configuration
  * @retval None
  */
void SystemClock_Config(void)
{
 8000194:	b580      	push	{r7, lr}
 8000196:	b090      	sub	sp, #64	; 0x40
 8000198:	af00      	add	r7, sp, #0
  RCC_OscInitTypeDef RCC_OscInitStruct = {0};
 800019a:	f107 0318 	add.w	r3, r7, #24
 800019e:	2228      	movs	r2, #40	; 0x28
 80001a0:	2100      	movs	r1, #0
 80001a2:	4618      	mov	r0, r3
 80001a4:	f000 fe3e 	bl	8000e24 <memset>
  RCC_ClkInitTypeDef RCC_ClkInitStruct = {0};
 80001a8:	1d3b      	adds	r3, r7, #4
 80001aa:	2200      	movs	r2, #0
 80001ac:	601a      	str	r2, [r3, #0]
 80001ae:	605a      	str	r2, [r3, #4]
 80001b0:	609a      	str	r2, [r3, #8]
 80001b2:	60da      	str	r2, [r3, #12]
 80001b4:	611a      	str	r2, [r3, #16]

  /** Initializes the RCC Oscillators according to the specified parameters
  * in the RCC_OscInitTypeDef structure.
  */
  RCC_OscInitStruct.OscillatorType = RCC_OSCILLATORTYPE_HSI;
 80001b6:	2302      	movs	r3, #2
 80001b8:	61bb      	str	r3, [r7, #24]
  RCC_OscInitStruct.HSIState = RCC_HSI_ON;
 80001ba:	2301      	movs	r3, #1
 80001bc:	62bb      	str	r3, [r7, #40]	; 0x28
  RCC_OscInitStruct.HSICalibrationValue = RCC_HSICALIBRATION_DEFAULT;
 80001be:	2310      	movs	r3, #16
 80001c0:	62fb      	str	r3, [r7, #44]	; 0x2c
  RCC_OscInitStruct.PLL.PLLState = RCC_PLL_NONE;
 80001c2:	2300      	movs	r3, #0
 80001c4:	637b      	str	r3, [r7, #52]	; 0x34
  if (HAL_RCC_OscConfig(&RCC_OscInitStruct) != HAL_OK)
 80001c6:	f107 0318 	add.w	r3, r7, #24
 80001ca:	4618      	mov	r0, r3
 80001cc:	f000 fa1e 	bl	800060c <HAL_RCC_OscConfig>
 80001d0:	4603      	mov	r3, r0
 80001d2:	2b00      	cmp	r3, #0
 80001d4:	d001      	beq.n	80001da <SystemClock_Config+0x46>
  {
    Error_Handler();
 80001d6:	f000 f847 	bl	8000268 <Error_Handler>
  }
  /** Initializes the CPU, AHB and APB buses clocks
  */
  RCC_ClkInitStruct.ClockType = RCC_CLOCKTYPE_HCLK|RCC_CLOCKTYPE_SYSCLK
 80001da:	230f      	movs	r3, #15
 80001dc:	607b      	str	r3, [r7, #4]
                              |RCC_CLOCKTYPE_PCLK1|RCC_CLOCKTYPE_PCLK2;
  RCC_ClkInitStruct.SYSCLKSource = RCC_SYSCLKSOURCE_HSI;
 80001de:	2300      	movs	r3, #0
 80001e0:	60bb      	str	r3, [r7, #8]
  RCC_ClkInitStruct.AHBCLKDivider = RCC_SYSCLK_DIV1;
 80001e2:	2300      	movs	r3, #0
 80001e4:	60fb      	str	r3, [r7, #12]
  RCC_ClkInitStruct.APB1CLKDivider = RCC_HCLK_DIV1;
 80001e6:	2300      	movs	r3, #0
 80001e8:	613b      	str	r3, [r7, #16]
  RCC_ClkInitStruct.APB2CLKDivider = RCC_HCLK_DIV1;
 80001ea:	2300      	movs	r3, #0
 80001ec:	617b      	str	r3, [r7, #20]

  if (HAL_RCC_ClockConfig(&RCC_ClkInitStruct, FLASH_LATENCY_0) != HAL_OK)
 80001ee:	1d3b      	adds	r3, r7, #4
 80001f0:	2100      	movs	r1, #0
 80001f2:	4618      	mov	r0, r3
 80001f4:	f000 fc8a 	bl	8000b0c <HAL_RCC_ClockConfig>
 80001f8:	4603      	mov	r3, r0
 80001fa:	2b00      	cmp	r3, #0
 80001fc:	d001      	beq.n	8000202 <SystemClock_Config+0x6e>
  {
    Error_Handler();
 80001fe:	f000 f833 	bl	8000268 <Error_Handler>
  }
}
 8000202:	bf00      	nop
 8000204:	3740      	adds	r7, #64	; 0x40
 8000206:	46bd      	mov	sp, r7
 8000208:	bd80      	pop	{r7, pc}
	...

0800020c <MX_GPIO_Init>:
  * @brief GPIO Initialization Function
  * @param None
  * @retval None
  */
static void MX_GPIO_Init(void)
{
 800020c:	b480      	push	{r7}
 800020e:	b085      	sub	sp, #20
 8000210:	af00      	add	r7, sp, #0

  /* GPIO Ports Clock Enable */
  __HAL_RCC_GPIOC_CLK_ENABLE();
 8000212:	4b14      	ldr	r3, [pc, #80]	; (8000264 <MX_GPIO_Init+0x58>)
 8000214:	699b      	ldr	r3, [r3, #24]
 8000216:	4a13      	ldr	r2, [pc, #76]	; (8000264 <MX_GPIO_Init+0x58>)
 8000218:	f043 0310 	orr.w	r3, r3, #16
 800021c:	6193      	str	r3, [r2, #24]
 800021e:	4b11      	ldr	r3, [pc, #68]	; (8000264 <MX_GPIO_Init+0x58>)
 8000220:	699b      	ldr	r3, [r3, #24]
 8000222:	f003 0310 	and.w	r3, r3, #16
 8000226:	60fb      	str	r3, [r7, #12]
 8000228:	68fb      	ldr	r3, [r7, #12]
  __HAL_RCC_GPIOD_CLK_ENABLE();
 800022a:	4b0e      	ldr	r3, [pc, #56]	; (8000264 <MX_GPIO_Init+0x58>)
 800022c:	699b      	ldr	r3, [r3, #24]
 800022e:	4a0d      	ldr	r2, [pc, #52]	; (8000264 <MX_GPIO_Init+0x58>)
 8000230:	f043 0320 	orr.w	r3, r3, #32
 8000234:	6193      	str	r3, [r2, #24]
 8000236:	4b0b      	ldr	r3, [pc, #44]	; (8000264 <MX_GPIO_Init+0x58>)
 8000238:	699b      	ldr	r3, [r3, #24]
 800023a:	f003 0320 	and.w	r3, r3, #32
 800023e:	60bb      	str	r3, [r7, #8]
 8000240:	68bb      	ldr	r3, [r7, #8]
  __HAL_RCC_GPIOA_CLK_ENABLE();
 8000242:	4b08      	ldr	r3, [pc, #32]	; (8000264 <MX_GPIO_Init+0x58>)
 8000244:	699b      	ldr	r3, [r3, #24]
 8000246:	4a07      	ldr	r2, [pc, #28]	; (8000264 <MX_GPIO_Init+0x58>)
 8000248:	f043 0304 	orr.w	r3, r3, #4
 800024c:	6193      	str	r3, [r2, #24]
 800024e:	4b05      	ldr	r3, [pc, #20]	; (8000264 <MX_GPIO_Init+0x58>)
 8000250:	699b      	ldr	r3, [r3, #24]
 8000252:	f003 0304 	and.w	r3, r3, #4
 8000256:	607b      	str	r3, [r7, #4]
 8000258:	687b      	ldr	r3, [r7, #4]

}
 800025a:	bf00      	nop
 800025c:	3714      	adds	r7, #20
 800025e:	46bd      	mov	sp, r7
 8000260:	bc80      	pop	{r7}
 8000262:	4770      	bx	lr
 8000264:	40021000 	.word	0x40021000

08000268 <Error_Handler>:
/**
  * @brief  This function is executed in case of error occurrence.
  * @retval None
  */
void Error_Handler(void)
{
 8000268:	b480      	push	{r7}
 800026a:	af00      	add	r7, sp, #0
  \details Disables IRQ interrupts by setting the I-bit in the CPSR.
           Can only be executed in Privileged modes.
 */
__STATIC_FORCEINLINE void __disable_irq(void)
{
  __ASM volatile ("cpsid i" : : : "memory");
 800026c:	b672      	cpsid	i
}
 800026e:	bf00      	nop
  /* USER CODE BEGIN Error_Handler_Debug */
  /* User can add his own implementation to report the HAL error return state */
  __disable_irq();
  while (1)
 8000270:	e7fe      	b.n	8000270 <Error_Handler+0x8>
	...

08000274 <HAL_MspInit>:
/* USER CODE END 0 */
/**
  * Initializes the Global MSP.
  */
void HAL_MspInit(void)
{
 8000274:	b480      	push	{r7}
 8000276:	b085      	sub	sp, #20
 8000278:	af00      	add	r7, sp, #0
  /* USER CODE BEGIN MspInit 0 */

  /* USER CODE END MspInit 0 */

  __HAL_RCC_AFIO_CLK_ENABLE();
 800027a:	4b15      	ldr	r3, [pc, #84]	; (80002d0 <HAL_MspInit+0x5c>)
 800027c:	699b      	ldr	r3, [r3, #24]
 800027e:	4a14      	ldr	r2, [pc, #80]	; (80002d0 <HAL_MspInit+0x5c>)
 8000280:	f043 0301 	orr.w	r3, r3, #1
 8000284:	6193      	str	r3, [r2, #24]
 8000286:	4b12      	ldr	r3, [pc, #72]	; (80002d0 <HAL_MspInit+0x5c>)
 8000288:	699b      	ldr	r3, [r3, #24]
 800028a:	f003 0301 	and.w	r3, r3, #1
 800028e:	60bb      	str	r3, [r7, #8]
 8000290:	68bb      	ldr	r3, [r7, #8]
  __HAL_RCC_PWR_CLK_ENABLE();
 8000292:	4b0f      	ldr	r3, [pc, #60]	; (80002d0 <HAL_MspInit+0x5c>)
 8000294:	69db      	ldr	r3, [r3, #28]
 8000296:	4a0e      	ldr	r2, [pc, #56]	; (80002d0 <HAL_MspInit+0x5c>)
 8000298:	f043 5380 	orr.w	r3, r3, #268435456	; 0x10000000
 800029c:	61d3      	str	r3, [r2, #28]
 800029e:	4b0c      	ldr	r3, [pc, #48]	; (80002d0 <HAL_MspInit+0x5c>)
 80002a0:	69db      	ldr	r3, [r3, #28]
 80002a2:	f003 5380 	and.w	r3, r3, #268435456	; 0x10000000
 80002a6:	607b      	str	r3, [r7, #4]
 80002a8:	687b      	ldr	r3, [r7, #4]

  /* System interrupt init*/

  /** NOJTAG: JTAG-DP Disabled and SW-DP Enabled
  */
  __HAL_AFIO_REMAP_SWJ_NOJTAG();
 80002aa:	4b0a      	ldr	r3, [pc, #40]	; (80002d4 <HAL_MspInit+0x60>)
 80002ac:	685b      	ldr	r3, [r3, #4]
 80002ae:	60fb      	str	r3, [r7, #12]
 80002b0:	68fb      	ldr	r3, [r7, #12]
 80002b2:	f023 63e0 	bic.w	r3, r3, #117440512	; 0x7000000
 80002b6:	60fb      	str	r3, [r7, #12]
 80002b8:	68fb      	ldr	r3, [r7, #12]
 80002ba:	f043 7300 	orr.w	r3, r3, #33554432	; 0x2000000
 80002be:	60fb      	str	r3, [r7, #12]
 80002c0:	4a04      	ldr	r2, [pc, #16]	; (80002d4 <HAL_MspInit+0x60>)
 80002c2:	68fb      	ldr	r3, [r7, #12]
 80002c4:	6053      	str	r3, [r2, #4]

  /* USER CODE BEGIN MspInit 1 */

  /* USER CODE END MspInit 1 */
}
 80002c6:	bf00      	nop
 80002c8:	3714      	adds	r7, #20
 80002ca:	46bd      	mov	sp, r7
 80002cc:	bc80      	pop	{r7}
 80002ce:	4770      	bx	lr
 80002d0:	40021000 	.word	0x40021000
 80002d4:	40010000 	.word	0x40010000

080002d8 <NMI_Handler>:
/******************************************************************************/
/**
  * @brief This function handles Non maskable interrupt.
  */
void NMI_Handler(void)
{
 80002d8:	b480      	push	{r7}
 80002da:	af00      	add	r7, sp, #0
  /* USER CODE BEGIN NonMaskableInt_IRQn 0 */

  /* USER CODE END NonMaskableInt_IRQn 0 */
  /* USER CODE BEGIN NonMaskableInt_IRQn 1 */
  while (1)
 80002dc:	e7fe      	b.n	80002dc <NMI_Handler+0x4>

080002de <HardFault_Handler>:

/**
  * @brief This function handles Hard fault interrupt.
  */
void HardFault_Handler(void)
{
 80002de:	b480      	push	{r7}
 80002e0:	af00      	add	r7, sp, #0
  /* USER CODE BEGIN HardFault_IRQn 0 */

  /* USER CODE END HardFault_IRQn 0 */
  while (1)
 80002e2:	e7fe      	b.n	80002e2 <HardFault_Handler+0x4>

080002e4 <MemManage_Handler>:

/**
  * @brief This function handles Memory management fault.
  */
void MemManage_Handler(void)
{
 80002e4:	b480      	push	{r7}
 80002e6:	af00      	add	r7, sp, #0
  /* USER CODE BEGIN MemoryManagement_IRQn 0 */

  /* USER CODE END MemoryManagement_IRQn 0 */
  while (1)
 80002e8:	e7fe      	b.n	80002e8 <MemManage_Handler+0x4>

080002ea <BusFault_Handler>:

/**
  * @brief This function handles Prefetch fault, memory access fault.
  */
void BusFault_Handler(void)
{
 80002ea:	b480      	push	{r7}
 80002ec:	af00      	add	r7, sp, #0
  /* USER CODE BEGIN BusFault_IRQn 0 */

  /* USER CODE END BusFault_IRQn 0 */
  while (1)
 80002ee:	e7fe      	b.n	80002ee <BusFault_Handler+0x4>

080002f0 <UsageFault_Handler>:

/**
  * @brief This function handles Undefined instruction or illegal state.
  */
void UsageFault_Handler(void)
{
 80002f0:	b480      	push	{r7}
 80002f2:	af00      	add	r7, sp, #0
  /* USER CODE BEGIN UsageFault_IRQn 0 */

  /* USER CODE END UsageFault_IRQn 0 */
  while (1)
 80002f4:	e7fe      	b.n	80002f4 <UsageFault_Handler+0x4>

080002f6 <SVC_Handler>:

/**
  * @brief This function handles System service call via SWI instruction.
  */
void SVC_Handler(void)
{
 80002f6:	b480      	push	{r7}
 80002f8:	af00      	add	r7, sp, #0

  /* USER CODE END SVCall_IRQn 0 */
  /* USER CODE BEGIN SVCall_IRQn 1 */

  /* USER CODE END SVCall_IRQn 1 */
}
 80002fa:	bf00      	nop
 80002fc:	46bd      	mov	sp, r7
 80002fe:	bc80      	pop	{r7}
 8000300:	4770      	bx	lr

08000302 <DebugMon_Handler>:

/**
  * @brief This function handles Debug monitor.
  */
void DebugMon_Handler(void)
{
 8000302:	b480      	push	{r7}
 8000304:	af00      	add	r7, sp, #0

  /* USER CODE END DebugMonitor_IRQn 0 */
  /* USER CODE BEGIN DebugMonitor_IRQn 1 */

  /* USER CODE END DebugMonitor_IRQn 1 */
}
 8000306:	bf00      	nop
 8000308:	46bd      	mov	sp, r7
 800030a:	bc80      	pop	{r7}
 800030c:	4770      	bx	lr

0800030e <PendSV_Handler>:

/**
  * @brief This function handles Pendable request for system service.
  */
void PendSV_Handler(void)
{
 800030e:	b480      	push	{r7}
 8000310:	af00      	add	r7, sp, #0

  /* USER CODE END PendSV_IRQn 0 */
  /* USER CODE BEGIN PendSV_IRQn 1 */

  /* USER CODE END PendSV_IRQn 1 */
}
 8000312:	bf00      	nop
 8000314:	46bd      	mov	sp, r7
 8000316:	bc80      	pop	{r7}
 8000318:	4770      	bx	lr

0800031a <SysTick_Handler>:

/**
  * @brief This function handles System tick timer.
  */
void SysTick_Handler(void)
{
 800031a:	b580      	push	{r7, lr}
 800031c:	af00      	add	r7, sp, #0
  /* USER CODE BEGIN SysTick_IRQn 0 */

  /* USER CODE END SysTick_IRQn 0 */
  HAL_IncTick();
 800031e:	f000 f875 	bl	800040c <HAL_IncTick>
  /* USER CODE BEGIN SysTick_IRQn 1 */

  /* USER CODE END SysTick_IRQn 1 */
}
 8000322:	bf00      	nop
 8000324:	bd80      	pop	{r7, pc}

08000326 <SystemInit>:
  * @note   This function should be used only after reset.
  * @param  None
  * @retval None
  */
void SystemInit (void)
{
 8000326:	b480      	push	{r7}
 8000328:	af00      	add	r7, sp, #0

  /* Configure the Vector Table location -------------------------------------*/
#if defined(USER_VECT_TAB_ADDRESS)
  SCB->VTOR = VECT_TAB_BASE_ADDRESS | VECT_TAB_OFFSET; /* Vector Table Relocation in Internal SRAM. */
#endif /* USER_VECT_TAB_ADDRESS */
}
 800032a:	bf00      	nop
 800032c:	46bd      	mov	sp, r7
 800032e:	bc80      	pop	{r7}
 8000330:	4770      	bx	lr
	...

08000334 <Reset_Handler>:
  .weak Reset_Handler
  .type Reset_Handler, %function
Reset_Handler:

/* Copy the data segment initializers from flash to SRAM */
  ldr r0, =_sdata
 8000334:	480c      	ldr	r0, [pc, #48]	; (8000368 <LoopFillZerobss+0x12>)
  ldr r1, =_edata
 8000336:	490d      	ldr	r1, [pc, #52]	; (800036c <LoopFillZerobss+0x16>)
  ldr r2, =_sidata
 8000338:	4a0d      	ldr	r2, [pc, #52]	; (8000370 <LoopFillZerobss+0x1a>)
  movs r3, #0
 800033a:	2300      	movs	r3, #0
  b LoopCopyDataInit
 800033c:	e002      	b.n	8000344 <LoopCopyDataInit>

0800033e <CopyDataInit>:

CopyDataInit:
  ldr r4, [r2, r3]
 800033e:	58d4      	ldr	r4, [r2, r3]
  str r4, [r0, r3]
 8000340:	50c4      	str	r4, [r0, r3]
  adds r3, r3, #4
 8000342:	3304      	adds	r3, #4

08000344 <LoopCopyDataInit>:

LoopCopyDataInit:
  adds r4, r0, r3
 8000344:	18c4      	adds	r4, r0, r3
  cmp r4, r1
 8000346:	428c      	cmp	r4, r1
  bcc CopyDataInit
 8000348:	d3f9      	bcc.n	800033e <CopyDataInit>
  
/* Zero fill the bss segment. */
  ldr r2, =_sbss
 800034a:	4a0a      	ldr	r2, [pc, #40]	; (8000374 <LoopFillZerobss+0x1e>)
  ldr r4, =_ebss
 800034c:	4c0a      	ldr	r4, [pc, #40]	; (8000378 <LoopFillZerobss+0x22>)
  movs r3, #0
 800034e:	2300      	movs	r3, #0
  b LoopFillZerobss
 8000350:	e001      	b.n	8000356 <LoopFillZerobss>

08000352 <FillZerobss>:

FillZerobss:
  str  r3, [r2]
 8000352:	6013      	str	r3, [r2, #0]
  adds r2, r2, #4
 8000354:	3204      	adds	r2, #4

08000356 <LoopFillZerobss>:

LoopFillZerobss:
  cmp r2, r4
 8000356:	42a2      	cmp	r2, r4
  bcc FillZerobss
 8000358:	d3fb      	bcc.n	8000352 <FillZerobss>

/* Call the clock system intitialization function.*/
    bl  SystemInit
 800035a:	f7ff ffe4 	bl	8000326 <SystemInit>
/* Call static constructors */
    bl __libc_init_array
 800035e:	f000 fd3d 	bl	8000ddc <__libc_init_array>
/* Call the application's entry point.*/
  bl main
 8000362:	f7ff ff03 	bl	800016c <main>
  bx lr
 8000366:	4770      	bx	lr
  ldr r0, =_sdata
 8000368:	20000000 	.word	0x20000000
  ldr r1, =_edata
 800036c:	20000020 	.word	0x20000020
  ldr r2, =_sidata
 8000370:	08000e74 	.word	0x08000e74
  ldr r2, =_sbss
 8000374:	20000020 	.word	0x20000020
  ldr r4, =_ebss
 8000378:	20000044 	.word	0x20000044

0800037c <ADC1_2_IRQHandler>:
 * @retval : None
*/
    .section .text.Default_Handler,"ax",%progbits
Default_Handler:
Infinite_Loop:
  b Infinite_Loop
 800037c:	e7fe      	b.n	800037c <ADC1_2_IRQHandler>
	...

08000380 <HAL_Init>:
  *         need to ensure that the SysTick time base is always set to 1 millisecond
  *         to have correct HAL operation.
  * @retval HAL status
  */
HAL_StatusTypeDef HAL_Init(void)
{
 8000380:	b580      	push	{r7, lr}
 8000382:	af00      	add	r7, sp, #0
    defined(STM32F102x6) || defined(STM32F102xB) || \
    defined(STM32F103x6) || defined(STM32F103xB) || defined(STM32F103xE) || defined(STM32F103xG) || \
    defined(STM32F105xC) || defined(STM32F107xC)

  /* Prefetch buffer is not available on value line devices */
  __HAL_FLASH_PREFETCH_BUFFER_ENABLE();
 8000384:	4b08      	ldr	r3, [pc, #32]	; (80003a8 <HAL_Init+0x28>)
 8000386:	681b      	ldr	r3, [r3, #0]
 8000388:	4a07      	ldr	r2, [pc, #28]	; (80003a8 <HAL_Init+0x28>)
 800038a:	f043 0310 	orr.w	r3, r3, #16
 800038e:	6013      	str	r3, [r2, #0]
#endif
#endif /* PREFETCH_ENABLE */

  /* Set Interrupt Group Priority */
  HAL_NVIC_SetPriorityGrouping(NVIC_PRIORITYGROUP_4);
 8000390:	2003      	movs	r0, #3
 8000392:	f000 f907 	bl	80005a4 <HAL_NVIC_SetPriorityGrouping>

  /* Use systick as time base source and configure 1ms tick (default clock after Reset is HSI) */
  HAL_InitTick(TICK_INT_PRIORITY);
 8000396:	2000      	movs	r0, #0
 8000398:	f000 f808 	bl	80003ac <HAL_InitTick>

  /* Init the low level hardware */
  HAL_MspInit();
 800039c:	f7ff ff6a 	bl	8000274 <HAL_MspInit>

  /* Return function status */
  return HAL_OK;
 80003a0:	2300      	movs	r3, #0
}
 80003a2:	4618      	mov	r0, r3
 80003a4:	bd80      	pop	{r7, pc}
 80003a6:	bf00      	nop
 80003a8:	40022000 	.word	0x40022000

080003ac <HAL_InitTick>:
  *       implementation  in user file.
  * @param TickPriority Tick interrupt priority.
  * @retval HAL status
  */
__weak HAL_StatusTypeDef HAL_InitTick(uint32_t TickPriority)
{
 80003ac:	b580      	push	{r7, lr}
 80003ae:	b082      	sub	sp, #8
 80003b0:	af00      	add	r7, sp, #0
 80003b2:	6078      	str	r0, [r7, #4]
  /* Configure the SysTick to have interrupt in 1ms time basis*/
  if (HAL_SYSTICK_Config(SystemCoreClock / (1000U / uwTickFreq)) > 0U)
 80003b4:	4b12      	ldr	r3, [pc, #72]	; (8000400 <HAL_InitTick+0x54>)
 80003b6:	681a      	ldr	r2, [r3, #0]
 80003b8:	4b12      	ldr	r3, [pc, #72]	; (8000404 <HAL_InitTick+0x58>)
 80003ba:	781b      	ldrb	r3, [r3, #0]
 80003bc:	4619      	mov	r1, r3
 80003be:	f44f 737a 	mov.w	r3, #1000	; 0x3e8
 80003c2:	fbb3 f3f1 	udiv	r3, r3, r1
 80003c6:	fbb2 f3f3 	udiv	r3, r2, r3
 80003ca:	4618      	mov	r0, r3
 80003cc:	f000 f911 	bl	80005f2 <HAL_SYSTICK_Config>
 80003d0:	4603      	mov	r3, r0
 80003d2:	2b00      	cmp	r3, #0
 80003d4:	d001      	beq.n	80003da <HAL_InitTick+0x2e>
  {
    return HAL_ERROR;
 80003d6:	2301      	movs	r3, #1
 80003d8:	e00e      	b.n	80003f8 <HAL_InitTick+0x4c>
  }

  /* Configure the SysTick IRQ priority */
  if (TickPriority < (1UL << __NVIC_PRIO_BITS))
 80003da:	687b      	ldr	r3, [r7, #4]
 80003dc:	2b0f      	cmp	r3, #15
 80003de:	d80a      	bhi.n	80003f6 <HAL_InitTick+0x4a>
  {
    HAL_NVIC_SetPriority(SysTick_IRQn, TickPriority, 0U);
 80003e0:	2200      	movs	r2, #0
 80003e2:	6879      	ldr	r1, [r7, #4]
 80003e4:	f04f 30ff 	mov.w	r0, #4294967295	; 0xffffffff
 80003e8:	f000 f8e7 	bl	80005ba <HAL_NVIC_SetPriority>
    uwTickPrio = TickPriority;
 80003ec:	4a06      	ldr	r2, [pc, #24]	; (8000408 <HAL_InitTick+0x5c>)
 80003ee:	687b      	ldr	r3, [r7, #4]
 80003f0:	6013      	str	r3, [r2, #0]
  {
    return HAL_ERROR;
  }

  /* Return function status */
  return HAL_OK;
 80003f2:	2300      	movs	r3, #0
 80003f4:	e000      	b.n	80003f8 <HAL_InitTick+0x4c>
    return HAL_ERROR;
 80003f6:	2301      	movs	r3, #1
}
 80003f8:	4618      	mov	r0, r3
 80003fa:	3708      	adds	r7, #8
 80003fc:	46bd      	mov	sp, r7
 80003fe:	bd80      	pop	{r7, pc}
 8000400:	20000014 	.word	0x20000014
 8000404:	2000001c 	.word	0x2000001c
 8000408:	20000018 	.word	0x20000018

0800040c <HAL_IncTick>:
  * @note This function is declared as __weak to be overwritten in case of other
  *      implementations in user file.
  * @retval None
  */
__weak void HAL_IncTick(void)
{
 800040c:	b480      	push	{r7}
 800040e:	af00      	add	r7, sp, #0
  uwTick += uwTickFreq;
 8000410:	4b05      	ldr	r3, [pc, #20]	; (8000428 <HAL_IncTick+0x1c>)
 8000412:	781b      	ldrb	r3, [r3, #0]
 8000414:	461a      	mov	r2, r3
 8000416:	4b05      	ldr	r3, [pc, #20]	; (800042c <HAL_IncTick+0x20>)
 8000418:	681b      	ldr	r3, [r3, #0]
 800041a:	4413      	add	r3, r2
 800041c:	4a03      	ldr	r2, [pc, #12]	; (800042c <HAL_IncTick+0x20>)
 800041e:	6013      	str	r3, [r2, #0]
}
 8000420:	bf00      	nop
 8000422:	46bd      	mov	sp, r7
 8000424:	bc80      	pop	{r7}
 8000426:	4770      	bx	lr
 8000428:	2000001c 	.word	0x2000001c
 800042c:	20000040 	.word	0x20000040

08000430 <HAL_GetTick>:
  * @note  This function is declared as __weak to be overwritten in case of other
  *       implementations in user file.
  * @retval tick value
  */
__weak uint32_t HAL_GetTick(void)
{
 8000430:	b480      	push	{r7}
 8000432:	af00      	add	r7, sp, #0
  return uwTick;
 8000434:	4b02      	ldr	r3, [pc, #8]	; (8000440 <HAL_GetTick+0x10>)
 8000436:	681b      	ldr	r3, [r3, #0]
}
 8000438:	4618      	mov	r0, r3
 800043a:	46bd      	mov	sp, r7
 800043c:	bc80      	pop	{r7}
 800043e:	4770      	bx	lr
 8000440:	20000040 	.word	0x20000040

08000444 <__NVIC_SetPriorityGrouping>:
           In case of a conflict between priority grouping and available
           priority bits (__NVIC_PRIO_BITS), the smallest possible priority group is set.
  \param [in]      PriorityGroup  Priority grouping field.
 */
__STATIC_INLINE void __NVIC_SetPriorityGrouping(uint32_t PriorityGroup)
{
 8000444:	b480      	push	{r7}
 8000446:	b085      	sub	sp, #20
 8000448:	af00      	add	r7, sp, #0
 800044a:	6078      	str	r0, [r7, #4]
  uint32_t reg_value;
  uint32_t PriorityGroupTmp = (PriorityGroup & (uint32_t)0x07UL);             /* only values 0..7 are used          */
 800044c:	687b      	ldr	r3, [r7, #4]
 800044e:	f003 0307 	and.w	r3, r3, #7
 8000452:	60fb      	str	r3, [r7, #12]

  reg_value  =  SCB->AIRCR;                                                   /* read old register configuration    */
 8000454:	4b0c      	ldr	r3, [pc, #48]	; (8000488 <__NVIC_SetPriorityGrouping+0x44>)
 8000456:	68db      	ldr	r3, [r3, #12]
 8000458:	60bb      	str	r3, [r7, #8]
  reg_value &= ~((uint32_t)(SCB_AIRCR_VECTKEY_Msk | SCB_AIRCR_PRIGROUP_Msk)); /* clear bits to change               */
 800045a:	68ba      	ldr	r2, [r7, #8]
 800045c:	f64f 03ff 	movw	r3, #63743	; 0xf8ff
 8000460:	4013      	ands	r3, r2
 8000462:	60bb      	str	r3, [r7, #8]
  reg_value  =  (reg_value                                   |
                ((uint32_t)0x5FAUL << SCB_AIRCR_VECTKEY_Pos) |
                (PriorityGroupTmp << SCB_AIRCR_PRIGROUP_Pos) );               /* Insert write key and priority group */
 8000464:	68fb      	ldr	r3, [r7, #12]
 8000466:	021a      	lsls	r2, r3, #8
                ((uint32_t)0x5FAUL << SCB_AIRCR_VECTKEY_Pos) |
 8000468:	68bb      	ldr	r3, [r7, #8]
 800046a:	4313      	orrs	r3, r2
  reg_value  =  (reg_value                                   |
 800046c:	f043 63bf 	orr.w	r3, r3, #100139008	; 0x5f80000
 8000470:	f443 3300 	orr.w	r3, r3, #131072	; 0x20000
 8000474:	60bb      	str	r3, [r7, #8]
  SCB->AIRCR =  reg_value;
 8000476:	4a04      	ldr	r2, [pc, #16]	; (8000488 <__NVIC_SetPriorityGrouping+0x44>)
 8000478:	68bb      	ldr	r3, [r7, #8]
 800047a:	60d3      	str	r3, [r2, #12]
}
 800047c:	bf00      	nop
 800047e:	3714      	adds	r7, #20
 8000480:	46bd      	mov	sp, r7
 8000482:	bc80      	pop	{r7}
 8000484:	4770      	bx	lr
 8000486:	bf00      	nop
 8000488:	e000ed00 	.word	0xe000ed00

0800048c <__NVIC_GetPriorityGrouping>:
  \brief   Get Priority Grouping
  \details Reads the priority grouping field from the NVIC Interrupt Controller.
  \return                Priority grouping field (SCB->AIRCR [10:8] PRIGROUP field).
 */
__STATIC_INLINE uint32_t __NVIC_GetPriorityGrouping(void)
{
 800048c:	b480      	push	{r7}
 800048e:	af00      	add	r7, sp, #0
  return ((uint32_t)((SCB->AIRCR & SCB_AIRCR_PRIGROUP_Msk) >> SCB_AIRCR_PRIGROUP_Pos));
 8000490:	4b04      	ldr	r3, [pc, #16]	; (80004a4 <__NVIC_GetPriorityGrouping+0x18>)
 8000492:	68db      	ldr	r3, [r3, #12]
 8000494:	0a1b      	lsrs	r3, r3, #8
 8000496:	f003 0307 	and.w	r3, r3, #7
}
 800049a:	4618      	mov	r0, r3
 800049c:	46bd      	mov	sp, r7
 800049e:	bc80      	pop	{r7}
 80004a0:	4770      	bx	lr
 80004a2:	bf00      	nop
 80004a4:	e000ed00 	.word	0xe000ed00

080004a8 <__NVIC_SetPriority>:
  \param [in]      IRQn  Interrupt number.
  \param [in]  priority  Priority to set.
  \note    The priority cannot be set for every processor exception.
 */
__STATIC_INLINE void __NVIC_SetPriority(IRQn_Type IRQn, uint32_t priority)
{
 80004a8:	b480      	push	{r7}
 80004aa:	b083      	sub	sp, #12
 80004ac:	af00      	add	r7, sp, #0
 80004ae:	4603      	mov	r3, r0
 80004b0:	6039      	str	r1, [r7, #0]
 80004b2:	71fb      	strb	r3, [r7, #7]
  if ((int32_t)(IRQn) >= 0)
 80004b4:	f997 3007 	ldrsb.w	r3, [r7, #7]
 80004b8:	2b00      	cmp	r3, #0
 80004ba:	db0a      	blt.n	80004d2 <__NVIC_SetPriority+0x2a>
  {
    NVIC->IP[((uint32_t)IRQn)]               = (uint8_t)((priority << (8U - __NVIC_PRIO_BITS)) & (uint32_t)0xFFUL);
 80004bc:	683b      	ldr	r3, [r7, #0]
 80004be:	b2da      	uxtb	r2, r3
 80004c0:	490c      	ldr	r1, [pc, #48]	; (80004f4 <__NVIC_SetPriority+0x4c>)
 80004c2:	f997 3007 	ldrsb.w	r3, [r7, #7]
 80004c6:	0112      	lsls	r2, r2, #4
 80004c8:	b2d2      	uxtb	r2, r2
 80004ca:	440b      	add	r3, r1
 80004cc:	f883 2300 	strb.w	r2, [r3, #768]	; 0x300
  }
  else
  {
    SCB->SHP[(((uint32_t)IRQn) & 0xFUL)-4UL] = (uint8_t)((priority << (8U - __NVIC_PRIO_BITS)) & (uint32_t)0xFFUL);
  }
}
 80004d0:	e00a      	b.n	80004e8 <__NVIC_SetPriority+0x40>
    SCB->SHP[(((uint32_t)IRQn) & 0xFUL)-4UL] = (uint8_t)((priority << (8U - __NVIC_PRIO_BITS)) & (uint32_t)0xFFUL);
 80004d2:	683b      	ldr	r3, [r7, #0]
 80004d4:	b2da      	uxtb	r2, r3
 80004d6:	4908      	ldr	r1, [pc, #32]	; (80004f8 <__NVIC_SetPriority+0x50>)
 80004d8:	79fb      	ldrb	r3, [r7, #7]
 80004da:	f003 030f 	and.w	r3, r3, #15
 80004de:	3b04      	subs	r3, #4
 80004e0:	0112      	lsls	r2, r2, #4
 80004e2:	b2d2      	uxtb	r2, r2
 80004e4:	440b      	add	r3, r1
 80004e6:	761a      	strb	r2, [r3, #24]
}
 80004e8:	bf00      	nop
 80004ea:	370c      	adds	r7, #12
 80004ec:	46bd      	mov	sp, r7
 80004ee:	bc80      	pop	{r7}
 80004f0:	4770      	bx	lr
 80004f2:	bf00      	nop
 80004f4:	e000e100 	.word	0xe000e100
 80004f8:	e000ed00 	.word	0xe000ed00

080004fc <NVIC_EncodePriority>:
  \param [in]   PreemptPriority  Preemptive priority value (starting from 0).
  \param [in]       SubPriority  Subpriority value (starting from 0).
  \return                        Encoded priority. Value can be used in the function \ref NVIC_SetPriority().
 */
__STATIC_INLINE uint32_t NVIC_EncodePriority (uint32_t PriorityGroup, uint32_t PreemptPriority, uint32_t SubPriority)
{
 80004fc:	b480      	push	{r7}
 80004fe:	b089      	sub	sp, #36	; 0x24
 8000500:	af00      	add	r7, sp, #0
 8000502:	60f8      	str	r0, [r7, #12]
 8000504:	60b9      	str	r1, [r7, #8]
 8000506:	607a      	str	r2, [r7, #4]
  uint32_t PriorityGroupTmp = (PriorityGroup & (uint32_t)0x07UL);   /* only values 0..7 are used          */
 8000508:	68fb      	ldr	r3, [r7, #12]
 800050a:	f003 0307 	and.w	r3, r3, #7
 800050e:	61fb      	str	r3, [r7, #28]
  uint32_t PreemptPriorityBits;
  uint32_t SubPriorityBits;

  PreemptPriorityBits = ((7UL - PriorityGroupTmp) > (uint32_t)(__NVIC_PRIO_BITS)) ? (uint32_t)(__NVIC_PRIO_BITS) : (uint32_t)(7UL - PriorityGroupTmp);
 8000510:	69fb      	ldr	r3, [r7, #28]
 8000512:	f1c3 0307 	rsb	r3, r3, #7
 8000516:	2b04      	cmp	r3, #4
 8000518:	bf28      	it	cs
 800051a:	2304      	movcs	r3, #4
 800051c:	61bb      	str	r3, [r7, #24]
  SubPriorityBits     = ((PriorityGroupTmp + (uint32_t)(__NVIC_PRIO_BITS)) < (uint32_t)7UL) ? (uint32_t)0UL : (uint32_t)((PriorityGroupTmp - 7UL) + (uint32_t)(__NVIC_PRIO_BITS));
 800051e:	69fb      	ldr	r3, [r7, #28]
 8000520:	3304      	adds	r3, #4
 8000522:	2b06      	cmp	r3, #6
 8000524:	d902      	bls.n	800052c <NVIC_EncodePriority+0x30>
 8000526:	69fb      	ldr	r3, [r7, #28]
 8000528:	3b03      	subs	r3, #3
 800052a:	e000      	b.n	800052e <NVIC_EncodePriority+0x32>
 800052c:	2300      	movs	r3, #0
 800052e:	617b      	str	r3, [r7, #20]

  return (
           ((PreemptPriority & (uint32_t)((1UL << (PreemptPriorityBits)) - 1UL)) << SubPriorityBits) |
 8000530:	f04f 32ff 	mov.w	r2, #4294967295	; 0xffffffff
 8000534:	69bb      	ldr	r3, [r7, #24]
 8000536:	fa02 f303 	lsl.w	r3, r2, r3
 800053a:	43da      	mvns	r2, r3
 800053c:	68bb      	ldr	r3, [r7, #8]
 800053e:	401a      	ands	r2, r3
 8000540:	697b      	ldr	r3, [r7, #20]
 8000542:	409a      	lsls	r2, r3
           ((SubPriority     & (uint32_t)((1UL << (SubPriorityBits    )) - 1UL)))
 8000544:	f04f 31ff 	mov.w	r1, #4294967295	; 0xffffffff
 8000548:	697b      	ldr	r3, [r7, #20]
 800054a:	fa01 f303 	lsl.w	r3, r1, r3
 800054e:	43d9      	mvns	r1, r3
 8000550:	687b      	ldr	r3, [r7, #4]
 8000552:	400b      	ands	r3, r1
           ((PreemptPriority & (uint32_t)((1UL << (PreemptPriorityBits)) - 1UL)) << SubPriorityBits) |
 8000554:	4313      	orrs	r3, r2
         );
}
 8000556:	4618      	mov	r0, r3
 8000558:	3724      	adds	r7, #36	; 0x24
 800055a:	46bd      	mov	sp, r7
 800055c:	bc80      	pop	{r7}
 800055e:	4770      	bx	lr

08000560 <SysTick_Config>:
  \note    When the variable <b>__Vendor_SysTickConfig</b> is set to 1, then the
           function <b>SysTick_Config</b> is not included. In this case, the file <b><i>device</i>.h</b>
           must contain a vendor-specific implementation of this function.
 */
__STATIC_INLINE uint32_t SysTick_Config(uint32_t ticks)
{
 8000560:	b580      	push	{r7, lr}
 8000562:	b082      	sub	sp, #8
 8000564:	af00      	add	r7, sp, #0
 8000566:	6078      	str	r0, [r7, #4]
  if ((ticks - 1UL) > SysTick_LOAD_RELOAD_Msk)
 8000568:	687b      	ldr	r3, [r7, #4]
 800056a:	3b01      	subs	r3, #1
 800056c:	f1b3 7f80 	cmp.w	r3, #16777216	; 0x1000000
 8000570:	d301      	bcc.n	8000576 <SysTick_Config+0x16>
  {
    return (1UL);                                                   /* Reload value impossible */
 8000572:	2301      	movs	r3, #1
 8000574:	e00f      	b.n	8000596 <SysTick_Config+0x36>
  }

  SysTick->LOAD  = (uint32_t)(ticks - 1UL);                         /* set reload register */
 8000576:	4a0a      	ldr	r2, [pc, #40]	; (80005a0 <SysTick_Config+0x40>)
 8000578:	687b      	ldr	r3, [r7, #4]
 800057a:	3b01      	subs	r3, #1
 800057c:	6053      	str	r3, [r2, #4]
  NVIC_SetPriority (SysTick_IRQn, (1UL << __NVIC_PRIO_BITS) - 1UL); /* set Priority for Systick Interrupt */
 800057e:	210f      	movs	r1, #15
 8000580:	f04f 30ff 	mov.w	r0, #4294967295	; 0xffffffff
 8000584:	f7ff ff90 	bl	80004a8 <__NVIC_SetPriority>
  SysTick->VAL   = 0UL;                                             /* Load the SysTick Counter Value */
 8000588:	4b05      	ldr	r3, [pc, #20]	; (80005a0 <SysTick_Config+0x40>)
 800058a:	2200      	movs	r2, #0
 800058c:	609a      	str	r2, [r3, #8]
  SysTick->CTRL  = SysTick_CTRL_CLKSOURCE_Msk |
 800058e:	4b04      	ldr	r3, [pc, #16]	; (80005a0 <SysTick_Config+0x40>)
 8000590:	2207      	movs	r2, #7
 8000592:	601a      	str	r2, [r3, #0]
                   SysTick_CTRL_TICKINT_Msk   |
                   SysTick_CTRL_ENABLE_Msk;                         /* Enable SysTick IRQ and SysTick Timer */
  return (0UL);                                                     /* Function successful */
 8000594:	2300      	movs	r3, #0
}
 8000596:	4618      	mov	r0, r3
 8000598:	3708      	adds	r7, #8
 800059a:	46bd      	mov	sp, r7
 800059c:	bd80      	pop	{r7, pc}
 800059e:	bf00      	nop
 80005a0:	e000e010 	.word	0xe000e010

080005a4 <HAL_NVIC_SetPriorityGrouping>:
  * @note   When the NVIC_PriorityGroup_0 is selected, IRQ preemption is no more possible. 
  *         The pending IRQ priority will be managed only by the subpriority. 
  * @retval None
  */
void HAL_NVIC_SetPriorityGrouping(uint32_t PriorityGroup)
{
 80005a4:	b580      	push	{r7, lr}
 80005a6:	b082      	sub	sp, #8
 80005a8:	af00      	add	r7, sp, #0
 80005aa:	6078      	str	r0, [r7, #4]
  /* Check the parameters */
  assert_param(IS_NVIC_PRIORITY_GROUP(PriorityGroup));
  
  /* Set the PRIGROUP[10:8] bits according to the PriorityGroup parameter value */
  NVIC_SetPriorityGrouping(PriorityGroup);
 80005ac:	6878      	ldr	r0, [r7, #4]
 80005ae:	f7ff ff49 	bl	8000444 <__NVIC_SetPriorityGrouping>
}
 80005b2:	bf00      	nop
 80005b4:	3708      	adds	r7, #8
 80005b6:	46bd      	mov	sp, r7
 80005b8:	bd80      	pop	{r7, pc}

080005ba <HAL_NVIC_SetPriority>:
  *         This parameter can be a value between 0 and 15
  *         A lower priority value indicates a higher priority.          
  * @retval None
  */
void HAL_NVIC_SetPriority(IRQn_Type IRQn, uint32_t PreemptPriority, uint32_t SubPriority)
{ 
 80005ba:	b580      	push	{r7, lr}
 80005bc:	b086      	sub	sp, #24
 80005be:	af00      	add	r7, sp, #0
 80005c0:	4603      	mov	r3, r0
 80005c2:	60b9      	str	r1, [r7, #8]
 80005c4:	607a      	str	r2, [r7, #4]
 80005c6:	73fb      	strb	r3, [r7, #15]
  uint32_t prioritygroup = 0x00U;
 80005c8:	2300      	movs	r3, #0
 80005ca:	617b      	str	r3, [r7, #20]
  
  /* Check the parameters */
  assert_param(IS_NVIC_SUB_PRIORITY(SubPriority));
  assert_param(IS_NVIC_PREEMPTION_PRIORITY(PreemptPriority));
  
  prioritygroup = NVIC_GetPriorityGrouping();
 80005cc:	f7ff ff5e 	bl	800048c <__NVIC_GetPriorityGrouping>
 80005d0:	6178      	str	r0, [r7, #20]
  
  NVIC_SetPriority(IRQn, NVIC_EncodePriority(prioritygroup, PreemptPriority, SubPriority));
 80005d2:	687a      	ldr	r2, [r7, #4]
 80005d4:	68b9      	ldr	r1, [r7, #8]
 80005d6:	6978      	ldr	r0, [r7, #20]
 80005d8:	f7ff ff90 	bl	80004fc <NVIC_EncodePriority>
 80005dc:	4602      	mov	r2, r0
 80005de:	f997 300f 	ldrsb.w	r3, [r7, #15]
 80005e2:	4611      	mov	r1, r2
 80005e4:	4618      	mov	r0, r3
 80005e6:	f7ff ff5f 	bl	80004a8 <__NVIC_SetPriority>
}
 80005ea:	bf00      	nop
 80005ec:	3718      	adds	r7, #24
 80005ee:	46bd      	mov	sp, r7
 80005f0:	bd80      	pop	{r7, pc}

080005f2 <HAL_SYSTICK_Config>:
  * @param  TicksNumb: Specifies the ticks Number of ticks between two interrupts.
  * @retval status:  - 0  Function succeeded.
  *                  - 1  Function failed.
  */
uint32_t HAL_SYSTICK_Config(uint32_t TicksNumb)
{
 80005f2:	b580      	push	{r7, lr}
 80005f4:	b082      	sub	sp, #8
 80005f6:	af00      	add	r7, sp, #0
 80005f8:	6078      	str	r0, [r7, #4]
   return SysTick_Config(TicksNumb);
 80005fa:	6878      	ldr	r0, [r7, #4]
 80005fc:	f7ff ffb0 	bl	8000560 <SysTick_Config>
 8000600:	4603      	mov	r3, r0
}
 8000602:	4618      	mov	r0, r3
 8000604:	3708      	adds	r7, #8
 8000606:	46bd      	mov	sp, r7
 8000608:	bd80      	pop	{r7, pc}
	...

0800060c <HAL_RCC_OscConfig>:
  *         supported by this macro. User should request a transition to HSE Off
  *         first and then HSE On or HSE Bypass.
  * @retval HAL status
  */
HAL_StatusTypeDef HAL_RCC_OscConfig(RCC_OscInitTypeDef  *RCC_OscInitStruct)
{
 800060c:	b580      	push	{r7, lr}
 800060e:	b086      	sub	sp, #24
 8000610:	af00      	add	r7, sp, #0
 8000612:	6078      	str	r0, [r7, #4]
  uint32_t tickstart;
  uint32_t pll_config;

  /* Check Null pointer */
  if (RCC_OscInitStruct == NULL)
 8000614:	687b      	ldr	r3, [r7, #4]
 8000616:	2b00      	cmp	r3, #0
 8000618:	d101      	bne.n	800061e <HAL_RCC_OscConfig+0x12>
  {
    return HAL_ERROR;
 800061a:	2301      	movs	r3, #1
 800061c:	e26c      	b.n	8000af8 <HAL_RCC_OscConfig+0x4ec>

  /* Check the parameters */
  assert_param(IS_RCC_OSCILLATORTYPE(RCC_OscInitStruct->OscillatorType));

  /*------------------------------- HSE Configuration ------------------------*/
  if (((RCC_OscInitStruct->OscillatorType) & RCC_OSCILLATORTYPE_HSE) == RCC_OSCILLATORTYPE_HSE)
 800061e:	687b      	ldr	r3, [r7, #4]
 8000620:	681b      	ldr	r3, [r3, #0]
 8000622:	f003 0301 	and.w	r3, r3, #1
 8000626:	2b00      	cmp	r3, #0
 8000628:	f000 8087 	beq.w	800073a <HAL_RCC_OscConfig+0x12e>
  {
    /* Check the parameters */
    assert_param(IS_RCC_HSE(RCC_OscInitStruct->HSEState));

    /* When the HSE is used as system clock or clock source for PLL in these cases it is not allowed to be disabled */
    if ((__HAL_RCC_GET_SYSCLK_SOURCE() == RCC_SYSCLKSOURCE_STATUS_HSE)
 800062c:	4b92      	ldr	r3, [pc, #584]	; (8000878 <HAL_RCC_OscConfig+0x26c>)
 800062e:	685b      	ldr	r3, [r3, #4]
 8000630:	f003 030c 	and.w	r3, r3, #12
 8000634:	2b04      	cmp	r3, #4
 8000636:	d00c      	beq.n	8000652 <HAL_RCC_OscConfig+0x46>
        || ((__HAL_RCC_GET_SYSCLK_SOURCE() == RCC_SYSCLKSOURCE_STATUS_PLLCLK) && (__HAL_RCC_GET_PLL_OSCSOURCE() == RCC_PLLSOURCE_HSE)))
 8000638:	4b8f      	ldr	r3, [pc, #572]	; (8000878 <HAL_RCC_OscConfig+0x26c>)
 800063a:	685b      	ldr	r3, [r3, #4]
 800063c:	f003 030c 	and.w	r3, r3, #12
 8000640:	2b08      	cmp	r3, #8
 8000642:	d112      	bne.n	800066a <HAL_RCC_OscConfig+0x5e>
 8000644:	4b8c      	ldr	r3, [pc, #560]	; (8000878 <HAL_RCC_OscConfig+0x26c>)
 8000646:	685b      	ldr	r3, [r3, #4]
 8000648:	f403 3380 	and.w	r3, r3, #65536	; 0x10000
 800064c:	f5b3 3f80 	cmp.w	r3, #65536	; 0x10000
 8000650:	d10b      	bne.n	800066a <HAL_RCC_OscConfig+0x5e>
    {
      if ((__HAL_RCC_GET_FLAG(RCC_FLAG_HSERDY) != RESET) && (RCC_OscInitStruct->HSEState == RCC_HSE_OFF))
 8000652:	4b89      	ldr	r3, [pc, #548]	; (8000878 <HAL_RCC_OscConfig+0x26c>)
 8000654:	681b      	ldr	r3, [r3, #0]
 8000656:	f403 3300 	and.w	r3, r3, #131072	; 0x20000
 800065a:	2b00      	cmp	r3, #0
 800065c:	d06c      	beq.n	8000738 <HAL_RCC_OscConfig+0x12c>
 800065e:	687b      	ldr	r3, [r7, #4]
 8000660:	685b      	ldr	r3, [r3, #4]
 8000662:	2b00      	cmp	r3, #0
 8000664:	d168      	bne.n	8000738 <HAL_RCC_OscConfig+0x12c>
      {
        return HAL_ERROR;
 8000666:	2301      	movs	r3, #1
 8000668:	e246      	b.n	8000af8 <HAL_RCC_OscConfig+0x4ec>
      }
    }
    else
    {
      /* Set the new HSE configuration ---------------------------------------*/
      __HAL_RCC_HSE_CONFIG(RCC_OscInitStruct->HSEState);
 800066a:	687b      	ldr	r3, [r7, #4]
 800066c:	685b      	ldr	r3, [r3, #4]
 800066e:	f5b3 3f80 	cmp.w	r3, #65536	; 0x10000
 8000672:	d106      	bne.n	8000682 <HAL_RCC_OscConfig+0x76>
 8000674:	4b80      	ldr	r3, [pc, #512]	; (8000878 <HAL_RCC_OscConfig+0x26c>)
 8000676:	681b      	ldr	r3, [r3, #0]
 8000678:	4a7f      	ldr	r2, [pc, #508]	; (8000878 <HAL_RCC_OscConfig+0x26c>)
 800067a:	f443 3380 	orr.w	r3, r3, #65536	; 0x10000
 800067e:	6013      	str	r3, [r2, #0]
 8000680:	e02e      	b.n	80006e0 <HAL_RCC_OscConfig+0xd4>
 8000682:	687b      	ldr	r3, [r7, #4]
 8000684:	685b      	ldr	r3, [r3, #4]
 8000686:	2b00      	cmp	r3, #0
 8000688:	d10c      	bne.n	80006a4 <HAL_RCC_OscConfig+0x98>
 800068a:	4b7b      	ldr	r3, [pc, #492]	; (8000878 <HAL_RCC_OscConfig+0x26c>)
 800068c:	681b      	ldr	r3, [r3, #0]
 800068e:	4a7a      	ldr	r2, [pc, #488]	; (8000878 <HAL_RCC_OscConfig+0x26c>)
 8000690:	f423 3380 	bic.w	r3, r3, #65536	; 0x10000
 8000694:	6013      	str	r3, [r2, #0]
 8000696:	4b78      	ldr	r3, [pc, #480]	; (8000878 <HAL_RCC_OscConfig+0x26c>)
 8000698:	681b      	ldr	r3, [r3, #0]
 800069a:	4a77      	ldr	r2, [pc, #476]	; (8000878 <HAL_RCC_OscConfig+0x26c>)
 800069c:	f423 2380 	bic.w	r3, r3, #262144	; 0x40000
 80006a0:	6013      	str	r3, [r2, #0]
 80006a2:	e01d      	b.n	80006e0 <HAL_RCC_OscConfig+0xd4>
 80006a4:	687b      	ldr	r3, [r7, #4]
 80006a6:	685b      	ldr	r3, [r3, #4]
 80006a8:	f5b3 2fa0 	cmp.w	r3, #327680	; 0x50000
 80006ac:	d10c      	bne.n	80006c8 <HAL_RCC_OscConfig+0xbc>
 80006ae:	4b72      	ldr	r3, [pc, #456]	; (8000878 <HAL_RCC_OscConfig+0x26c>)
 80006b0:	681b      	ldr	r3, [r3, #0]
 80006b2:	4a71      	ldr	r2, [pc, #452]	; (8000878 <HAL_RCC_OscConfig+0x26c>)
 80006b4:	f443 2380 	orr.w	r3, r3, #262144	; 0x40000
 80006b8:	6013      	str	r3, [r2, #0]
 80006ba:	4b6f      	ldr	r3, [pc, #444]	; (8000878 <HAL_RCC_OscConfig+0x26c>)
 80006bc:	681b      	ldr	r3, [r3, #0]
 80006be:	4a6e      	ldr	r2, [pc, #440]	; (8000878 <HAL_RCC_OscConfig+0x26c>)
 80006c0:	f443 3380 	orr.w	r3, r3, #65536	; 0x10000
 80006c4:	6013      	str	r3, [r2, #0]
 80006c6:	e00b      	b.n	80006e0 <HAL_RCC_OscConfig+0xd4>
 80006c8:	4b6b      	ldr	r3, [pc, #428]	; (8000878 <HAL_RCC_OscConfig+0x26c>)
 80006ca:	681b      	ldr	r3, [r3, #0]
 80006cc:	4a6a      	ldr	r2, [pc, #424]	; (8000878 <HAL_RCC_OscConfig+0x26c>)
 80006ce:	f423 3380 	bic.w	r3, r3, #65536	; 0x10000
 80006d2:	6013      	str	r3, [r2, #0]
 80006d4:	4b68      	ldr	r3, [pc, #416]	; (8000878 <HAL_RCC_OscConfig+0x26c>)
 80006d6:	681b      	ldr	r3, [r3, #0]
 80006d8:	4a67      	ldr	r2, [pc, #412]	; (8000878 <HAL_RCC_OscConfig+0x26c>)
 80006da:	f423 2380 	bic.w	r3, r3, #262144	; 0x40000
 80006de:	6013      	str	r3, [r2, #0]


      /* Check the HSE State */
      if (RCC_OscInitStruct->HSEState != RCC_HSE_OFF)
 80006e0:	687b      	ldr	r3, [r7, #4]
 80006e2:	685b      	ldr	r3, [r3, #4]
 80006e4:	2b00      	cmp	r3, #0
 80006e6:	d013      	beq.n	8000710 <HAL_RCC_OscConfig+0x104>
      {
        /* Get Start Tick */
        tickstart = HAL_GetTick();
 80006e8:	f7ff fea2 	bl	8000430 <HAL_GetTick>
 80006ec:	6138      	str	r0, [r7, #16]

        /* Wait till HSE is ready */
        while (__HAL_RCC_GET_FLAG(RCC_FLAG_HSERDY) == RESET)
 80006ee:	e008      	b.n	8000702 <HAL_RCC_OscConfig+0xf6>
        {
          if ((HAL_GetTick() - tickstart) > HSE_TIMEOUT_VALUE)
 80006f0:	f7ff fe9e 	bl	8000430 <HAL_GetTick>
 80006f4:	4602      	mov	r2, r0
 80006f6:	693b      	ldr	r3, [r7, #16]
 80006f8:	1ad3      	subs	r3, r2, r3
 80006fa:	2b64      	cmp	r3, #100	; 0x64
 80006fc:	d901      	bls.n	8000702 <HAL_RCC_OscConfig+0xf6>
          {
            return HAL_TIMEOUT;
 80006fe:	2303      	movs	r3, #3
 8000700:	e1fa      	b.n	8000af8 <HAL_RCC_OscConfig+0x4ec>
        while (__HAL_RCC_GET_FLAG(RCC_FLAG_HSERDY) == RESET)
 8000702:	4b5d      	ldr	r3, [pc, #372]	; (8000878 <HAL_RCC_OscConfig+0x26c>)
 8000704:	681b      	ldr	r3, [r3, #0]
 8000706:	f403 3300 	and.w	r3, r3, #131072	; 0x20000
 800070a:	2b00      	cmp	r3, #0
 800070c:	d0f0      	beq.n	80006f0 <HAL_RCC_OscConfig+0xe4>
 800070e:	e014      	b.n	800073a <HAL_RCC_OscConfig+0x12e>
        }
      }
      else
      {
        /* Get Start Tick */
        tickstart = HAL_GetTick();
 8000710:	f7ff fe8e 	bl	8000430 <HAL_GetTick>
 8000714:	6138      	str	r0, [r7, #16]

        /* Wait till HSE is disabled */
        while (__HAL_RCC_GET_FLAG(RCC_FLAG_HSERDY) != RESET)
 8000716:	e008      	b.n	800072a <HAL_RCC_OscConfig+0x11e>
        {
          if ((HAL_GetTick() - tickstart) > HSE_TIMEOUT_VALUE)
 8000718:	f7ff fe8a 	bl	8000430 <HAL_GetTick>
 800071c:	4602      	mov	r2, r0
 800071e:	693b      	ldr	r3, [r7, #16]
 8000720:	1ad3      	subs	r3, r2, r3
 8000722:	2b64      	cmp	r3, #100	; 0x64
 8000724:	d901      	bls.n	800072a <HAL_RCC_OscConfig+0x11e>
          {
            return HAL_TIMEOUT;
 8000726:	2303      	movs	r3, #3
 8000728:	e1e6      	b.n	8000af8 <HAL_RCC_OscConfig+0x4ec>
        while (__HAL_RCC_GET_FLAG(RCC_FLAG_HSERDY) != RESET)
 800072a:	4b53      	ldr	r3, [pc, #332]	; (8000878 <HAL_RCC_OscConfig+0x26c>)
 800072c:	681b      	ldr	r3, [r3, #0]
 800072e:	f403 3300 	and.w	r3, r3, #131072	; 0x20000
 8000732:	2b00      	cmp	r3, #0
 8000734:	d1f0      	bne.n	8000718 <HAL_RCC_OscConfig+0x10c>
 8000736:	e000      	b.n	800073a <HAL_RCC_OscConfig+0x12e>
      if ((__HAL_RCC_GET_FLAG(RCC_FLAG_HSERDY) != RESET) && (RCC_OscInitStruct->HSEState == RCC_HSE_OFF))
 8000738:	bf00      	nop
        }
      }
    }
  }
  /*----------------------------- HSI Configuration --------------------------*/
  if (((RCC_OscInitStruct->OscillatorType) & RCC_OSCILLATORTYPE_HSI) == RCC_OSCILLATORTYPE_HSI)
 800073a:	687b      	ldr	r3, [r7, #4]
 800073c:	681b      	ldr	r3, [r3, #0]
 800073e:	f003 0302 	and.w	r3, r3, #2
 8000742:	2b00      	cmp	r3, #0
 8000744:	d063      	beq.n	800080e <HAL_RCC_OscConfig+0x202>
    /* Check the parameters */
    assert_param(IS_RCC_HSI(RCC_OscInitStruct->HSIState));
    assert_param(IS_RCC_CALIBRATION_VALUE(RCC_OscInitStruct->HSICalibrationValue));

    /* Check if HSI is used as system clock or as PLL source when PLL is selected as system clock */
    if ((__HAL_RCC_GET_SYSCLK_SOURCE() == RCC_SYSCLKSOURCE_STATUS_HSI)
 8000746:	4b4c      	ldr	r3, [pc, #304]	; (8000878 <HAL_RCC_OscConfig+0x26c>)
 8000748:	685b      	ldr	r3, [r3, #4]
 800074a:	f003 030c 	and.w	r3, r3, #12
 800074e:	2b00      	cmp	r3, #0
 8000750:	d00b      	beq.n	800076a <HAL_RCC_OscConfig+0x15e>
        || ((__HAL_RCC_GET_SYSCLK_SOURCE() == RCC_SYSCLKSOURCE_STATUS_PLLCLK) && (__HAL_RCC_GET_PLL_OSCSOURCE() == RCC_PLLSOURCE_HSI_DIV2)))
 8000752:	4b49      	ldr	r3, [pc, #292]	; (8000878 <HAL_RCC_OscConfig+0x26c>)
 8000754:	685b      	ldr	r3, [r3, #4]
 8000756:	f003 030c 	and.w	r3, r3, #12
 800075a:	2b08      	cmp	r3, #8
 800075c:	d11c      	bne.n	8000798 <HAL_RCC_OscConfig+0x18c>
 800075e:	4b46      	ldr	r3, [pc, #280]	; (8000878 <HAL_RCC_OscConfig+0x26c>)
 8000760:	685b      	ldr	r3, [r3, #4]
 8000762:	f403 3380 	and.w	r3, r3, #65536	; 0x10000
 8000766:	2b00      	cmp	r3, #0
 8000768:	d116      	bne.n	8000798 <HAL_RCC_OscConfig+0x18c>
    {
      /* When HSI is used as system clock it will not disabled */
      if ((__HAL_RCC_GET_FLAG(RCC_FLAG_HSIRDY) != RESET) && (RCC_OscInitStruct->HSIState != RCC_HSI_ON))
 800076a:	4b43      	ldr	r3, [pc, #268]	; (8000878 <HAL_RCC_OscConfig+0x26c>)
 800076c:	681b      	ldr	r3, [r3, #0]
 800076e:	f003 0302 	and.w	r3, r3, #2
 8000772:	2b00      	cmp	r3, #0
 8000774:	d005      	beq.n	8000782 <HAL_RCC_OscConfig+0x176>
 8000776:	687b      	ldr	r3, [r7, #4]
 8000778:	691b      	ldr	r3, [r3, #16]
 800077a:	2b01      	cmp	r3, #1
 800077c:	d001      	beq.n	8000782 <HAL_RCC_OscConfig+0x176>
      {
        return HAL_ERROR;
 800077e:	2301      	movs	r3, #1
 8000780:	e1ba      	b.n	8000af8 <HAL_RCC_OscConfig+0x4ec>
      }
      /* Otherwise, just the calibration is allowed */
      else
      {
        /* Adjusts the Internal High Speed oscillator (HSI) calibration value.*/
        __HAL_RCC_HSI_CALIBRATIONVALUE_ADJUST(RCC_OscInitStruct->HSICalibrationValue);
 8000782:	4b3d      	ldr	r3, [pc, #244]	; (8000878 <HAL_RCC_OscConfig+0x26c>)
 8000784:	681b      	ldr	r3, [r3, #0]
 8000786:	f023 02f8 	bic.w	r2, r3, #248	; 0xf8
 800078a:	687b      	ldr	r3, [r7, #4]
 800078c:	695b      	ldr	r3, [r3, #20]
 800078e:	00db      	lsls	r3, r3, #3
 8000790:	4939      	ldr	r1, [pc, #228]	; (8000878 <HAL_RCC_OscConfig+0x26c>)
 8000792:	4313      	orrs	r3, r2
 8000794:	600b      	str	r3, [r1, #0]
      if ((__HAL_RCC_GET_FLAG(RCC_FLAG_HSIRDY) != RESET) && (RCC_OscInitStruct->HSIState != RCC_HSI_ON))
 8000796:	e03a      	b.n	800080e <HAL_RCC_OscConfig+0x202>
      }
    }
    else
    {
      /* Check the HSI State */
      if (RCC_OscInitStruct->HSIState != RCC_HSI_OFF)
 8000798:	687b      	ldr	r3, [r7, #4]
 800079a:	691b      	ldr	r3, [r3, #16]
 800079c:	2b00      	cmp	r3, #0
 800079e:	d020      	beq.n	80007e2 <HAL_RCC_OscConfig+0x1d6>
      {
        /* Enable the Internal High Speed oscillator (HSI). */
        __HAL_RCC_HSI_ENABLE();
 80007a0:	4b36      	ldr	r3, [pc, #216]	; (800087c <HAL_RCC_OscConfig+0x270>)
 80007a2:	2201      	movs	r2, #1
 80007a4:	601a      	str	r2, [r3, #0]

        /* Get Start Tick */
        tickstart = HAL_GetTick();
 80007a6:	f7ff fe43 	bl	8000430 <HAL_GetTick>
 80007aa:	6138      	str	r0, [r7, #16]

        /* Wait till HSI is ready */
        while (__HAL_RCC_GET_FLAG(RCC_FLAG_HSIRDY) == RESET)
 80007ac:	e008      	b.n	80007c0 <HAL_RCC_OscConfig+0x1b4>
        {
          if ((HAL_GetTick() - tickstart) > HSI_TIMEOUT_VALUE)
 80007ae:	f7ff fe3f 	bl	8000430 <HAL_GetTick>
 80007b2:	4602      	mov	r2, r0
 80007b4:	693b      	ldr	r3, [r7, #16]
 80007b6:	1ad3      	subs	r3, r2, r3
 80007b8:	2b02      	cmp	r3, #2
 80007ba:	d901      	bls.n	80007c0 <HAL_RCC_OscConfig+0x1b4>
          {
            return HAL_TIMEOUT;
 80007bc:	2303      	movs	r3, #3
 80007be:	e19b      	b.n	8000af8 <HAL_RCC_OscConfig+0x4ec>
        while (__HAL_RCC_GET_FLAG(RCC_FLAG_HSIRDY) == RESET)
 80007c0:	4b2d      	ldr	r3, [pc, #180]	; (8000878 <HAL_RCC_OscConfig+0x26c>)
 80007c2:	681b      	ldr	r3, [r3, #0]
 80007c4:	f003 0302 	and.w	r3, r3, #2
 80007c8:	2b00      	cmp	r3, #0
 80007ca:	d0f0      	beq.n	80007ae <HAL_RCC_OscConfig+0x1a2>
          }
        }

        /* Adjusts the Internal High Speed oscillator (HSI) calibration value.*/
        __HAL_RCC_HSI_CALIBRATIONVALUE_ADJUST(RCC_OscInitStruct->HSICalibrationValue);
 80007cc:	4b2a      	ldr	r3, [pc, #168]	; (8000878 <HAL_RCC_OscConfig+0x26c>)
 80007ce:	681b      	ldr	r3, [r3, #0]
 80007d0:	f023 02f8 	bic.w	r2, r3, #248	; 0xf8
 80007d4:	687b      	ldr	r3, [r7, #4]
 80007d6:	695b      	ldr	r3, [r3, #20]
 80007d8:	00db      	lsls	r3, r3, #3
 80007da:	4927      	ldr	r1, [pc, #156]	; (8000878 <HAL_RCC_OscConfig+0x26c>)
 80007dc:	4313      	orrs	r3, r2
 80007de:	600b      	str	r3, [r1, #0]
 80007e0:	e015      	b.n	800080e <HAL_RCC_OscConfig+0x202>
      }
      else
      {
        /* Disable the Internal High Speed oscillator (HSI). */
        __HAL_RCC_HSI_DISABLE();
 80007e2:	4b26      	ldr	r3, [pc, #152]	; (800087c <HAL_RCC_OscConfig+0x270>)
 80007e4:	2200      	movs	r2, #0
 80007e6:	601a      	str	r2, [r3, #0]

        /* Get Start Tick */
        tickstart = HAL_GetTick();
 80007e8:	f7ff fe22 	bl	8000430 <HAL_GetTick>
 80007ec:	6138      	str	r0, [r7, #16]

        /* Wait till HSI is disabled */
        while (__HAL_RCC_GET_FLAG(RCC_FLAG_HSIRDY) != RESET)
 80007ee:	e008      	b.n	8000802 <HAL_RCC_OscConfig+0x1f6>
        {
          if ((HAL_GetTick() - tickstart) > HSI_TIMEOUT_VALUE)
 80007f0:	f7ff fe1e 	bl	8000430 <HAL_GetTick>
 80007f4:	4602      	mov	r2, r0
 80007f6:	693b      	ldr	r3, [r7, #16]
 80007f8:	1ad3      	subs	r3, r2, r3
 80007fa:	2b02      	cmp	r3, #2
 80007fc:	d901      	bls.n	8000802 <HAL_RCC_OscConfig+0x1f6>
          {
            return HAL_TIMEOUT;
 80007fe:	2303      	movs	r3, #3
 8000800:	e17a      	b.n	8000af8 <HAL_RCC_OscConfig+0x4ec>
        while (__HAL_RCC_GET_FLAG(RCC_FLAG_HSIRDY) != RESET)
 8000802:	4b1d      	ldr	r3, [pc, #116]	; (8000878 <HAL_RCC_OscConfig+0x26c>)
 8000804:	681b      	ldr	r3, [r3, #0]
 8000806:	f003 0302 	and.w	r3, r3, #2
 800080a:	2b00      	cmp	r3, #0
 800080c:	d1f0      	bne.n	80007f0 <HAL_RCC_OscConfig+0x1e4>
        }
      }
    }
  }
  /*------------------------------ LSI Configuration -------------------------*/
  if (((RCC_OscInitStruct->OscillatorType) & RCC_OSCILLATORTYPE_LSI) == RCC_OSCILLATORTYPE_LSI)
 800080e:	687b      	ldr	r3, [r7, #4]
 8000810:	681b      	ldr	r3, [r3, #0]
 8000812:	f003 0308 	and.w	r3, r3, #8
 8000816:	2b00      	cmp	r3, #0
 8000818:	d03a      	beq.n	8000890 <HAL_RCC_OscConfig+0x284>
  {
    /* Check the parameters */
    assert_param(IS_RCC_LSI(RCC_OscInitStruct->LSIState));

    /* Check the LSI State */
    if (RCC_OscInitStruct->LSIState != RCC_LSI_OFF)
 800081a:	687b      	ldr	r3, [r7, #4]
 800081c:	699b      	ldr	r3, [r3, #24]
 800081e:	2b00      	cmp	r3, #0
 8000820:	d019      	beq.n	8000856 <HAL_RCC_OscConfig+0x24a>
    {
      /* Enable the Internal Low Speed oscillator (LSI). */
      __HAL_RCC_LSI_ENABLE();
 8000822:	4b17      	ldr	r3, [pc, #92]	; (8000880 <HAL_RCC_OscConfig+0x274>)
 8000824:	2201      	movs	r2, #1
 8000826:	601a      	str	r2, [r3, #0]

      /* Get Start Tick */
      tickstart = HAL_GetTick();
 8000828:	f7ff fe02 	bl	8000430 <HAL_GetTick>
 800082c:	6138      	str	r0, [r7, #16]

      /* Wait till LSI is ready */
      while (__HAL_RCC_GET_FLAG(RCC_FLAG_LSIRDY) == RESET)
 800082e:	e008      	b.n	8000842 <HAL_RCC_OscConfig+0x236>
      {
        if ((HAL_GetTick() - tickstart) > LSI_TIMEOUT_VALUE)
 8000830:	f7ff fdfe 	bl	8000430 <HAL_GetTick>
 8000834:	4602      	mov	r2, r0
 8000836:	693b      	ldr	r3, [r7, #16]
 8000838:	1ad3      	subs	r3, r2, r3
 800083a:	2b02      	cmp	r3, #2
 800083c:	d901      	bls.n	8000842 <HAL_RCC_OscConfig+0x236>
        {
          return HAL_TIMEOUT;
 800083e:	2303      	movs	r3, #3
 8000840:	e15a      	b.n	8000af8 <HAL_RCC_OscConfig+0x4ec>
      while (__HAL_RCC_GET_FLAG(RCC_FLAG_LSIRDY) == RESET)
 8000842:	4b0d      	ldr	r3, [pc, #52]	; (8000878 <HAL_RCC_OscConfig+0x26c>)
 8000844:	6a5b      	ldr	r3, [r3, #36]	; 0x24
 8000846:	f003 0302 	and.w	r3, r3, #2
 800084a:	2b00      	cmp	r3, #0
 800084c:	d0f0      	beq.n	8000830 <HAL_RCC_OscConfig+0x224>
        }
      }
      /*  To have a fully stabilized clock in the specified range, a software delay of 1ms
          should be added.*/
      RCC_Delay(1);
 800084e:	2001      	movs	r0, #1
 8000850:	f000 faa6 	bl	8000da0 <RCC_Delay>
 8000854:	e01c      	b.n	8000890 <HAL_RCC_OscConfig+0x284>
    }
    else
    {
      /* Disable the Internal Low Speed oscillator (LSI). */
      __HAL_RCC_LSI_DISABLE();
 8000856:	4b0a      	ldr	r3, [pc, #40]	; (8000880 <HAL_RCC_OscConfig+0x274>)
 8000858:	2200      	movs	r2, #0
 800085a:	601a      	str	r2, [r3, #0]

      /* Get Start Tick */
      tickstart = HAL_GetTick();
 800085c:	f7ff fde8 	bl	8000430 <HAL_GetTick>
 8000860:	6138      	str	r0, [r7, #16]

      /* Wait till LSI is disabled */
      while (__HAL_RCC_GET_FLAG(RCC_FLAG_LSIRDY) != RESET)
 8000862:	e00f      	b.n	8000884 <HAL_RCC_OscConfig+0x278>
      {
        if ((HAL_GetTick() - tickstart) > LSI_TIMEOUT_VALUE)
 8000864:	f7ff fde4 	bl	8000430 <HAL_GetTick>
 8000868:	4602      	mov	r2, r0
 800086a:	693b      	ldr	r3, [r7, #16]
 800086c:	1ad3      	subs	r3, r2, r3
 800086e:	2b02      	cmp	r3, #2
 8000870:	d908      	bls.n	8000884 <HAL_RCC_OscConfig+0x278>
        {
          return HAL_TIMEOUT;
 8000872:	2303      	movs	r3, #3
 8000874:	e140      	b.n	8000af8 <HAL_RCC_OscConfig+0x4ec>
 8000876:	bf00      	nop
 8000878:	40021000 	.word	0x40021000
 800087c:	42420000 	.word	0x42420000
 8000880:	42420480 	.word	0x42420480
      while (__HAL_RCC_GET_FLAG(RCC_FLAG_LSIRDY) != RESET)
 8000884:	4b9e      	ldr	r3, [pc, #632]	; (8000b00 <HAL_RCC_OscConfig+0x4f4>)
 8000886:	6a5b      	ldr	r3, [r3, #36]	; 0x24
 8000888:	f003 0302 	and.w	r3, r3, #2
 800088c:	2b00      	cmp	r3, #0
 800088e:	d1e9      	bne.n	8000864 <HAL_RCC_OscConfig+0x258>
        }
      }
    }
  }
  /*------------------------------ LSE Configuration -------------------------*/
  if (((RCC_OscInitStruct->OscillatorType) & RCC_OSCILLATORTYPE_LSE) == RCC_OSCILLATORTYPE_LSE)
 8000890:	687b      	ldr	r3, [r7, #4]
 8000892:	681b      	ldr	r3, [r3, #0]
 8000894:	f003 0304 	and.w	r3, r3, #4
 8000898:	2b00      	cmp	r3, #0
 800089a:	f000 80a6 	beq.w	80009ea <HAL_RCC_OscConfig+0x3de>
  {
    FlagStatus       pwrclkchanged = RESET;
 800089e:	2300      	movs	r3, #0
 80008a0:	75fb      	strb	r3, [r7, #23]
    /* Check the parameters */
    assert_param(IS_RCC_LSE(RCC_OscInitStruct->LSEState));

    /* Update LSE configuration in Backup Domain control register    */
    /* Requires to enable write access to Backup Domain of necessary */
    if (__HAL_RCC_PWR_IS_CLK_DISABLED())
 80008a2:	4b97      	ldr	r3, [pc, #604]	; (8000b00 <HAL_RCC_OscConfig+0x4f4>)
 80008a4:	69db      	ldr	r3, [r3, #28]
 80008a6:	f003 5380 	and.w	r3, r3, #268435456	; 0x10000000
 80008aa:	2b00      	cmp	r3, #0
 80008ac:	d10d      	bne.n	80008ca <HAL_RCC_OscConfig+0x2be>
    {
      __HAL_RCC_PWR_CLK_ENABLE();
 80008ae:	4b94      	ldr	r3, [pc, #592]	; (8000b00 <HAL_RCC_OscConfig+0x4f4>)
 80008b0:	69db      	ldr	r3, [r3, #28]
 80008b2:	4a93      	ldr	r2, [pc, #588]	; (8000b00 <HAL_RCC_OscConfig+0x4f4>)
 80008b4:	f043 5380 	orr.w	r3, r3, #268435456	; 0x10000000
 80008b8:	61d3      	str	r3, [r2, #28]
 80008ba:	4b91      	ldr	r3, [pc, #580]	; (8000b00 <HAL_RCC_OscConfig+0x4f4>)
 80008bc:	69db      	ldr	r3, [r3, #28]
 80008be:	f003 5380 	and.w	r3, r3, #268435456	; 0x10000000
 80008c2:	60bb      	str	r3, [r7, #8]
 80008c4:	68bb      	ldr	r3, [r7, #8]
      pwrclkchanged = SET;
 80008c6:	2301      	movs	r3, #1
 80008c8:	75fb      	strb	r3, [r7, #23]
    }

    if (HAL_IS_BIT_CLR(PWR->CR, PWR_CR_DBP))
 80008ca:	4b8e      	ldr	r3, [pc, #568]	; (8000b04 <HAL_RCC_OscConfig+0x4f8>)
 80008cc:	681b      	ldr	r3, [r3, #0]
 80008ce:	f403 7380 	and.w	r3, r3, #256	; 0x100
 80008d2:	2b00      	cmp	r3, #0
 80008d4:	d118      	bne.n	8000908 <HAL_RCC_OscConfig+0x2fc>
    {
      /* Enable write access to Backup domain */
      SET_BIT(PWR->CR, PWR_CR_DBP);
 80008d6:	4b8b      	ldr	r3, [pc, #556]	; (8000b04 <HAL_RCC_OscConfig+0x4f8>)
 80008d8:	681b      	ldr	r3, [r3, #0]
 80008da:	4a8a      	ldr	r2, [pc, #552]	; (8000b04 <HAL_RCC_OscConfig+0x4f8>)
 80008dc:	f443 7380 	orr.w	r3, r3, #256	; 0x100
 80008e0:	6013      	str	r3, [r2, #0]

      /* Wait for Backup domain Write protection disable */
      tickstart = HAL_GetTick();
 80008e2:	f7ff fda5 	bl	8000430 <HAL_GetTick>
 80008e6:	6138      	str	r0, [r7, #16]

      while (HAL_IS_BIT_CLR(PWR->CR, PWR_CR_DBP))
 80008e8:	e008      	b.n	80008fc <HAL_RCC_OscConfig+0x2f0>
      {
        if ((HAL_GetTick() - tickstart) > RCC_DBP_TIMEOUT_VALUE)
 80008ea:	f7ff fda1 	bl	8000430 <HAL_GetTick>
 80008ee:	4602      	mov	r2, r0
 80008f0:	693b      	ldr	r3, [r7, #16]
 80008f2:	1ad3      	subs	r3, r2, r3
 80008f4:	2b64      	cmp	r3, #100	; 0x64
 80008f6:	d901      	bls.n	80008fc <HAL_RCC_OscConfig+0x2f0>
        {
          return HAL_TIMEOUT;
 80008f8:	2303      	movs	r3, #3
 80008fa:	e0fd      	b.n	8000af8 <HAL_RCC_OscConfig+0x4ec>
      while (HAL_IS_BIT_CLR(PWR->CR, PWR_CR_DBP))
 80008fc:	4b81      	ldr	r3, [pc, #516]	; (8000b04 <HAL_RCC_OscConfig+0x4f8>)
 80008fe:	681b      	ldr	r3, [r3, #0]
 8000900:	f403 7380 	and.w	r3, r3, #256	; 0x100
 8000904:	2b00      	cmp	r3, #0
 8000906:	d0f0      	beq.n	80008ea <HAL_RCC_OscConfig+0x2de>
        }
      }
    }

    /* Set the new LSE configuration -----------------------------------------*/
    __HAL_RCC_LSE_CONFIG(RCC_OscInitStruct->LSEState);
 8000908:	687b      	ldr	r3, [r7, #4]
 800090a:	68db      	ldr	r3, [r3, #12]
 800090c:	2b01      	cmp	r3, #1
 800090e:	d106      	bne.n	800091e <HAL_RCC_OscConfig+0x312>
 8000910:	4b7b      	ldr	r3, [pc, #492]	; (8000b00 <HAL_RCC_OscConfig+0x4f4>)
 8000912:	6a1b      	ldr	r3, [r3, #32]
 8000914:	4a7a      	ldr	r2, [pc, #488]	; (8000b00 <HAL_RCC_OscConfig+0x4f4>)
 8000916:	f043 0301 	orr.w	r3, r3, #1
 800091a:	6213      	str	r3, [r2, #32]
 800091c:	e02d      	b.n	800097a <HAL_RCC_OscConfig+0x36e>
 800091e:	687b      	ldr	r3, [r7, #4]
 8000920:	68db      	ldr	r3, [r3, #12]
 8000922:	2b00      	cmp	r3, #0
 8000924:	d10c      	bne.n	8000940 <HAL_RCC_OscConfig+0x334>
 8000926:	4b76      	ldr	r3, [pc, #472]	; (8000b00 <HAL_RCC_OscConfig+0x4f4>)
 8000928:	6a1b      	ldr	r3, [r3, #32]
 800092a:	4a75      	ldr	r2, [pc, #468]	; (8000b00 <HAL_RCC_OscConfig+0x4f4>)
 800092c:	f023 0301 	bic.w	r3, r3, #1
 8000930:	6213      	str	r3, [r2, #32]
 8000932:	4b73      	ldr	r3, [pc, #460]	; (8000b00 <HAL_RCC_OscConfig+0x4f4>)
 8000934:	6a1b      	ldr	r3, [r3, #32]
 8000936:	4a72      	ldr	r2, [pc, #456]	; (8000b00 <HAL_RCC_OscConfig+0x4f4>)
 8000938:	f023 0304 	bic.w	r3, r3, #4
 800093c:	6213      	str	r3, [r2, #32]
 800093e:	e01c      	b.n	800097a <HAL_RCC_OscConfig+0x36e>
 8000940:	687b      	ldr	r3, [r7, #4]
 8000942:	68db      	ldr	r3, [r3, #12]
 8000944:	2b05      	cmp	r3, #5
 8000946:	d10c      	bne.n	8000962 <HAL_RCC_OscConfig+0x356>
 8000948:	4b6d      	ldr	r3, [pc, #436]	; (8000b00 <HAL_RCC_OscConfig+0x4f4>)
 800094a:	6a1b      	ldr	r3, [r3, #32]
 800094c:	4a6c      	ldr	r2, [pc, #432]	; (8000b00 <HAL_RCC_OscConfig+0x4f4>)
 800094e:	f043 0304 	orr.w	r3, r3, #4
 8000952:	6213      	str	r3, [r2, #32]
 8000954:	4b6a      	ldr	r3, [pc, #424]	; (8000b00 <HAL_RCC_OscConfig+0x4f4>)
 8000956:	6a1b      	ldr	r3, [r3, #32]
 8000958:	4a69      	ldr	r2, [pc, #420]	; (8000b00 <HAL_RCC_OscConfig+0x4f4>)
 800095a:	f043 0301 	orr.w	r3, r3, #1
 800095e:	6213      	str	r3, [r2, #32]
 8000960:	e00b      	b.n	800097a <HAL_RCC_OscConfig+0x36e>
 8000962:	4b67      	ldr	r3, [pc, #412]	; (8000b00 <HAL_RCC_OscConfig+0x4f4>)
 8000964:	6a1b      	ldr	r3, [r3, #32]
 8000966:	4a66      	ldr	r2, [pc, #408]	; (8000b00 <HAL_RCC_OscConfig+0x4f4>)
 8000968:	f023 0301 	bic.w	r3, r3, #1
 800096c:	6213      	str	r3, [r2, #32]
 800096e:	4b64      	ldr	r3, [pc, #400]	; (8000b00 <HAL_RCC_OscConfig+0x4f4>)
 8000970:	6a1b      	ldr	r3, [r3, #32]
 8000972:	4a63      	ldr	r2, [pc, #396]	; (8000b00 <HAL_RCC_OscConfig+0x4f4>)
 8000974:	f023 0304 	bic.w	r3, r3, #4
 8000978:	6213      	str	r3, [r2, #32]
    /* Check the LSE State */
    if (RCC_OscInitStruct->LSEState != RCC_LSE_OFF)
 800097a:	687b      	ldr	r3, [r7, #4]
 800097c:	68db      	ldr	r3, [r3, #12]
 800097e:	2b00      	cmp	r3, #0
 8000980:	d015      	beq.n	80009ae <HAL_RCC_OscConfig+0x3a2>
    {
      /* Get Start Tick */
      tickstart = HAL_GetTick();
 8000982:	f7ff fd55 	bl	8000430 <HAL_GetTick>
 8000986:	6138      	str	r0, [r7, #16]

      /* Wait till LSE is ready */
      while (__HAL_RCC_GET_FLAG(RCC_FLAG_LSERDY) == RESET)
 8000988:	e00a      	b.n	80009a0 <HAL_RCC_OscConfig+0x394>
      {
        if ((HAL_GetTick() - tickstart) > RCC_LSE_TIMEOUT_VALUE)
 800098a:	f7ff fd51 	bl	8000430 <HAL_GetTick>
 800098e:	4602      	mov	r2, r0
 8000990:	693b      	ldr	r3, [r7, #16]
 8000992:	1ad3      	subs	r3, r2, r3
 8000994:	f241 3288 	movw	r2, #5000	; 0x1388
 8000998:	4293      	cmp	r3, r2
 800099a:	d901      	bls.n	80009a0 <HAL_RCC_OscConfig+0x394>
        {
          return HAL_TIMEOUT;
 800099c:	2303      	movs	r3, #3
 800099e:	e0ab      	b.n	8000af8 <HAL_RCC_OscConfig+0x4ec>
      while (__HAL_RCC_GET_FLAG(RCC_FLAG_LSERDY) == RESET)
 80009a0:	4b57      	ldr	r3, [pc, #348]	; (8000b00 <HAL_RCC_OscConfig+0x4f4>)
 80009a2:	6a1b      	ldr	r3, [r3, #32]
 80009a4:	f003 0302 	and.w	r3, r3, #2
 80009a8:	2b00      	cmp	r3, #0
 80009aa:	d0ee      	beq.n	800098a <HAL_RCC_OscConfig+0x37e>
 80009ac:	e014      	b.n	80009d8 <HAL_RCC_OscConfig+0x3cc>
      }
    }
    else
    {
      /* Get Start Tick */
      tickstart = HAL_GetTick();
 80009ae:	f7ff fd3f 	bl	8000430 <HAL_GetTick>
 80009b2:	6138      	str	r0, [r7, #16]

      /* Wait till LSE is disabled */
      while (__HAL_RCC_GET_FLAG(RCC_FLAG_LSERDY) != RESET)
 80009b4:	e00a      	b.n	80009cc <HAL_RCC_OscConfig+0x3c0>
      {
        if ((HAL_GetTick() - tickstart) > RCC_LSE_TIMEOUT_VALUE)
 80009b6:	f7ff fd3b 	bl	8000430 <HAL_GetTick>
 80009ba:	4602      	mov	r2, r0
 80009bc:	693b      	ldr	r3, [r7, #16]
 80009be:	1ad3      	subs	r3, r2, r3
 80009c0:	f241 3288 	movw	r2, #5000	; 0x1388
 80009c4:	4293      	cmp	r3, r2
 80009c6:	d901      	bls.n	80009cc <HAL_RCC_OscConfig+0x3c0>
        {
          return HAL_TIMEOUT;
 80009c8:	2303      	movs	r3, #3
 80009ca:	e095      	b.n	8000af8 <HAL_RCC_OscConfig+0x4ec>
      while (__HAL_RCC_GET_FLAG(RCC_FLAG_LSERDY) != RESET)
 80009cc:	4b4c      	ldr	r3, [pc, #304]	; (8000b00 <HAL_RCC_OscConfig+0x4f4>)
 80009ce:	6a1b      	ldr	r3, [r3, #32]
 80009d0:	f003 0302 	and.w	r3, r3, #2
 80009d4:	2b00      	cmp	r3, #0
 80009d6:	d1ee      	bne.n	80009b6 <HAL_RCC_OscConfig+0x3aa>
        }
      }
    }

    /* Require to disable power clock if necessary */
    if (pwrclkchanged == SET)
 80009d8:	7dfb      	ldrb	r3, [r7, #23]
 80009da:	2b01      	cmp	r3, #1
 80009dc:	d105      	bne.n	80009ea <HAL_RCC_OscConfig+0x3de>
    {
      __HAL_RCC_PWR_CLK_DISABLE();
 80009de:	4b48      	ldr	r3, [pc, #288]	; (8000b00 <HAL_RCC_OscConfig+0x4f4>)
 80009e0:	69db      	ldr	r3, [r3, #28]
 80009e2:	4a47      	ldr	r2, [pc, #284]	; (8000b00 <HAL_RCC_OscConfig+0x4f4>)
 80009e4:	f023 5380 	bic.w	r3, r3, #268435456	; 0x10000000
 80009e8:	61d3      	str	r3, [r2, #28]

#endif /* RCC_CR_PLL2ON */
  /*-------------------------------- PLL Configuration -----------------------*/
  /* Check the parameters */
  assert_param(IS_RCC_PLL(RCC_OscInitStruct->PLL.PLLState));
  if ((RCC_OscInitStruct->PLL.PLLState) != RCC_PLL_NONE)
 80009ea:	687b      	ldr	r3, [r7, #4]
 80009ec:	69db      	ldr	r3, [r3, #28]
 80009ee:	2b00      	cmp	r3, #0
 80009f0:	f000 8081 	beq.w	8000af6 <HAL_RCC_OscConfig+0x4ea>
  {
    /* Check if the PLL is used as system clock or not */
    if (__HAL_RCC_GET_SYSCLK_SOURCE() != RCC_SYSCLKSOURCE_STATUS_PLLCLK)
 80009f4:	4b42      	ldr	r3, [pc, #264]	; (8000b00 <HAL_RCC_OscConfig+0x4f4>)
 80009f6:	685b      	ldr	r3, [r3, #4]
 80009f8:	f003 030c 	and.w	r3, r3, #12
 80009fc:	2b08      	cmp	r3, #8
 80009fe:	d061      	beq.n	8000ac4 <HAL_RCC_OscConfig+0x4b8>
    {
      if ((RCC_OscInitStruct->PLL.PLLState) == RCC_PLL_ON)
 8000a00:	687b      	ldr	r3, [r7, #4]
 8000a02:	69db      	ldr	r3, [r3, #28]
 8000a04:	2b02      	cmp	r3, #2
 8000a06:	d146      	bne.n	8000a96 <HAL_RCC_OscConfig+0x48a>
        /* Check the parameters */
        assert_param(IS_RCC_PLLSOURCE(RCC_OscInitStruct->PLL.PLLSource));
        assert_param(IS_RCC_PLL_MUL(RCC_OscInitStruct->PLL.PLLMUL));

        /* Disable the main PLL. */
        __HAL_RCC_PLL_DISABLE();
 8000a08:	4b3f      	ldr	r3, [pc, #252]	; (8000b08 <HAL_RCC_OscConfig+0x4fc>)
 8000a0a:	2200      	movs	r2, #0
 8000a0c:	601a      	str	r2, [r3, #0]

        /* Get Start Tick */
        tickstart = HAL_GetTick();
 8000a0e:	f7ff fd0f 	bl	8000430 <HAL_GetTick>
 8000a12:	6138      	str	r0, [r7, #16]

        /* Wait till PLL is disabled */
        while (__HAL_RCC_GET_FLAG(RCC_FLAG_PLLRDY)  != RESET)
 8000a14:	e008      	b.n	8000a28 <HAL_RCC_OscConfig+0x41c>
        {
          if ((HAL_GetTick() - tickstart) > PLL_TIMEOUT_VALUE)
 8000a16:	f7ff fd0b 	bl	8000430 <HAL_GetTick>
 8000a1a:	4602      	mov	r2, r0
 8000a1c:	693b      	ldr	r3, [r7, #16]
 8000a1e:	1ad3      	subs	r3, r2, r3
 8000a20:	2b02      	cmp	r3, #2
 8000a22:	d901      	bls.n	8000a28 <HAL_RCC_OscConfig+0x41c>
          {
            return HAL_TIMEOUT;
 8000a24:	2303      	movs	r3, #3
 8000a26:	e067      	b.n	8000af8 <HAL_RCC_OscConfig+0x4ec>
        while (__HAL_RCC_GET_FLAG(RCC_FLAG_PLLRDY)  != RESET)
 8000a28:	4b35      	ldr	r3, [pc, #212]	; (8000b00 <HAL_RCC_OscConfig+0x4f4>)
 8000a2a:	681b      	ldr	r3, [r3, #0]
 8000a2c:	f003 7300 	and.w	r3, r3, #33554432	; 0x2000000
 8000a30:	2b00      	cmp	r3, #0
 8000a32:	d1f0      	bne.n	8000a16 <HAL_RCC_OscConfig+0x40a>
          }
        }

        /* Configure the HSE prediv factor --------------------------------*/
        /* It can be written only when the PLL is disabled. Not used in PLL source is different than HSE */
        if (RCC_OscInitStruct->PLL.PLLSource == RCC_PLLSOURCE_HSE)
 8000a34:	687b      	ldr	r3, [r7, #4]
 8000a36:	6a1b      	ldr	r3, [r3, #32]
 8000a38:	f5b3 3f80 	cmp.w	r3, #65536	; 0x10000
 8000a3c:	d108      	bne.n	8000a50 <HAL_RCC_OscConfig+0x444>
          /* Set PREDIV1 source */
          SET_BIT(RCC->CFGR2, RCC_OscInitStruct->Prediv1Source);
#endif /* RCC_CFGR2_PREDIV1SRC */

          /* Set PREDIV1 Value */
          __HAL_RCC_HSE_PREDIV_CONFIG(RCC_OscInitStruct->HSEPredivValue);
 8000a3e:	4b30      	ldr	r3, [pc, #192]	; (8000b00 <HAL_RCC_OscConfig+0x4f4>)
 8000a40:	685b      	ldr	r3, [r3, #4]
 8000a42:	f423 3200 	bic.w	r2, r3, #131072	; 0x20000
 8000a46:	687b      	ldr	r3, [r7, #4]
 8000a48:	689b      	ldr	r3, [r3, #8]
 8000a4a:	492d      	ldr	r1, [pc, #180]	; (8000b00 <HAL_RCC_OscConfig+0x4f4>)
 8000a4c:	4313      	orrs	r3, r2
 8000a4e:	604b      	str	r3, [r1, #4]
        }

        /* Configure the main PLL clock source and multiplication factors. */
        __HAL_RCC_PLL_CONFIG(RCC_OscInitStruct->PLL.PLLSource,
 8000a50:	4b2b      	ldr	r3, [pc, #172]	; (8000b00 <HAL_RCC_OscConfig+0x4f4>)
 8000a52:	685b      	ldr	r3, [r3, #4]
 8000a54:	f423 1274 	bic.w	r2, r3, #3997696	; 0x3d0000
 8000a58:	687b      	ldr	r3, [r7, #4]
 8000a5a:	6a19      	ldr	r1, [r3, #32]
 8000a5c:	687b      	ldr	r3, [r7, #4]
 8000a5e:	6a5b      	ldr	r3, [r3, #36]	; 0x24
 8000a60:	430b      	orrs	r3, r1
 8000a62:	4927      	ldr	r1, [pc, #156]	; (8000b00 <HAL_RCC_OscConfig+0x4f4>)
 8000a64:	4313      	orrs	r3, r2
 8000a66:	604b      	str	r3, [r1, #4]
                             RCC_OscInitStruct->PLL.PLLMUL);
        /* Enable the main PLL. */
        __HAL_RCC_PLL_ENABLE();
 8000a68:	4b27      	ldr	r3, [pc, #156]	; (8000b08 <HAL_RCC_OscConfig+0x4fc>)
 8000a6a:	2201      	movs	r2, #1
 8000a6c:	601a      	str	r2, [r3, #0]

        /* Get Start Tick */
        tickstart = HAL_GetTick();
 8000a6e:	f7ff fcdf 	bl	8000430 <HAL_GetTick>
 8000a72:	6138      	str	r0, [r7, #16]

        /* Wait till PLL is ready */
        while (__HAL_RCC_GET_FLAG(RCC_FLAG_PLLRDY)  == RESET)
 8000a74:	e008      	b.n	8000a88 <HAL_RCC_OscConfig+0x47c>
        {
          if ((HAL_GetTick() - tickstart) > PLL_TIMEOUT_VALUE)
 8000a76:	f7ff fcdb 	bl	8000430 <HAL_GetTick>
 8000a7a:	4602      	mov	r2, r0
 8000a7c:	693b      	ldr	r3, [r7, #16]
 8000a7e:	1ad3      	subs	r3, r2, r3
 8000a80:	2b02      	cmp	r3, #2
 8000a82:	d901      	bls.n	8000a88 <HAL_RCC_OscConfig+0x47c>
          {
            return HAL_TIMEOUT;
 8000a84:	2303      	movs	r3, #3
 8000a86:	e037      	b.n	8000af8 <HAL_RCC_OscConfig+0x4ec>
        while (__HAL_RCC_GET_FLAG(RCC_FLAG_PLLRDY)  == RESET)
 8000a88:	4b1d      	ldr	r3, [pc, #116]	; (8000b00 <HAL_RCC_OscConfig+0x4f4>)
 8000a8a:	681b      	ldr	r3, [r3, #0]
 8000a8c:	f003 7300 	and.w	r3, r3, #33554432	; 0x2000000
 8000a90:	2b00      	cmp	r3, #0
 8000a92:	d0f0      	beq.n	8000a76 <HAL_RCC_OscConfig+0x46a>
 8000a94:	e02f      	b.n	8000af6 <HAL_RCC_OscConfig+0x4ea>
        }
      }
      else
      {
        /* Disable the main PLL. */
        __HAL_RCC_PLL_DISABLE();
 8000a96:	4b1c      	ldr	r3, [pc, #112]	; (8000b08 <HAL_RCC_OscConfig+0x4fc>)
 8000a98:	2200      	movs	r2, #0
 8000a9a:	601a      	str	r2, [r3, #0]

        /* Get Start Tick */
        tickstart = HAL_GetTick();
 8000a9c:	f7ff fcc8 	bl	8000430 <HAL_GetTick>
 8000aa0:	6138      	str	r0, [r7, #16]

        /* Wait till PLL is disabled */
        while (__HAL_RCC_GET_FLAG(RCC_FLAG_PLLRDY)  != RESET)
 8000aa2:	e008      	b.n	8000ab6 <HAL_RCC_OscConfig+0x4aa>
        {
          if ((HAL_GetTick() - tickstart) > PLL_TIMEOUT_VALUE)
 8000aa4:	f7ff fcc4 	bl	8000430 <HAL_GetTick>
 8000aa8:	4602      	mov	r2, r0
 8000aaa:	693b      	ldr	r3, [r7, #16]
 8000aac:	1ad3      	subs	r3, r2, r3
 8000aae:	2b02      	cmp	r3, #2
 8000ab0:	d901      	bls.n	8000ab6 <HAL_RCC_OscConfig+0x4aa>
          {
            return HAL_TIMEOUT;
 8000ab2:	2303      	movs	r3, #3
 8000ab4:	e020      	b.n	8000af8 <HAL_RCC_OscConfig+0x4ec>
        while (__HAL_RCC_GET_FLAG(RCC_FLAG_PLLRDY)  != RESET)
 8000ab6:	4b12      	ldr	r3, [pc, #72]	; (8000b00 <HAL_RCC_OscConfig+0x4f4>)
 8000ab8:	681b      	ldr	r3, [r3, #0]
 8000aba:	f003 7300 	and.w	r3, r3, #33554432	; 0x2000000
 8000abe:	2b00      	cmp	r3, #0
 8000ac0:	d1f0      	bne.n	8000aa4 <HAL_RCC_OscConfig+0x498>
 8000ac2:	e018      	b.n	8000af6 <HAL_RCC_OscConfig+0x4ea>
      }
    }
    else
    {
      /* Check if there is a request to disable the PLL used as System clock source */
      if ((RCC_OscInitStruct->PLL.PLLState) == RCC_PLL_OFF)
 8000ac4:	687b      	ldr	r3, [r7, #4]
 8000ac6:	69db      	ldr	r3, [r3, #28]
 8000ac8:	2b01      	cmp	r3, #1
 8000aca:	d101      	bne.n	8000ad0 <HAL_RCC_OscConfig+0x4c4>
      {
        return HAL_ERROR;
 8000acc:	2301      	movs	r3, #1
 8000ace:	e013      	b.n	8000af8 <HAL_RCC_OscConfig+0x4ec>
      }
      else
      {
        /* Do not return HAL_ERROR if request repeats the current configuration */
        pll_config = RCC->CFGR;
 8000ad0:	4b0b      	ldr	r3, [pc, #44]	; (8000b00 <HAL_RCC_OscConfig+0x4f4>)
 8000ad2:	685b      	ldr	r3, [r3, #4]
 8000ad4:	60fb      	str	r3, [r7, #12]
        if ((READ_BIT(pll_config, RCC_CFGR_PLLSRC) != RCC_OscInitStruct->PLL.PLLSource) ||
 8000ad6:	68fb      	ldr	r3, [r7, #12]
 8000ad8:	f403 3280 	and.w	r2, r3, #65536	; 0x10000
 8000adc:	687b      	ldr	r3, [r7, #4]
 8000ade:	6a1b      	ldr	r3, [r3, #32]
 8000ae0:	429a      	cmp	r2, r3
 8000ae2:	d106      	bne.n	8000af2 <HAL_RCC_OscConfig+0x4e6>
            (READ_BIT(pll_config, RCC_CFGR_PLLMULL) != RCC_OscInitStruct->PLL.PLLMUL))
 8000ae4:	68fb      	ldr	r3, [r7, #12]
 8000ae6:	f403 1270 	and.w	r2, r3, #3932160	; 0x3c0000
 8000aea:	687b      	ldr	r3, [r7, #4]
 8000aec:	6a5b      	ldr	r3, [r3, #36]	; 0x24
        if ((READ_BIT(pll_config, RCC_CFGR_PLLSRC) != RCC_OscInitStruct->PLL.PLLSource) ||
 8000aee:	429a      	cmp	r2, r3
 8000af0:	d001      	beq.n	8000af6 <HAL_RCC_OscConfig+0x4ea>
        {
          return HAL_ERROR;
 8000af2:	2301      	movs	r3, #1
 8000af4:	e000      	b.n	8000af8 <HAL_RCC_OscConfig+0x4ec>
        }
      }
    }
  }

  return HAL_OK;
 8000af6:	2300      	movs	r3, #0
}
 8000af8:	4618      	mov	r0, r3
 8000afa:	3718      	adds	r7, #24
 8000afc:	46bd      	mov	sp, r7
 8000afe:	bd80      	pop	{r7, pc}
 8000b00:	40021000 	.word	0x40021000
 8000b04:	40007000 	.word	0x40007000
 8000b08:	42420060 	.word	0x42420060

08000b0c <HAL_RCC_ClockConfig>:
  *         You can use @ref HAL_RCC_GetClockConfig() function to know which clock is
  *         currently used as system clock source.
  * @retval HAL status
  */
HAL_StatusTypeDef HAL_RCC_ClockConfig(RCC_ClkInitTypeDef  *RCC_ClkInitStruct, uint32_t FLatency)
{
 8000b0c:	b580      	push	{r7, lr}
 8000b0e:	b084      	sub	sp, #16
 8000b10:	af00      	add	r7, sp, #0
 8000b12:	6078      	str	r0, [r7, #4]
 8000b14:	6039      	str	r1, [r7, #0]
  uint32_t tickstart;

  /* Check Null pointer */
  if (RCC_ClkInitStruct == NULL)
 8000b16:	687b      	ldr	r3, [r7, #4]
 8000b18:	2b00      	cmp	r3, #0
 8000b1a:	d101      	bne.n	8000b20 <HAL_RCC_ClockConfig+0x14>
  {
    return HAL_ERROR;
 8000b1c:	2301      	movs	r3, #1
 8000b1e:	e0d0      	b.n	8000cc2 <HAL_RCC_ClockConfig+0x1b6>
  must be correctly programmed according to the frequency of the CPU clock
    (HCLK) of the device. */

#if defined(FLASH_ACR_LATENCY)
  /* Increasing the number of wait states because of higher CPU frequency */
  if (FLatency > __HAL_FLASH_GET_LATENCY())
 8000b20:	4b6a      	ldr	r3, [pc, #424]	; (8000ccc <HAL_RCC_ClockConfig+0x1c0>)
 8000b22:	681b      	ldr	r3, [r3, #0]
 8000b24:	f003 0307 	and.w	r3, r3, #7
 8000b28:	683a      	ldr	r2, [r7, #0]
 8000b2a:	429a      	cmp	r2, r3
 8000b2c:	d910      	bls.n	8000b50 <HAL_RCC_ClockConfig+0x44>
  {
    /* Program the new number of wait states to the LATENCY bits in the FLASH_ACR register */
    __HAL_FLASH_SET_LATENCY(FLatency);
 8000b2e:	4b67      	ldr	r3, [pc, #412]	; (8000ccc <HAL_RCC_ClockConfig+0x1c0>)
 8000b30:	681b      	ldr	r3, [r3, #0]
 8000b32:	f023 0207 	bic.w	r2, r3, #7
 8000b36:	4965      	ldr	r1, [pc, #404]	; (8000ccc <HAL_RCC_ClockConfig+0x1c0>)
 8000b38:	683b      	ldr	r3, [r7, #0]
 8000b3a:	4313      	orrs	r3, r2
 8000b3c:	600b      	str	r3, [r1, #0]

    /* Check that the new number of wait states is taken into account to access the Flash
    memory by reading the FLASH_ACR register */
    if (__HAL_FLASH_GET_LATENCY() != FLatency)
 8000b3e:	4b63      	ldr	r3, [pc, #396]	; (8000ccc <HAL_RCC_ClockConfig+0x1c0>)
 8000b40:	681b      	ldr	r3, [r3, #0]
 8000b42:	f003 0307 	and.w	r3, r3, #7
 8000b46:	683a      	ldr	r2, [r7, #0]
 8000b48:	429a      	cmp	r2, r3
 8000b4a:	d001      	beq.n	8000b50 <HAL_RCC_ClockConfig+0x44>
  {
    return HAL_ERROR;
 8000b4c:	2301      	movs	r3, #1
 8000b4e:	e0b8      	b.n	8000cc2 <HAL_RCC_ClockConfig+0x1b6>
  }
}

#endif /* FLASH_ACR_LATENCY */
/*-------------------------- HCLK Configuration --------------------------*/
if (((RCC_ClkInitStruct->ClockType) & RCC_CLOCKTYPE_HCLK) == RCC_CLOCKTYPE_HCLK)
 8000b50:	687b      	ldr	r3, [r7, #4]
 8000b52:	681b      	ldr	r3, [r3, #0]
 8000b54:	f003 0302 	and.w	r3, r3, #2
 8000b58:	2b00      	cmp	r3, #0
 8000b5a:	d020      	beq.n	8000b9e <HAL_RCC_ClockConfig+0x92>
  {
    /* Set the highest APBx dividers in order to ensure that we do not go through
    a non-spec phase whatever we decrease or increase HCLK. */
    if (((RCC_ClkInitStruct->ClockType) & RCC_CLOCKTYPE_PCLK1) == RCC_CLOCKTYPE_PCLK1)
 8000b5c:	687b      	ldr	r3, [r7, #4]
 8000b5e:	681b      	ldr	r3, [r3, #0]
 8000b60:	f003 0304 	and.w	r3, r3, #4
 8000b64:	2b00      	cmp	r3, #0
 8000b66:	d005      	beq.n	8000b74 <HAL_RCC_ClockConfig+0x68>
    {
      MODIFY_REG(RCC->CFGR, RCC_CFGR_PPRE1, RCC_HCLK_DIV16);
 8000b68:	4b59      	ldr	r3, [pc, #356]	; (8000cd0 <HAL_RCC_ClockConfig+0x1c4>)
 8000b6a:	685b      	ldr	r3, [r3, #4]
 8000b6c:	4a58      	ldr	r2, [pc, #352]	; (8000cd0 <HAL_RCC_ClockConfig+0x1c4>)
 8000b6e:	f443 63e0 	orr.w	r3, r3, #1792	; 0x700
 8000b72:	6053      	str	r3, [r2, #4]
    }

    if (((RCC_ClkInitStruct->ClockType) & RCC_CLOCKTYPE_PCLK2) == RCC_CLOCKTYPE_PCLK2)
 8000b74:	687b      	ldr	r3, [r7, #4]
 8000b76:	681b      	ldr	r3, [r3, #0]
 8000b78:	f003 0308 	and.w	r3, r3, #8
 8000b7c:	2b00      	cmp	r3, #0
 8000b7e:	d005      	beq.n	8000b8c <HAL_RCC_ClockConfig+0x80>
    {
      MODIFY_REG(RCC->CFGR, RCC_CFGR_PPRE2, (RCC_HCLK_DIV16 << 3));
 8000b80:	4b53      	ldr	r3, [pc, #332]	; (8000cd0 <HAL_RCC_ClockConfig+0x1c4>)
 8000b82:	685b      	ldr	r3, [r3, #4]
 8000b84:	4a52      	ldr	r2, [pc, #328]	; (8000cd0 <HAL_RCC_ClockConfig+0x1c4>)
 8000b86:	f443 5360 	orr.w	r3, r3, #14336	; 0x3800
 8000b8a:	6053      	str	r3, [r2, #4]
    }

    /* Set the new HCLK clock divider */
    assert_param(IS_RCC_HCLK(RCC_ClkInitStruct->AHBCLKDivider));
    MODIFY_REG(RCC->CFGR, RCC_CFGR_HPRE, RCC_ClkInitStruct->AHBCLKDivider);
 8000b8c:	4b50      	ldr	r3, [pc, #320]	; (8000cd0 <HAL_RCC_ClockConfig+0x1c4>)
 8000b8e:	685b      	ldr	r3, [r3, #4]
 8000b90:	f023 02f0 	bic.w	r2, r3, #240	; 0xf0
 8000b94:	687b      	ldr	r3, [r7, #4]
 8000b96:	689b      	ldr	r3, [r3, #8]
 8000b98:	494d      	ldr	r1, [pc, #308]	; (8000cd0 <HAL_RCC_ClockConfig+0x1c4>)
 8000b9a:	4313      	orrs	r3, r2
 8000b9c:	604b      	str	r3, [r1, #4]
  }

  /*------------------------- SYSCLK Configuration ---------------------------*/
  if (((RCC_ClkInitStruct->ClockType) & RCC_CLOCKTYPE_SYSCLK) == RCC_CLOCKTYPE_SYSCLK)
 8000b9e:	687b      	ldr	r3, [r7, #4]
 8000ba0:	681b      	ldr	r3, [r3, #0]
 8000ba2:	f003 0301 	and.w	r3, r3, #1
 8000ba6:	2b00      	cmp	r3, #0
 8000ba8:	d040      	beq.n	8000c2c <HAL_RCC_ClockConfig+0x120>
  {
    assert_param(IS_RCC_SYSCLKSOURCE(RCC_ClkInitStruct->SYSCLKSource));

    /* HSE is selected as System Clock Source */
    if (RCC_ClkInitStruct->SYSCLKSource == RCC_SYSCLKSOURCE_HSE)
 8000baa:	687b      	ldr	r3, [r7, #4]
 8000bac:	685b      	ldr	r3, [r3, #4]
 8000bae:	2b01      	cmp	r3, #1
 8000bb0:	d107      	bne.n	8000bc2 <HAL_RCC_ClockConfig+0xb6>
    {
      /* Check the HSE ready flag */
      if (__HAL_RCC_GET_FLAG(RCC_FLAG_HSERDY) == RESET)
 8000bb2:	4b47      	ldr	r3, [pc, #284]	; (8000cd0 <HAL_RCC_ClockConfig+0x1c4>)
 8000bb4:	681b      	ldr	r3, [r3, #0]
 8000bb6:	f403 3300 	and.w	r3, r3, #131072	; 0x20000
 8000bba:	2b00      	cmp	r3, #0
 8000bbc:	d115      	bne.n	8000bea <HAL_RCC_ClockConfig+0xde>
      {
        return HAL_ERROR;
 8000bbe:	2301      	movs	r3, #1
 8000bc0:	e07f      	b.n	8000cc2 <HAL_RCC_ClockConfig+0x1b6>
      }
    }
    /* PLL is selected as System Clock Source */
    else if (RCC_ClkInitStruct->SYSCLKSource == RCC_SYSCLKSOURCE_PLLCLK)
 8000bc2:	687b      	ldr	r3, [r7, #4]
 8000bc4:	685b      	ldr	r3, [r3, #4]
 8000bc6:	2b02      	cmp	r3, #2
 8000bc8:	d107      	bne.n	8000bda <HAL_RCC_ClockConfig+0xce>
    {
      /* Check the PLL ready flag */
      if (__HAL_RCC_GET_FLAG(RCC_FLAG_PLLRDY) == RESET)
 8000bca:	4b41      	ldr	r3, [pc, #260]	; (8000cd0 <HAL_RCC_ClockConfig+0x1c4>)
 8000bcc:	681b      	ldr	r3, [r3, #0]
 8000bce:	f003 7300 	and.w	r3, r3, #33554432	; 0x2000000
 8000bd2:	2b00      	cmp	r3, #0
 8000bd4:	d109      	bne.n	8000bea <HAL_RCC_ClockConfig+0xde>
      {
        return HAL_ERROR;
 8000bd6:	2301      	movs	r3, #1
 8000bd8:	e073      	b.n	8000cc2 <HAL_RCC_ClockConfig+0x1b6>
    }
    /* HSI is selected as System Clock Source */
    else
    {
      /* Check the HSI ready flag */
      if (__HAL_RCC_GET_FLAG(RCC_FLAG_HSIRDY) == RESET)
 8000bda:	4b3d      	ldr	r3, [pc, #244]	; (8000cd0 <HAL_RCC_ClockConfig+0x1c4>)
 8000bdc:	681b      	ldr	r3, [r3, #0]
 8000bde:	f003 0302 	and.w	r3, r3, #2
 8000be2:	2b00      	cmp	r3, #0
 8000be4:	d101      	bne.n	8000bea <HAL_RCC_ClockConfig+0xde>
      {
        return HAL_ERROR;
 8000be6:	2301      	movs	r3, #1
 8000be8:	e06b      	b.n	8000cc2 <HAL_RCC_ClockConfig+0x1b6>
      }
    }
    __HAL_RCC_SYSCLK_CONFIG(RCC_ClkInitStruct->SYSCLKSource);
 8000bea:	4b39      	ldr	r3, [pc, #228]	; (8000cd0 <HAL_RCC_ClockConfig+0x1c4>)
 8000bec:	685b      	ldr	r3, [r3, #4]
 8000bee:	f023 0203 	bic.w	r2, r3, #3
 8000bf2:	687b      	ldr	r3, [r7, #4]
 8000bf4:	685b      	ldr	r3, [r3, #4]
 8000bf6:	4936      	ldr	r1, [pc, #216]	; (8000cd0 <HAL_RCC_ClockConfig+0x1c4>)
 8000bf8:	4313      	orrs	r3, r2
 8000bfa:	604b      	str	r3, [r1, #4]

    /* Get Start Tick */
    tickstart = HAL_GetTick();
 8000bfc:	f7ff fc18 	bl	8000430 <HAL_GetTick>
 8000c00:	60f8      	str	r0, [r7, #12]

    while (__HAL_RCC_GET_SYSCLK_SOURCE() != (RCC_ClkInitStruct->SYSCLKSource << RCC_CFGR_SWS_Pos))
 8000c02:	e00a      	b.n	8000c1a <HAL_RCC_ClockConfig+0x10e>
    {
      if ((HAL_GetTick() - tickstart) > CLOCKSWITCH_TIMEOUT_VALUE)
 8000c04:	f7ff fc14 	bl	8000430 <HAL_GetTick>
 8000c08:	4602      	mov	r2, r0
 8000c0a:	68fb      	ldr	r3, [r7, #12]
 8000c0c:	1ad3      	subs	r3, r2, r3
 8000c0e:	f241 3288 	movw	r2, #5000	; 0x1388
 8000c12:	4293      	cmp	r3, r2
 8000c14:	d901      	bls.n	8000c1a <HAL_RCC_ClockConfig+0x10e>
      {
        return HAL_TIMEOUT;
 8000c16:	2303      	movs	r3, #3
 8000c18:	e053      	b.n	8000cc2 <HAL_RCC_ClockConfig+0x1b6>
    while (__HAL_RCC_GET_SYSCLK_SOURCE() != (RCC_ClkInitStruct->SYSCLKSource << RCC_CFGR_SWS_Pos))
 8000c1a:	4b2d      	ldr	r3, [pc, #180]	; (8000cd0 <HAL_RCC_ClockConfig+0x1c4>)
 8000c1c:	685b      	ldr	r3, [r3, #4]
 8000c1e:	f003 020c 	and.w	r2, r3, #12
 8000c22:	687b      	ldr	r3, [r7, #4]
 8000c24:	685b      	ldr	r3, [r3, #4]
 8000c26:	009b      	lsls	r3, r3, #2
 8000c28:	429a      	cmp	r2, r3
 8000c2a:	d1eb      	bne.n	8000c04 <HAL_RCC_ClockConfig+0xf8>
    }
  }

#if defined(FLASH_ACR_LATENCY)
  /* Decreasing the number of wait states because of lower CPU frequency */
  if (FLatency < __HAL_FLASH_GET_LATENCY())
 8000c2c:	4b27      	ldr	r3, [pc, #156]	; (8000ccc <HAL_RCC_ClockConfig+0x1c0>)
 8000c2e:	681b      	ldr	r3, [r3, #0]
 8000c30:	f003 0307 	and.w	r3, r3, #7
 8000c34:	683a      	ldr	r2, [r7, #0]
 8000c36:	429a      	cmp	r2, r3
 8000c38:	d210      	bcs.n	8000c5c <HAL_RCC_ClockConfig+0x150>
  {
    /* Program the new number of wait states to the LATENCY bits in the FLASH_ACR register */
    __HAL_FLASH_SET_LATENCY(FLatency);
 8000c3a:	4b24      	ldr	r3, [pc, #144]	; (8000ccc <HAL_RCC_ClockConfig+0x1c0>)
 8000c3c:	681b      	ldr	r3, [r3, #0]
 8000c3e:	f023 0207 	bic.w	r2, r3, #7
 8000c42:	4922      	ldr	r1, [pc, #136]	; (8000ccc <HAL_RCC_ClockConfig+0x1c0>)
 8000c44:	683b      	ldr	r3, [r7, #0]
 8000c46:	4313      	orrs	r3, r2
 8000c48:	600b      	str	r3, [r1, #0]

    /* Check that the new number of wait states is taken into account to access the Flash
    memory by reading the FLASH_ACR register */
    if (__HAL_FLASH_GET_LATENCY() != FLatency)
 8000c4a:	4b20      	ldr	r3, [pc, #128]	; (8000ccc <HAL_RCC_ClockConfig+0x1c0>)
 8000c4c:	681b      	ldr	r3, [r3, #0]
 8000c4e:	f003 0307 	and.w	r3, r3, #7
 8000c52:	683a      	ldr	r2, [r7, #0]
 8000c54:	429a      	cmp	r2, r3
 8000c56:	d001      	beq.n	8000c5c <HAL_RCC_ClockConfig+0x150>
  {
    return HAL_ERROR;
 8000c58:	2301      	movs	r3, #1
 8000c5a:	e032      	b.n	8000cc2 <HAL_RCC_ClockConfig+0x1b6>
  }
}
#endif /* FLASH_ACR_LATENCY */

/*-------------------------- PCLK1 Configuration ---------------------------*/
if (((RCC_ClkInitStruct->ClockType) & RCC_CLOCKTYPE_PCLK1) == RCC_CLOCKTYPE_PCLK1)
 8000c5c:	687b      	ldr	r3, [r7, #4]
 8000c5e:	681b      	ldr	r3, [r3, #0]
 8000c60:	f003 0304 	and.w	r3, r3, #4
 8000c64:	2b00      	cmp	r3, #0
 8000c66:	d008      	beq.n	8000c7a <HAL_RCC_ClockConfig+0x16e>
  {
    assert_param(IS_RCC_PCLK(RCC_ClkInitStruct->APB1CLKDivider));
    MODIFY_REG(RCC->CFGR, RCC_CFGR_PPRE1, RCC_ClkInitStruct->APB1CLKDivider);
 8000c68:	4b19      	ldr	r3, [pc, #100]	; (8000cd0 <HAL_RCC_ClockConfig+0x1c4>)
 8000c6a:	685b      	ldr	r3, [r3, #4]
 8000c6c:	f423 62e0 	bic.w	r2, r3, #1792	; 0x700
 8000c70:	687b      	ldr	r3, [r7, #4]
 8000c72:	68db      	ldr	r3, [r3, #12]
 8000c74:	4916      	ldr	r1, [pc, #88]	; (8000cd0 <HAL_RCC_ClockConfig+0x1c4>)
 8000c76:	4313      	orrs	r3, r2
 8000c78:	604b      	str	r3, [r1, #4]
  }

  /*-------------------------- PCLK2 Configuration ---------------------------*/
  if (((RCC_ClkInitStruct->ClockType) & RCC_CLOCKTYPE_PCLK2) == RCC_CLOCKTYPE_PCLK2)
 8000c7a:	687b      	ldr	r3, [r7, #4]
 8000c7c:	681b      	ldr	r3, [r3, #0]
 8000c7e:	f003 0308 	and.w	r3, r3, #8
 8000c82:	2b00      	cmp	r3, #0
 8000c84:	d009      	beq.n	8000c9a <HAL_RCC_ClockConfig+0x18e>
  {
    assert_param(IS_RCC_PCLK(RCC_ClkInitStruct->APB2CLKDivider));
    MODIFY_REG(RCC->CFGR, RCC_CFGR_PPRE2, ((RCC_ClkInitStruct->APB2CLKDivider) << 3));
 8000c86:	4b12      	ldr	r3, [pc, #72]	; (8000cd0 <HAL_RCC_ClockConfig+0x1c4>)
 8000c88:	685b      	ldr	r3, [r3, #4]
 8000c8a:	f423 5260 	bic.w	r2, r3, #14336	; 0x3800
 8000c8e:	687b      	ldr	r3, [r7, #4]
 8000c90:	691b      	ldr	r3, [r3, #16]
 8000c92:	00db      	lsls	r3, r3, #3
 8000c94:	490e      	ldr	r1, [pc, #56]	; (8000cd0 <HAL_RCC_ClockConfig+0x1c4>)
 8000c96:	4313      	orrs	r3, r2
 8000c98:	604b      	str	r3, [r1, #4]
  }

  /* Update the SystemCoreClock global variable */
  SystemCoreClock = HAL_RCC_GetSysClockFreq() >> AHBPrescTable[(RCC->CFGR & RCC_CFGR_HPRE) >> RCC_CFGR_HPRE_Pos];
 8000c9a:	f000 f821 	bl	8000ce0 <HAL_RCC_GetSysClockFreq>
 8000c9e:	4602      	mov	r2, r0
 8000ca0:	4b0b      	ldr	r3, [pc, #44]	; (8000cd0 <HAL_RCC_ClockConfig+0x1c4>)
 8000ca2:	685b      	ldr	r3, [r3, #4]
 8000ca4:	091b      	lsrs	r3, r3, #4
 8000ca6:	f003 030f 	and.w	r3, r3, #15
 8000caa:	490a      	ldr	r1, [pc, #40]	; (8000cd4 <HAL_RCC_ClockConfig+0x1c8>)
 8000cac:	5ccb      	ldrb	r3, [r1, r3]
 8000cae:	fa22 f303 	lsr.w	r3, r2, r3
 8000cb2:	4a09      	ldr	r2, [pc, #36]	; (8000cd8 <HAL_RCC_ClockConfig+0x1cc>)
 8000cb4:	6013      	str	r3, [r2, #0]

  /* Configure the source of time base considering new system clocks settings*/
  HAL_InitTick(uwTickPrio);
 8000cb6:	4b09      	ldr	r3, [pc, #36]	; (8000cdc <HAL_RCC_ClockConfig+0x1d0>)
 8000cb8:	681b      	ldr	r3, [r3, #0]
 8000cba:	4618      	mov	r0, r3
 8000cbc:	f7ff fb76 	bl	80003ac <HAL_InitTick>

  return HAL_OK;
 8000cc0:	2300      	movs	r3, #0
}
 8000cc2:	4618      	mov	r0, r3
 8000cc4:	3710      	adds	r7, #16
 8000cc6:	46bd      	mov	sp, r7
 8000cc8:	bd80      	pop	{r7, pc}
 8000cca:	bf00      	nop
 8000ccc:	40022000 	.word	0x40022000
 8000cd0:	40021000 	.word	0x40021000
 8000cd4:	08000e5c 	.word	0x08000e5c
 8000cd8:	20000014 	.word	0x20000014
 8000cdc:	20000018 	.word	0x20000018

08000ce0 <HAL_RCC_GetSysClockFreq>:
  *         right SYSCLK value. Otherwise, any configuration based on this function will be incorrect.
  *
  * @retval SYSCLK frequency
  */
uint32_t HAL_RCC_GetSysClockFreq(void)
{
 8000ce0:	b490      	push	{r4, r7}
 8000ce2:	b08a      	sub	sp, #40	; 0x28
 8000ce4:	af00      	add	r7, sp, #0
#if defined(RCC_CFGR2_PREDIV1SRC)
  const uint8_t aPLLMULFactorTable[14] = {0, 0, 4, 5, 6, 7, 8, 9, 0, 0, 0, 0, 0, 13};
  const uint8_t aPredivFactorTable[16] = {1, 2, 3, 4, 5, 6, 7, 8, 9, 10, 11, 12, 13, 14, 15, 16};
#else
  const uint8_t aPLLMULFactorTable[16] = {2, 3, 4, 5, 6, 7, 8, 9, 10, 11, 12, 13, 14, 15, 16, 16};
 8000ce6:	4b2a      	ldr	r3, [pc, #168]	; (8000d90 <HAL_RCC_GetSysClockFreq+0xb0>)
 8000ce8:	1d3c      	adds	r4, r7, #4
 8000cea:	cb0f      	ldmia	r3, {r0, r1, r2, r3}
 8000cec:	e884 000f 	stmia.w	r4, {r0, r1, r2, r3}
#if defined(RCC_CFGR2_PREDIV1)
  const uint8_t aPredivFactorTable[16] = {1, 2, 3, 4, 5, 6, 7, 8, 9, 10, 11, 12, 13, 14, 15, 16};
#else
  const uint8_t aPredivFactorTable[2] = {1, 2};
 8000cf0:	f240 2301 	movw	r3, #513	; 0x201
 8000cf4:	803b      	strh	r3, [r7, #0]
#endif /*RCC_CFGR2_PREDIV1*/

#endif
  uint32_t tmpreg = 0U, prediv = 0U, pllclk = 0U, pllmul = 0U;
 8000cf6:	2300      	movs	r3, #0
 8000cf8:	61fb      	str	r3, [r7, #28]
 8000cfa:	2300      	movs	r3, #0
 8000cfc:	61bb      	str	r3, [r7, #24]
 8000cfe:	2300      	movs	r3, #0
 8000d00:	627b      	str	r3, [r7, #36]	; 0x24
 8000d02:	2300      	movs	r3, #0
 8000d04:	617b      	str	r3, [r7, #20]
  uint32_t sysclockfreq = 0U;
 8000d06:	2300      	movs	r3, #0
 8000d08:	623b      	str	r3, [r7, #32]
#if defined(RCC_CFGR2_PREDIV1SRC)
  uint32_t prediv2 = 0U, pll2mul = 0U;
#endif /*RCC_CFGR2_PREDIV1SRC*/

  tmpreg = RCC->CFGR;
 8000d0a:	4b22      	ldr	r3, [pc, #136]	; (8000d94 <HAL_RCC_GetSysClockFreq+0xb4>)
 8000d0c:	685b      	ldr	r3, [r3, #4]
 8000d0e:	61fb      	str	r3, [r7, #28]

  /* Get SYSCLK source -------------------------------------------------------*/
  switch (tmpreg & RCC_CFGR_SWS)
 8000d10:	69fb      	ldr	r3, [r7, #28]
 8000d12:	f003 030c 	and.w	r3, r3, #12
 8000d16:	2b04      	cmp	r3, #4
 8000d18:	d002      	beq.n	8000d20 <HAL_RCC_GetSysClockFreq+0x40>
 8000d1a:	2b08      	cmp	r3, #8
 8000d1c:	d003      	beq.n	8000d26 <HAL_RCC_GetSysClockFreq+0x46>
 8000d1e:	e02d      	b.n	8000d7c <HAL_RCC_GetSysClockFreq+0x9c>
  {
    case RCC_SYSCLKSOURCE_STATUS_HSE:  /* HSE used as system clock */
    {
      sysclockfreq = HSE_VALUE;
 8000d20:	4b1d      	ldr	r3, [pc, #116]	; (8000d98 <HAL_RCC_GetSysClockFreq+0xb8>)
 8000d22:	623b      	str	r3, [r7, #32]
      break;
 8000d24:	e02d      	b.n	8000d82 <HAL_RCC_GetSysClockFreq+0xa2>
    }
    case RCC_SYSCLKSOURCE_STATUS_PLLCLK:  /* PLL used as system clock */
    {
      pllmul = aPLLMULFactorTable[(uint32_t)(tmpreg & RCC_CFGR_PLLMULL) >> RCC_CFGR_PLLMULL_Pos];
 8000d26:	69fb      	ldr	r3, [r7, #28]
 8000d28:	0c9b      	lsrs	r3, r3, #18
 8000d2a:	f003 030f 	and.w	r3, r3, #15
 8000d2e:	f107 0228 	add.w	r2, r7, #40	; 0x28
 8000d32:	4413      	add	r3, r2
 8000d34:	f813 3c24 	ldrb.w	r3, [r3, #-36]
 8000d38:	617b      	str	r3, [r7, #20]
      if ((tmpreg & RCC_CFGR_PLLSRC) != RCC_PLLSOURCE_HSI_DIV2)
 8000d3a:	69fb      	ldr	r3, [r7, #28]
 8000d3c:	f403 3380 	and.w	r3, r3, #65536	; 0x10000
 8000d40:	2b00      	cmp	r3, #0
 8000d42:	d013      	beq.n	8000d6c <HAL_RCC_GetSysClockFreq+0x8c>
      {
#if defined(RCC_CFGR2_PREDIV1)
        prediv = aPredivFactorTable[(uint32_t)(RCC->CFGR2 & RCC_CFGR2_PREDIV1) >> RCC_CFGR2_PREDIV1_Pos];
#else
        prediv = aPredivFactorTable[(uint32_t)(RCC->CFGR & RCC_CFGR_PLLXTPRE) >> RCC_CFGR_PLLXTPRE_Pos];
 8000d44:	4b13      	ldr	r3, [pc, #76]	; (8000d94 <HAL_RCC_GetSysClockFreq+0xb4>)
 8000d46:	685b      	ldr	r3, [r3, #4]
 8000d48:	0c5b      	lsrs	r3, r3, #17
 8000d4a:	f003 0301 	and.w	r3, r3, #1
 8000d4e:	f107 0228 	add.w	r2, r7, #40	; 0x28
 8000d52:	4413      	add	r3, r2
 8000d54:	f813 3c28 	ldrb.w	r3, [r3, #-40]
 8000d58:	61bb      	str	r3, [r7, #24]
        {
          pllclk = pllclk / 2;
        }
#else
        /* HSE used as PLL clock source : PLLCLK = HSE/PREDIV1 * PLLMUL */
        pllclk = (uint32_t)((HSE_VALUE  * pllmul) / prediv);
 8000d5a:	697b      	ldr	r3, [r7, #20]
 8000d5c:	4a0e      	ldr	r2, [pc, #56]	; (8000d98 <HAL_RCC_GetSysClockFreq+0xb8>)
 8000d5e:	fb02 f203 	mul.w	r2, r2, r3
 8000d62:	69bb      	ldr	r3, [r7, #24]
 8000d64:	fbb2 f3f3 	udiv	r3, r2, r3
 8000d68:	627b      	str	r3, [r7, #36]	; 0x24
 8000d6a:	e004      	b.n	8000d76 <HAL_RCC_GetSysClockFreq+0x96>
#endif /*RCC_CFGR2_PREDIV1SRC*/
      }
      else
      {
        /* HSI used as PLL clock source : PLLCLK = HSI/2 * PLLMUL */
        pllclk = (uint32_t)((HSI_VALUE >> 1) * pllmul);
 8000d6c:	697b      	ldr	r3, [r7, #20]
 8000d6e:	4a0b      	ldr	r2, [pc, #44]	; (8000d9c <HAL_RCC_GetSysClockFreq+0xbc>)
 8000d70:	fb02 f303 	mul.w	r3, r2, r3
 8000d74:	627b      	str	r3, [r7, #36]	; 0x24
      }
      sysclockfreq = pllclk;
 8000d76:	6a7b      	ldr	r3, [r7, #36]	; 0x24
 8000d78:	623b      	str	r3, [r7, #32]
      break;
 8000d7a:	e002      	b.n	8000d82 <HAL_RCC_GetSysClockFreq+0xa2>
    }
    case RCC_SYSCLKSOURCE_STATUS_HSI:  /* HSI used as system clock source */
    default: /* HSI used as system clock */
    {
      sysclockfreq = HSI_VALUE;
 8000d7c:	4b06      	ldr	r3, [pc, #24]	; (8000d98 <HAL_RCC_GetSysClockFreq+0xb8>)
 8000d7e:	623b      	str	r3, [r7, #32]
      break;
 8000d80:	bf00      	nop
    }
  }
  return sysclockfreq;
 8000d82:	6a3b      	ldr	r3, [r7, #32]
}
 8000d84:	4618      	mov	r0, r3
 8000d86:	3728      	adds	r7, #40	; 0x28
 8000d88:	46bd      	mov	sp, r7
 8000d8a:	bc90      	pop	{r4, r7}
 8000d8c:	4770      	bx	lr
 8000d8e:	bf00      	nop
 8000d90:	08000e4c 	.word	0x08000e4c
 8000d94:	40021000 	.word	0x40021000
 8000d98:	007a1200 	.word	0x007a1200
 8000d9c:	003d0900 	.word	0x003d0900

08000da0 <RCC_Delay>:
  * @brief  This function provides delay (in milliseconds) based on CPU cycles method.
  * @param  mdelay: specifies the delay time length, in milliseconds.
  * @retval None
  */
static void RCC_Delay(uint32_t mdelay)
{
 8000da0:	b480      	push	{r7}
 8000da2:	b085      	sub	sp, #20
 8000da4:	af00      	add	r7, sp, #0
 8000da6:	6078      	str	r0, [r7, #4]
  __IO uint32_t Delay = mdelay * (SystemCoreClock / 8U / 1000U);
 8000da8:	4b0a      	ldr	r3, [pc, #40]	; (8000dd4 <RCC_Delay+0x34>)
 8000daa:	681b      	ldr	r3, [r3, #0]
 8000dac:	4a0a      	ldr	r2, [pc, #40]	; (8000dd8 <RCC_Delay+0x38>)
 8000dae:	fba2 2303 	umull	r2, r3, r2, r3
 8000db2:	0a5b      	lsrs	r3, r3, #9
 8000db4:	687a      	ldr	r2, [r7, #4]
 8000db6:	fb02 f303 	mul.w	r3, r2, r3
 8000dba:	60fb      	str	r3, [r7, #12]
  do
  {
    __NOP();
 8000dbc:	bf00      	nop
  }
  while (Delay --);
 8000dbe:	68fb      	ldr	r3, [r7, #12]
 8000dc0:	1e5a      	subs	r2, r3, #1
 8000dc2:	60fa      	str	r2, [r7, #12]
 8000dc4:	2b00      	cmp	r3, #0
 8000dc6:	d1f9      	bne.n	8000dbc <RCC_Delay+0x1c>
}
 8000dc8:	bf00      	nop
 8000dca:	bf00      	nop
 8000dcc:	3714      	adds	r7, #20
 8000dce:	46bd      	mov	sp, r7
 8000dd0:	bc80      	pop	{r7}
 8000dd2:	4770      	bx	lr
 8000dd4:	20000014 	.word	0x20000014
 8000dd8:	10624dd3 	.word	0x10624dd3

08000ddc <__libc_init_array>:
 8000ddc:	b570      	push	{r4, r5, r6, lr}
 8000dde:	2600      	movs	r6, #0
 8000de0:	4d0c      	ldr	r5, [pc, #48]	; (8000e14 <__libc_init_array+0x38>)
 8000de2:	4c0d      	ldr	r4, [pc, #52]	; (8000e18 <__libc_init_array+0x3c>)
 8000de4:	1b64      	subs	r4, r4, r5
 8000de6:	10a4      	asrs	r4, r4, #2
 8000de8:	42a6      	cmp	r6, r4
 8000dea:	d109      	bne.n	8000e00 <__libc_init_array+0x24>
 8000dec:	f000 f822 	bl	8000e34 <_init>
 8000df0:	2600      	movs	r6, #0
 8000df2:	4d0a      	ldr	r5, [pc, #40]	; (8000e1c <__libc_init_array+0x40>)
 8000df4:	4c0a      	ldr	r4, [pc, #40]	; (8000e20 <__libc_init_array+0x44>)
 8000df6:	1b64      	subs	r4, r4, r5
 8000df8:	10a4      	asrs	r4, r4, #2
 8000dfa:	42a6      	cmp	r6, r4
 8000dfc:	d105      	bne.n	8000e0a <__libc_init_array+0x2e>
 8000dfe:	bd70      	pop	{r4, r5, r6, pc}
 8000e00:	f855 3b04 	ldr.w	r3, [r5], #4
 8000e04:	4798      	blx	r3
 8000e06:	3601      	adds	r6, #1
 8000e08:	e7ee      	b.n	8000de8 <__libc_init_array+0xc>
 8000e0a:	f855 3b04 	ldr.w	r3, [r5], #4
 8000e0e:	4798      	blx	r3
 8000e10:	3601      	adds	r6, #1
 8000e12:	e7f2      	b.n	8000dfa <__libc_init_array+0x1e>
 8000e14:	08000e6c 	.word	0x08000e6c
 8000e18:	08000e6c 	.word	0x08000e6c
 8000e1c:	08000e6c 	.word	0x08000e6c
 8000e20:	08000e70 	.word	0x08000e70

08000e24 <memset>:
 8000e24:	4603      	mov	r3, r0
 8000e26:	4402      	add	r2, r0
 8000e28:	4293      	cmp	r3, r2
 8000e2a:	d100      	bne.n	8000e2e <memset+0xa>
 8000e2c:	4770      	bx	lr
 8000e2e:	f803 1b01 	strb.w	r1, [r3], #1
 8000e32:	e7f9      	b.n	8000e28 <memset+0x4>

08000e34 <_init>:
 8000e34:	b5f8      	push	{r3, r4, r5, r6, r7, lr}
 8000e36:	bf00      	nop
 8000e38:	bcf8      	pop	{r3, r4, r5, r6, r7}
 8000e3a:	bc08      	pop	{r3}
 8000e3c:	469e      	mov	lr, r3
 8000e3e:	4770      	bx	lr

08000e40 <_fini>:
 8000e40:	b5f8      	push	{r3, r4, r5, r6, r7, lr}
 8000e42:	bf00      	nop
 8000e44:	bcf8      	pop	{r3, r4, r5, r6, r7}
 8000e46:	bc08      	pop	{r3}
 8000e48:	469e      	mov	lr, r3
 8000e4a:	4770      	bx	lr
